:020000040800F2
:10000000F8FF0724D1F9030897450308854503083D
:1000100099450308A9450308B945030800000000F5
:10002000000000000000000000000000C9450308B7
:10003000CB45030800000000F955030831560308BA
:1000400015F80308B1460308C3460308C946030868
:1000500001E1030815F80308454603084B46030869
:1000600051460308574603085D460308C57A03084E
:10007000D57A0308E57A0308F57A0308057B0308B7
:10008000157B0308257B030815F80308219F030847
:1000900015F80308279F030815F8030863460308AB
:1000A000DD460308E3460308E9460308EF46030874
:1000B000F3460308F9460308FF460308954703087B
:1000C0009B470308A1470308A747030815F803083F
:1000D00015F803085F470308654703086B470308E3
:1000E00087460308B74603080000000029470308B5
:1000F0002F4703084747030841470308357B030898
:1001000015F80308B9EA030805470308358B030807
:1001100071470308774703081D470308234703086F
:10012000457B0308557B0308657B0308757B030843
:10013000857B0308A9B10308BD46030815F8030829
:1001400000000000000000000000000000000000AF
:10015000957B0308A57B0308B57B03087D4703084F
:1001600015F8030815F8030815F8030815F803082F
:1001700015F8030815F8030815F803080000000037
:1001800015F8030815F8030883470308894703088F
:1001900015F8030815F8030815F8030815F80308FF
:1001A00015F8030815F8030815F8030815F80308EF
:1001B00015F8030815F8030815F80308AD470308F8
:1001C000B347030815F8030815F8030815F80308E2
:1001D000D9450308CD45030815F8030815F80308A9
:1001E00015F8030815F8030815F8030815F80308AF
:1001F00015F8030815F8030815F8030815F803089F
:1002000015F8030815F8030815F8030815F803088E
:100210004D470308534703085947030815F80308D7
:1002200015F8030815F8030815F803080000000086
:1002300015F8030815F803080000000015F8030876
:1002400015F8030815F8030815F8030815F803084E
:1002500015F8030815F8030815F8030815F803083E
:1002600015F8030815F8030815F8030815F803082E
:1002700015F8030815F803088F470308000000006D
:1002800015F8030815F8030815F803080000000026
:080290000000000015F803084E
:10029800024B5A6902605861002070475C000024D4
:1002A800024B5A6912685A61704700BF5C0000240B
:1002B800C460056146618761C0F81C80C0F8209061
:1002C800C0F824A0C0F828B0C0F82CD080ED0C8B62
:1002D80080ED0E9B80ED10ABC0F808E0FFF7D8BFAB
:1002E800104908B54B690BB933F034FE1A685860E9
:1002F8004A611846C468056946698769D0F81C8050
:10030800D0F82090D0F824A0D0F828B0D0F82CD07D
:1003180090ED0C8B90ED0E9B90ED10ABD0F808E0B3
:10032800012070475C00002410B50021044600F04D
:10033800C7FA18B914B120460DF020FA10BD0021F3
:1003480000F0BEBA10B50121044600F0B9FA18B998
:1003580014B120460DF012FA10BDFFF7E5BF10B535
:1003680001220C4600F0BAFB18B914B120460DF072
:1003780005FA10BD00F0B2BB00F072BB2DE9F043E6
:100388004FF0030C00252A4CD4F89C62002101315F
:1003980043189A0803F00303B25C5B0042FA03F3C4
:1003A80003F00303022BF2D0D4F8A832090103EBBF
:1003B80000108B0811B300EB830103681A071AD1E8
:1003C800D4F8A8229A4216D89A1AD4F8AC62C2F382
:1003D800011E9E424FEA92174FEA4E0E4FEA121242
:1003E80009D9D4F89C8218F8076046FA0EF303F08E
:1003F8000303012B09D004308842DED1B5B1013D99
:1004080004EB4503B3F8B402BEE70CFA0EFE3F2D29
:1004180004EB450946EA0E0608F8076003D80135DB
:10042800A9F8B422E7E7C4F8B032E4E7BDE8F083FE
:100438005C00002430B51C4C0122D4E9A953C01A31
:10044800C109C0F302134FEA101C9A406B5C4FEAD3
:100458009C0E23EA02036B548309D4F84023032536
:10046800B2EB901FD4F89C020CF0030288BFC4F8CA
:100478004033C15C52000CF1010C05FA02F30CF098
:10048800030221EA0301530000F80E104FEA9C0E04
:10049800D4F89C0210F80E1041FA03F303F003039A
:1004A800022BE7D030BD00BF5C00002421F00F0113
:1004B800154A38B50C1A154D0346E400C5F8AC12B8
:1004C800C5F89C02A2FB0424640AA1EB841123440E
:1004D8002246C5F8A8120021C5E9A84325F0A4F8CA
:1004E8000021A200D5F8A4020732D20825F09CF812
:1004F800002301214FF0FF32C5F840332B81A5F8C6
:100508003413C5E9CE3238BDF32C23FA5C0000243D
:10051800024A138901331381704700BF5C0000242D
:10052800024A1389013B1381704700BF5C00002415
:10053800024B1889003818BF012070475C0000245E
:10054800F8B51C4D002203272B8905F1080405F591
:10055800FE76C5F838230133C5F8B0222B8154F84C
:10056800043F1A071AD1D5F8A802834216D3181ADD
:10057800D5F8AC12C0F301128B424FEA901C4FEA37
:1005880042024FEA101009D2D5F89CE21EF80C106E
:1005980041FA02F303F00303012B02D0A642DED195
:1005A800F8BD07FA02F211430EF80C10FFF7E6FE49
:1005B800F4E700BF5C00002491B32DE9F0410E463A
:1005C800051F0024174F4FF0030855F8043F013466
:1005D8001A0719D1D7F8A8229A4215D8D7F8AC1219
:1005E8009A1A99424FEA921C4FEA1210C2F301126A
:1005F8000AD9D7F89CE252001EF80C1041FA02F30F
:1006080003F00303012B03D0A642DED1BDE8F0813D
:1006180008FA02F211430EF80C10FFF7AFFEF3E7E9
:10062800704700BF5C0000242DE9F04F574E85B09D
:10063800D6F8A032D6F8B0229800C2B10025C6F884
:10064800B052002843D00024A30804F00302D6F8CF
:100658009C125200CB5C134103F00303032B3FD0E1
:1006680001348442F0D3D6F8B032002BE7D170B30E
:100678004FF0000C03274FF001094FF002086546C0
:1006880004E0012B4AD00135854220D2D6F89CE2FD
:100698004FEA950A05F003041EF80A200EEB9501AF
:1006A800640042FA04F303F00303022B28D0032B5F
:1006B800E7D108FA04F401354FF0000C22EA0402ED
:1006C8000EF80A20D6F8A03298008542DED3338986
:1006D8000022013BC6F84023338105B0BDE8F08F06
:1006E80020460134FFF74AFED6F8A032B4EB830F58
:1006F8004FEA8300A8D3D6F8B032002B9FD1B6E7D3
:10070800BCF1000FBFD007FA04F44FF0010C22EA45
:1007180004040C70D6F8A0329800B4E7EB08D6F8B9
:10072800A40205F0070B10F803E000EBD50C0193C9
:100738004EFA0BF0C307E6D5D6F8A80229014158AE
:1007480000EB0510A9B102AAB1210CF00BFADDE902
:10075800013242B10DF082FADDE902010DF04EFAE4
:100768000DF092FA019BD6F8A42202EB030C12F8C2
:1007780003E009FA0BFB2EEA0B0E8CF800E0D6F822
:100788009C3203EB0A0113F80A20BCE75C00002442
:10079800044B00211A89C3F8B01201321A81FFF7FD
:1007A80043BF00BF5C000024444A00232DE9F04FFA
:1007B800D2E9AA41D2E9A762091B83B04FEA820EA7
:1007C80083619C4698461C461D461A469B460193E3
:1007D800C0E90013C0E90233C0E90433194696F8AA
:1007E80000A04FEA4B034AFA03F303F00303012B7B
:1007F8003AD0022B51D0002B48D0013296450CBF7D
:100808004FF001094FF000090FD0930802F0030BD5
:1008180016F803A04FEA4B034AFA03F39F0702D5E1
:10082800B9F1000FDDD003F00303012939D0022903
:1008380004D1476907F1010AC0F814A0414501D95C
:1008480088468161012B13D0B9F1000F10D19308AC
:1008580002F0030B16F803A04FEA4B034AFA03F31E
:1008680003F00303012BC4D1013419464460C4E7E3
:10087800654501D9AC46C560964518D1019B240150
:100888001F01C0E9014703B0BDE8F08F01990135A8
:100898000131019181601946AFE7013401314460AB
:1008A800ABE7076907F1010AC0F810A0C6E793088B
:1008B800002502F0030B16F803A092E75C00002461
:1008C8000F302DE9F84306094FD0644C2389002BDB
:1008D8004BD1B4F834330D46002B0CBF4FF0010E4A
:1008E8004FF0000E45D1D4F84003D4F8A0728742E7
:1008F80038D9D4F89CC2411E002261441AE0013262
:10090800964250D913F00C0F1ED10132964240F294
:100918009C8013F0300F1CD10132964240F298802F
:1009280013F0C00F1AD10132964240F29480013080
:10093800B84217D211F8013F13F0030FDFD013F0BC
:100948000C0F4FF00002E0D013F0300F4FF0000210
:10095800E2D013F0C00F4FF00002E4D001300022C3
:10096800B842E7D3BEF1000F12D000231846BDE805
:10097800F883D4E9CE239A42B5D33AF0CBFED4F823
:100988004003D4F8A072B842EFD24FF0010EB0E79E
:100998003AF0C0FED4F84003D4F8A0724FF0010E2C
:1009A8008742A6D8E1E78000811A012A01F10107F0
:1009B80003D1431C9B08C4F8403307F003084FEAEF
:1009C800970E012302314FEA4808884203FA08F3D8
:1009D8001CF80E8043EA08030CF80E3013D34FF0CE
:1009E800020801F003034FEA910CD4F89CE20131AC
:1009F8005B001EF80C90884208FA03F343EA0903E7
:100A08000EF80C30EDD2D4F838331201D4F8A8829D
:100A1800002133443E01C4F8383308EB0713184665
:100A280024F002FEEA070346A0D50022D4F8A40267
:100A3800F90807F0070748F806200122445CBA4085
:100A4800224342541846BDE8F88380000130ABE7E2
:100A580080000230A8E780000330A5E75C0000248E
:100A6800034B1A8912B908B1FFF7E4BC704700BFFD
:100A78005C00002410F00F021BD11749D1F8A832EE
:100A8800834217D810B4D1F8AC4284420DD9C31AA6
:100A9800D1F89C42C3F3011099091B09615C40001D
:100AA800014101F00301012906D010465DF8044B0D
:100AB800704700221046704701329918880801F0E3
:100AC8000301205C490040FA01F101F00301022909
:100AD800F2D01201E9E700BF5C0000242DE9F84FCD
:100AE80088460646002800F0A580574D2B89002926
:100AF80077D0002B4DD1D5F8A81208F10F0C411A68
:100B0800D5F8A0024FEA1C1C4FEA111E4FEA800AD2
:100B18000EF10107B7EB800F80F09280D5F89C02A8
:100B28004FF00109BC0807F0030B045D4FEA4B0BBB
:100B380044FA0BF404F00304022C2ED024B9013338
:100B480003EB090464452AD3CC451ED02BD34B4470
:100B580063454ED2C909D5F8A432595CCAB10EF022
:100B6800070E404641FA0EF101F00101FFF7A8FE19
:100B7800044670B14FEA0912314624F011FD2B8961
:100B880023B93046FFF756FC00E034462046BDE85E
:100B9800F88F00242046BDE8F88F09F101090137D4
:100BA800BA45BFD1D0E7F4440327CE44624602F0E9
:100BB80003039008D5F89C4201325B00215C724522
:100BC80007FA03F321EA03032354F0D1D5F840339D
:100BD8004FEA9C02B3EB9C0FD7D93446C5F84023A3
:100BE800D4E7002BD5D11C46FFF724FC2046BDE8EE
:100BF800F88F0EEB0902E64496450FD9022702F05A
:100C080003039108D5F89C0201325B00445C9645C9
:100C180007FA03F343EA04034354F0D1ACEB0902A7
:100C28003446002106EB0910120124F0FDFC204691
:100C3800BDE8F88F01464046BDE8F84FFFF740BED3
:100C48004FF0010980E700BF5C00002410B58AB0AE
:100C58000B4C03A8FFF7A8FD039A0A49DDE9043005
:100C68000090204600F04AFF2046069C079ADDE9DE
:100C78000831CDE90014044900F040FF0AB010BD66
:100C88003416060808B005082CB005082DE9F84305
:100C9800DFF86C914A494B48D9F8A82200F02EFF9A
:100CA800D9F8A012890079D00024DFF85881464F7E
:100CB800444E0EE0012B4AD02E224449304600F023
:100CC8001DFF0134D9F8A032B4EB830F4FEA83013A
:100CD80064D204F00305A206D9F89C024FEA450540
:100CE8000CD0A308D9F89C22D35C2B4103F0030352
:100CF800022B2AD0032BDDD16D22DEE7A4464FEA72
:100D08009C020CF00303825C5B0042FA03F39B072E
:100D180003D10CF1010C8C45F1D3ACEB04027F2A12
:100D28000CD992092A4930462CF03F0400F0E6FE1F
:100D3800D9F8A032B4EB830F30D2002508EA0412A8
:100D48003946304600F0DAFECBE73D22B5E7D9F860
:100D5800A82223011F49D2588A421DD01E4B9A420D
:100D680022D01E4B9A4223D01D4B9A421ED01D4BB7
:100D78009A421BD01C4B9A421CD01C4B9A4219D049
:100D88001B4B9A421AD01B4B9A4215D01A4B9A42C7
:100D98000CBF4D22682290E754228EE71749094874
:100DA800BDE8F84300F020BB4C2286E7532284E7D5
:100DB800442282E7412280E742227EE746227CE7FE
:100DC80074B0050834160608B0B00508B8B00508B0
:100DD80094B00508444D06088C3E0608983006086D
:100DE800C84A0608644806089C2C0608242C0608ED
:100DF800D0380608603906086840060890B005082B
:100E08005C000024F0FF0F00054B1B6A5A68824201
:100E180004D8801A043053F8200070471B68F5E79F
:100E28005C000024014441F20553884204D398B27F
:100E3800012838BF0120704703EB431310F8012B3A
:100E48005340F2E7034B044A1A620022C3F8002217
:100E5800704700BF5C00002410CF06082DE9F84F4A
:100E680080460D46FFF7DEFF134B07461C6A0CB998
:100E780020461EE004F1100BE3685E460BEB830985
:100E88004E45B24601D32468F1E756F8040B0388AF
:100E9800BB42F5D18378AB42F2D12A4641460330B2
:100EA80024F0EAFB0028EBD1AAEB0B0A606800EB00
:100EB800AA00BDE8F88F00BF5C0000242DE9F047C8
:100EC80080460E46FFF7CAFF024600287FD1FF2E54
:100ED80003D9404940480BF0BFFE404C351DD4F8BB
:100EE800000290B1D4E981132B448B422AD92944BA
:100EF800FFF740FA0746E0B90246D4F80812D4F8DA
:100F08000002FFF737FAC4F80072802D2F4638BF69
:100F180080273846FFF713FAC4F8000200283DD1AD
:100F28002846FFF70CFAC4F80002B0BB28460CF0BC
:100F380025FCD4F804322B44C4F80432D4F8003227
:100F4800002BE2D0D4F808923146D4F800A24046EB
:100F58004D440AEB0907C4F80852FFF763FF0AF883
:100F68000900000A3246BE7078704146F81C24F029
:100F780017FBBB190026DE70236AD3E90253AB4284
:100F88001BD36D000A2D38BF0A25281D8000FFF7E6
:100F9800D6F948B9C4F80002C8E72F460023C4F8B8
:100FA8000472C4F80832CDE7226A53680260D26836
:100FB800C6601344C0E901352062236ADA68511C0F
:100FC8000432D96043F822705A68013A0A4410463C
:100FD800BDE8F087BBB005081C3606085C00002495
:100FE80010B5044624F05AFB01462046BDE81040DF
:100FF800FFF764BF08B5FFF707FF008808BD08B50D
:10100800FFF702FF807808BD08B5FFF7FDFE033043
:1010180008BD08B5FFF7F8FE837803300B6008BDFC
:101028002DE9F8431D460023074688460360164607
:101038000B6013602B60164BDFF858901C6A0CB1DC
:101048004C4505D12B68326813442B60BDE8F88302
:101058003B6801333B60E268D8F800301344C8F8B5
:10106800003004F11003E26803EB8202934207D3D5
:101078002046FFF7FFFC2B68246818442860DEE749
:1010880053F8041B88783168043101443160EDE776
:101098005C00002410CF06082DE9F8430E4B0F4FD3
:1010A8001C6ADFF83C80DFF83C900CB1BC4201D1EF
:1010B800BDE8F88304F11005E36805EB8306B54243
:1010C80001D32468F1E755F8042B4146484603321A
:1010D80000F014FDF3E700BF5C00002410CF060801
:1010E800C0B005083416060830B50023202411F8CE
:1010F800012F0AB9027030BD120600F101051ED594
:101108000BB1047028460B78114A03F07F0363B9CA
:10111800013A12F8013F0546013013F0800F0BD059
:1011280003F07F032B700123E1E712F9015B002D27
:10113800FBDA013BDBB2EAE700F8013CE9E7012B07
:1011480004BF047028460B7800F8013B0223CEE761
:10115800C7B0050838B5436805461944036899427D
:1011680011D9037BDB0703D5002107480BF074FD79
:1011780001F11004806824F0070408342146FFF7C1
:10118800EEF82C60A86038BD1C36060870B5044619
:101198000E4611461546FFF7DDFF31462A46D4E9CB
:1011A8000130184424F02CFA63682B44636070BD46
:1011B80070B546680446B14228BF31460D46012144
:1011C800FFF7C8FFA368681C721B5919184424F05C
:1011D80017FA6368A06801332844636070BD012969
:1011E80038B538BF012104460025084621606560EE
:1011F800FFF79AF8237BA06065F30003237338BDDB
:1012080038B505460C460131FFF7E9FF6C6038BD7B
:1012180000230160C0E90132037B43F0010303733B
:101228007047000038B514460546FFF7D8FF024B53
:101238002560636038BD00BF95110008037BDB079C
:1012480010B5044602D48068FFF796F80023A3601F
:1012580010BD13B501901020FFF766F804460199F8
:10126800FFF7BDFF204602B010BD10B5044650B1CF
:10127800037BDB0702D48068FFF77EF82046BDE8D1
:101288001040FFF779B810BD38B5037B04460D460A
:10129800DB0703D5002107480BF0DEFC01688068F6
:1012A8002944FFF75CF82368A0601D4418442560B2
:1012B80038BD00BF1C36060838B504460D46FFF792
:1012C80049FFD4E901301D441844656038BDD0E9B0
:1012D800002310B59A42044602D10121FFF7D4FF3A
:1012E8000021D4E90132D154A06810BD10B50C46D4
:1012F8000121FFF7E1FF047010BD7F29F8B50C4606
:10130800CEB204D80121FFF7D7FF0670F8BD06F06A
:101318003F06B1F5006FC1F3871546F0800607D286
:1013280065F03F050221FFF7C7FF46700570EDE73E
:1013380005F03F05B1F5803FC1F3073745F080055B
:1013480008D267F01F070321FFF7B6FF4570077043
:101358008670DBE7A40C07F03F07042164F00F0454
:1013680067F07F07FFF7A8FF857004704770C670A5
:10137800CCE713B504460846019124F08FF901998A
:101388000246204602B0BDE81040FFF7FFBE10B588
:101398001446FFF70DFF047010BD10B51446FFF793
:1013A80007FF047010BD43688B422CBF591A0021F7
:1013B8004160704738B504461546084662688A4257
:1013C80003D929448A4201D8606038BDA368521AFB
:1013D8001844194424F014F963685B1B6360F4E74C
:1013E8000846114625F0A0B937B5054608460191CB
:1013F80024F054F9044620B102466B680199286824
:101408009847204603B030BD2DE9F74F89469DF82F
:10141800301017460D9A11F0DF0F0646A2EB0702AF
:101428003DD030290CA8254913BF80464FF0100A3B
:1014380088464FF0010A13F0800535D002EBD274CC
:101448006510A2EB6404002D35DDAB46DA45524643
:1014580073684146A8BF5A46306801929847019A76
:10146800ABEB020BBBF1000FF0DC2FB13D4473680E
:101478003A46494630689847002C0CDD2544A24579
:10148800574673684146A8BF27463068E41B3A466A
:101498009847002CF3DC284603B0BDE8F08FDFF84E
:1014A80020804FF0100AC6E713F0010401D1154659
:1014B800C9E71446D9E70025D7E700BF4D16060847
:1014C8003C1606082DE9F043064689B00020119D18
:1014D8009DF84880139F8DF80F000AB381421ADAED
:1014E8002D2249428DF80F20109A08AC0DF11009F1
:1014F800A2F10A008E46B1FBF3FC03FB1C12614605
:10150800092A8CBF1218303204F8012D4C450ED030
:101518007345EFD90BE0A80727D52B228DF80F20AC
:101528000029E1D130230DF11F048DF81F3015F08B
:1015380040099DF80F301CD023B301222B460DF132
:101548000F013046013FCDE90082FFF75DFF81467C
:1015580008AA2B4621463046121BCDE90087FFF723
:1015680053FF484409B0BDE8F0836A07D8D5202264
:10157800D4E7002BECD004AA9442E9D904F8013C42
:10158800013CE5E79946E3E72DE9F04F93B0814642
:101598001E46C8079DF874300C4692461C9D07935A
:1015A800DDE91E870BD4A10703D121687F4B99423F
:1015B80005D020460DF02AF9400040F0010415F04E
:1015C800810306D1079A302A03D1B845B8BFB84677
:1015D8001F4620460DF1280B10F07AFA002818DB78
:1015E800AA0712D52B238DF828300DF12903E80618
:1015F800F6B21CD5BAF1020F0DD13020194601F808
:10160800020B701C58700B4611E06B0701D52023A4
:10161800E9E75B46EBE7BAF1080F62D130211970B0
:10162800A90549BF06F10E010133597002330021A3
:1016380015F0200F0EA81970A3EB0B030B904FF0B9
:10164800100006930CBF0B462C23012F8DF8271092
:10165800C8BF45F0400515F04002CDE90C010592E0
:10166800CDE9026347D023460DAA0BA8CDE900A116
:101678000CA910F009F9037882462D2B06D18DF8B4
:10168800273000F1010A0D9B013B0D93012F40F318
:1016980085800D9C059BBC42B8BF3C462BB19DF88C
:1016A800273003B10134069B1C44A0452EDD15F0FC
:1016B8000103A8EB04042AD126461C4625F001059F
:1016C8004EB1202301963A494846009300231A4612
:1016D800FFF79AFE0646059B002B5CD13023079343
:1016E8003AE0BAF1100FA2D13020194601F8020BE6
:1016F80006F1170086E70AAB0DAA0CA90BA8CDE9DD
:1017080000A3234610F0C0F88246BFE70024002655
:10171800D4E7002426469DF827305BB10023012238
:101728000DF12701484608F1FF38CDE90032FFF7EF
:101738006BFE0644069B63B10023012259464846C6
:10174800CDE90032069AFFF75FFE069B0644A8EB38
:101758000308012FD8BF4746079B51460D9A4846B4
:1017680000932B460197FFF74FFE06444CB1202308
:101778000F4948460194009300231A46FFF744FE98
:1017880006440B980EAB984201D0FEF7F5FD3046A3
:1017980013B0BDE8F08F30230793BCE7059B002BFF
:1017A800B7D11C461E464746D6E700BF203D06086F
:1017B8002C8B07082DE9F043164698468BB0074650
:1017C800B2070A4602A84FF0200154BFC6F38003AF
:1017D8002B23DDF8489058BF5B010093139B0AF058
:1017E80077F8F305044610D5431C1F2B0DD800F1DC
:1017F800280200210DEB0204252204F8202C03F115
:1018080028021C466A4402F8201C16F040051DD028
:101818009DF808302F2B4FF0000319D8012202A998
:10182800384609F1FF39013CCDE90032FFF7ECFDFC
:101838000DF109010546334622463846CDE90089AF
:10184800FFF7E2FD28440BB0BDE8F08302A9F2E7F8
:1018580002A91D46EFE700002DE9F04F074689B0C1
:1018680014460025DFF890820B461E4613F8012B1C
:10187800A2BBB14235D30B78002B00F03681013181
:1018880020234FF0000A084610F8012B32B12B2A0A
:101898003CD02FD8202A3CD0212A3DD04FF0000937
:1018A8004FF00A0C0E4611F8012BA2F1300009285E
:1018B80035D92E2A59D172782A2A35D000224FF0EC
:1018C8000A0E0E4611F8010BA0F1300CBCF1090FFD
:1018D8002DD80EFB020BABF13002F2E7252AC4D15A
:1018E800C7E7A6EB01097B6838684A464D44984724
:1018F8003146C0E72D2A05D0302ACFD14AF0400A18
:10190800134601E04AF0010A0146BCE74AF0020A20
:10191800FAE74AF0040AF7E74AF0080AF4E70CFB8A
:101928000922A2F13009BDE7023654F8042B22EA55
:10193800E27B32786C2A08BF01363178002900F042
:10194800D480782960D8572912D847295AD84429E9
:101958005AD907345246384624F00704CDE9009B8B
:10196800B4EC020BFFF726FF60E04FF0FF3BE0E727
:10197800A1F15802202A47D801A050F822F000BF50
:10198800C31A0008111A0008111A0008111A0008D1
:10199800111A0008111A0008111A0008111A000873
:1019A800111A0008111A00081F1A0008411A000825
:1019B800A71A00085B1900085B1900085B190008E2
:1019C800111A0008111A0008111A0008111A000843
:1019D800111A0008111A0008111A0008111A000833
:1019E800E31A0008551A0008111A00087F1A00089F
:1019F800111A0008C31A0008111A0008111A000861
:101A0800C31A0008502968D07B680122314638681B
:101A1800013598470BE054F8042BCDE900395346BB
:101A28003AB1042233493846FFF7EEFC0544711CED
:101A38001AE705224146F6E754F8042B07A98DF862
:101A48001C200122CDE900395346ECE707A954F8D8
:101A5800040B0493FFF7DDFABBF1FF3F0146049B3B
:101A680004D0079A934538BFCDF81CB0079ACDE942
:101A780000395346D7E754F8041B059308460491E8
:101A880023F00CFEBBF1FF3F0246DDE9041302D050
:101A9800584528BF5A46CDE900395346C3E7CDE932
:101AA800023961230122CDF804A000930A2354F8D7
:101AB800041B3846FFF706FDB8E74A1C21F00F0162
:101AC800CDF804A002F006020F39CDE90239C9B2F7
:101AD800C2F1100300910022E9E7CDE90239612340
:101AE800CDF804A000931023F5E7284609B0BDE817
:101AF800F08F00BF281606082D1606080EB403B589
:101B080003AA52F8041B0192FFF7A6FE02B05DF883
:101B180004EB03B0704790F900200378002A0ADA32
:101B280003F07F034022134207D110F8012F02F07F
:101B3800C001802905D01846704723EA02035208DD
:101B4800F1E702F03F0242EA8313EEE7431C18462E
:101B58000133027802F0C002802AF8D070470023CF
:101B6800814201D81846704711F8012D02F0C002D1
:101B7800802A18BF0133F3E7014403460020994245
:101B88001A4600D870471278013302F0C002802A42
:101B980018BF0130F3E700007F289DBF024B185C97
:101BA800C0F34000002070475E1606087F289DBFDE
:101BB800024B185CC0F3C000002070475E16060890
:101BC8007F289DBF024B185CC0F38000002070473F
:101BD8005E1606087F289DBF024B185CC0F3801074
:101BE800002070475E1606087F2809D8064B1B5C44
:101BF80013F00C0F06D1A0F15F035842584170470B
:101C080000207047012070475E1606087F289DBF98
:101C1800024B185CC0F30010002070475E160608DF
:101C28007F289DBF024B185CC0F34010002070470E
:101C38005E16060808B50246FFF7E8FF00B1203235
:101C4800104608BD08B50246FFF7EAFF00B1203A82
:101C5800104608BD3038092884BF20F02000073816
:101C6800704701440246002010B5E524914203D88C
:101C7800B0FA80F0400917E012F8013B30B103F0E8
:101C8800C003802B11D1431ED8B2EFE7BF2B09D96F
:101C9800F72B09D8DB0803F0060344FA03F303F033
:101CA8000300E3E71B06E1D510BD0020FCE702397D
:101CB80081420B4603D31A880239002AF8D002332E
:101CC800181A40107047B2EB131F70B54FEA13147F
:101CD80016D9121B03F00F0301EB440115460E46FB
:101CE800012D31F8024B18BF3468013D24FA03F482
:101CF800A4B220F8024BF2D104B9013A104670BDE3
:101D08000022FBE7F0B5059F0024D21B2646A74218
:101D180010D100EB4705002301EB47019A4214D18B
:101D280005EB42031EB10121023325F81210181ADF
:101D38004010F0BD31F8145033F814C065443544F0
:101D480020F814502E0C0134E1E731F813403444E4
:101D580025F81340260C0133E0E7F0B4049F002572
:101D6800D21B2C46AF420BD100EB4706002301EBF8
:101D780047059A420FD106EB4201F0BCFFF797BF27
:101D880031F81560344433F81560A41B20F8154069
:101D980024140135E6E735F813100C4426F81340EF
:101DA80024140133E5E72DE9F043079C0239DDF8F7
:101DB80028E0154684464FF6FF78A4EB0209DDE9D2
:101DC800087655B900EB42011FB10123023120F812
:101DD8001230BDE8F043FFF76ABF31F8024F013D0A
:101DE8004444264405EB0904AC4296BF33F8024B41
:101DF8004FF6FF744444744486EA040E360C17FA0E
:101E08008EF74FEA144E2CF8027B3F0CD9E70229D3
:101E180038B538BF0221044680680D4618B12368DA
:101E2800B1EB930F07D96900FEF799FA2368A06010
:101E380065F39F03236038BD38B504460C20FEF7D0
:101E480073FA054623682278C3F39D0023F0030341
:101E580002F00102400013432B6063686B60FEF7D9
:101E680063FAA8602268A168C2F39D02520023F0B9
:101E780097FB284638BD994210B511D313D800EB0B
:101E8800410002EB410209B9084610BD30F8023D95
:101E980032F8024D1B1B002B02DB04D10139F2E79B
:101EA8004FF0FF30F1E70120EFE710B5044638B1F5
:101EB8008068FEF761FA2046BDE81040FEF75CBA7C
:101EC80010BD70B50C4602210546FFF7A0FF002C97
:101ED8002B78B5BF012200226142214662F300033C
:101EE800AA682B70012388B21446090C1E4622F8F2
:101EF800020B03F10103F6D16E60208070BD002350
:101F0800C0E900338360704728B103789B0702D487
:101F18008068FEF731BA704738B505460C464968FF
:101F2800FFF775FF22782B78A86862F300032B70FF
:101F38006368A1686B606268BDE83840520023F0AE
:101F48002FBB0A4629B90178426062F3000101708B
:101F58007047FFF7B6BF08B5FFF7D1FFBDE80840E7
:101F6800FFF7EFBF920042F002020260002210B4B5
:101F7800C0E901215DF8044B1946FFF7E2BFF8B547
:101F880014461D469DF8187004210646FFF73FFFCA
:101F980022462B4627B1002D0CDA624265EB450339
:101FA800317867F3000131700021716052EA030152
:101FB80002D1F8BD0027F3E7D6E901104C1C746084
:101FC80020F81120120C42EA03421B0CEEE72DE91F
:101FD800F84353EC102B1E460378074610EE105AB0
:101FE800F20F62F30003037047F6F07313EA164228
:101FF80007D13B786FF300033B7000237B60BDE89B
:10200800F8839A42F5D0C6F30A52A2F2FF34002CA4
:10201800EFDB04D10121BDE8F843FFF752BFA2F27C
:10202800EF38C6F31306332C4FEA281846F4801607
:102038003FDCC4F13402A4F11403C4F1140406FA19
:1020480003F3D54026FA04F4D6401D432543002463
:10205800A14641463846FFF7DAFEC7F80480B9F1D1
:10206800000F05D04FEA49020021B86823F0DCFAD6
:102078009CB105FA04F2BB6823F81920C4F11003D7
:10208800103409F10109A3F12002DD4006FA04F435
:1020980026FA02F2DE40254315434B469845AED05A
:1020A800BA6822F813502D0C013345EA0645360C60
:1020B800F4E7A2F233430C34002B04F00F04B8BF4A
:1020C800A2F224434FEA2319C3E72DE9F8438F18F6
:1020D800C2F35B0204460D46511C9846089EFFF762
:1020E80096FE2378AC4600221FFA86FE68F30003AA
:1020F8002370BC456046626002D3401BBDE8F8838C
:1021080001780CF1010CA1F13003092B05D9A1F1DB
:102118004103192B12D8A1F13703B342EDD2A068BD
:1021280090468146B8F1000F0FD100EB420113B180
:10213800023120F81230091A4A10DAE7A1F16103D6
:10214800192BDAD8A1F15703E7E7B9F8001008F11D
:10215800FF3801FB0E3329F8023B1B0CE2E7F8B508
:10216800044615461E46C1B1531E4FF0FF371E44A4
:10217800E90020460F310909FFF749FE23780021BD
:102188006FF30003616023704DB9D4E9011000EBCF
:102198004101FFF78CFD6060F8BD0127E8E70023E7
:1021A8000F290ADC3278013D3E4402FA01F201F1BE
:1021B800080143EA02039BB2F2D162681039501C4D
:1021C8006060A06820F81230DEE738B5057804466C
:1021D8000B7805F0010203F00103981A08D1D1E940
:1021E8000132D4E90110FFF746FEEB0748BF404231
:1021F80038BD884210B5044601D0FFF78DFE23781C
:102208006FF30003237010BD884210B5044601D057
:10221800FFF782FE63683BB12378C3F30002C2F183
:10222800010262F30003237010BD88421FB5044603
:1022380001D0FFF771FE626862B901212046FFF7FD
:10224800E6FD0123A26813806360237843F001034D
:10225800237010E02378D9070FD56FF30003A16826
:10226800237001230846ADF80E3000930DF10E03DC
:10227800FFF773FD606004B010BD511C2046FFF7E6
:10228800C6FD0123A168ADF80E30009308460DF194
:102298000E036268FFF736FD6060D6E72DE9F84364
:1022A8004B6805460E46144603B12AB931462846FE
:1022B800BDE8F843FFF730BE02F10F014FEA1118ED
:1022C80003EB1111FFF7A3FDA96814F00F044FF0F9
:1022D800000ED6E9013208BF102408EB030702EB11
:1022E8004302C4F1100407F1004C0CF1FF3C01EB70
:1022F8004C0C1946E14601BB6FF00102C8F1010818
:102308002EFA04FE53434FEA48020CEB03005242F4
:102318002CF803E000EB48084046A8F1020823F037
:1023280083F917B138F817309BB12B786F60327882
:1023380062F300032B70BDE8F88332F8020D01390F
:1023480040EA0E0020FA04FE29F802E94FEA004E9E
:10235800D1E7013FE5E72DE9FF410D46496806460B
:10236800144601B132B92946304604B0BDE8F041FF
:10237800FFF7D2BDFFF74BFDB768D5F808802346B5
:102388006A6838464146FFF79EFC3378706002461B
:10239800297861F300033370DB072AD5002320096D
:1023A8006968ADF80E30994201D083420ED181425E
:1023B8001FD904F00F04012338F8101003FA04F4AD
:1023C800013C214211D0ADF80E3007E038F8135027
:1023D8004DB101238142ADF80E30EAD801235AB934
:1023E8003B80736005E00133DDE7BDF80E30002B5C
:1023F800F4D104B0BDE8F081009339460DF10E0325
:102408003846FFF77FFC7060F3E773B50C46154656
:102418000646D2E90132D1E90110FFF72CFD002868
:10242800BEBF23462C461D46237861682A78534050
:10243800DB071AD401313046FFF7E9FC6B68B06856
:102448000093AB68D4E90121FFF75CFC7060237846
:102458003278C3F3000300280CBF002303F0010304
:1024680063F30002327002B070BD3046FFF7CFFC54
:102478006B68B0680093AB68D4E90121FFF76DFC85
:10248800E4E7F7B50C4617460546D2E90132D1E92B
:102498000110FFF7F0FC0028BDBF23463C4601268B
:1024A8000026B8BF1F46237861683A785340DB0797
:1024B80019D501312846FFF7AAFC7B68A868009364
:1024C800BB68D4E90121FFF71DFC6860B8B1237827
:1024D80003F001030EB183F001032A7863F30002CD
:1024E8002A7003B0F0BD2846FFF791FC7B68A86806
:1024F8000093BB68D4E90121FFF72FFCE5E7034609
:10250800EBE72DE9F04F14464A680D4685B063683D
:1025180006469A423EBF0B4625461C462B786968FC
:10252800DB0722D4237813F001071ED1FFF76FFCD5
:10253800B068AD683B46D4E9011C99420CD100EB68
:102548004101FFF7B4FB00237060327863F30002A7
:10255800327005B0BDE8F08F35F813203CF8134011
:10256800224020F813200133E7E701313046FFF716
:102578004EFC2F78237807F00108D5F804C087EAC5
:10258800030147F30007B06803F00109C94343F3A7
:102598000003A268834601F0010E41F300019BB2DB
:1025A80089B200930291B9B267460191A968A1F175
:1025B800020A6168A1EB0C0103918FB900EB4C0191
:1025C800BEF1000F03D00123023120F81C30FFF7C1
:1025D8006EFB706022782B78C2F300021340B4E7D8
:1025E8003AF8021F013F019B5940039B8844D919BF
:1025F800B9429BBF32F8021B009B00995940029BCD
:10260800894408EA09014FEA19494FEA184859402C
:102618001EFA81F14FEA114E2BF8021BCDE72DE986
:10262800F84F15464A680C4606466B689A423EBF04
:102638000B462C461D4623786168DB0732D42A787E
:1026480012F001072ED1FFF7E2FBA16864683A4651
:10265800D6F808C0D5E9013EE41A934213D101EB3C
:10266800430100220CEB4303944215D103EB4403CE
:102678000022A3EB0C0358103378706062F3000358
:102688003370BDE8F88F31F812003EF81250284335
:102698002CF812000132E0E731F8120023F812009A
:1026A8000132E1E701313046FFF7B1FB22782B78A0
:1026B8004FF0010A616802F00108B06803F00109EF
:1026C80042F3000243F30003A468834692B29BB22C
:1026D800A4F1020CD5E901E70D46AEEB010E2DB9C8
:1026E80000EB4101FFF7E3FA0122C5E73CF8024F8E
:1026F800013D5440A0440EEB0504AC4296BF37F8A8
:10270800024B1C465C40A14448EA09044FEA1949B7
:102718004FEA1848E4431AFA84F44FEA144A2BF8AB
:10272800024BDCE7F0B515464A680C4685B06B6885
:1027380006469A423EBF0B462C461D4627786168DE
:102748002B785F4017F001073BD1FFF760FB237838
:1027580013F0010329D16168B068A768D5E9012C95
:10276800891A9A4212D107EB4207002300EB420272
:10277800994214D102EB4101FFF799FA00277060E2
:10278800337867F30003337005B0F0BD37F81340B2
:102798003CF813506C4020F813400133E1E737F858
:1027A800134022F813400133E2E7CDE9027701979D
:1027B8006B68B0680093AB68D4E90121FFF7F3FABE
:1027C800DCE701310127FFF722FB2B78B068DB43F8
:1027D80003F00103039323780197DB4303F001031C
:1027E80002936B680093AB68D4E90121FFF7DBFA29
:1027F8007060C5E74B682DE9F04F044685B00E467A
:1028080015460BB1536843B923786FF3000323705F
:102818000023636005B0BDE8F08F81422ED1FFF739
:102828000BFBA5420646074600D105466B682046C5
:1028380071681944FFF7EBFA22680021A068C2F317
:102848009D02520022F0F0FEB368D4F808E000229E
:10285800D6F804900193F446AB680EEB490811468C
:1028680002936B680393039B934231D0ACF102004F
:10287800DDF804B00023CDF8009018E0824204D1BE
:10288800FFF7DAFA05460746D0E70027CEE730F823
:1028980002AF53443BF802AB1946029B33F812309F
:1028A80003FB0A130099038001391B0C009100995E
:1028B8000029ECD14146881C13B10146A8F8003024
:1028C800A1EB0E010CF1020C013280464910CAE757
:1028D800616038462A7833785340227863F30002DF
:1028E800227005B0BDE8F04FFFF7DFBA4B6870B54E
:1028F8000546144613B11378DA0706D52B786FF31B
:1029080000032B7000236B6070BD636823B901213D
:10291800BDE87040FFF7D5BA0846FFF78DFA0646BE
:102928002046FFF789FA012104462846FFF7C9FA2D
:10293800636883B1A3681B88DB0704D53246294640
:102948002846FFF757FFA168012362680846FFF78A
:10295800BAF9606038B93046FFF7A7FA2046BDE8F3
:102968007040FFF7A2BA324631463046FFF742FFC1
:10297800DEE72DE9F04F0C4651688FB090460131E3
:1029880005460293FFF743FAD8F804200021A86807
:1029980000260132520022F047FE2B786E60204656
:1029A8006FF300032B70D8F804100131FFF72FFAEA
:1029B80041462046FFF7B0FA029BA768D4F8049076
:1029C80038464946D3E9013A00935246AB68039327
:1029D800009BFFF750FA002835D10123039A606065
:1029E80013806B6023786168C3F3000200290CBF71
:1029F800002202F0010262F30003029A237098F8A1
:102A0800003012785340DB0740F100816B682A7868
:102A1800003B18BF012363F300022A70002900F06D
:102A2800F5800BA84FF0FF31FFF795FA0BAA29465E
:102A38002846FFF7EAFC029A214620460FB0BDE877
:102A4800F04FFFF7E2BC01DA6E60CBE7009B03F1C1
:102A58000042013A4FEA420E3AF81230180406F1E1
:102A6800010150D507EB490B002109F10100BC46D3
:102A78000BF1020327F8191060600193B3B2C3F198
:102A880010060496019EB44541D33AF812209A40A4
:102A98000492009A012A09D90AEB0E02C3F1100127
:102AA80032F8022CCA40049911430491009AAAF101
:102AB800020A801A039A686000F10040013802EBAC
:102AC800400206920EF10202099262680592059987
:102AD800009A8A4227D301F1004B0022C3F110006B
:102AE8000BF1FF3B07EB4B0B5F4576D96FF00041CD
:102AF8006B682BB15A18039830F81220002A76D048
:102B08006FF0004178E05B000E469BB2A6E7BCF888
:102B1800006006FA03F941EA09090499CE402CF845
:102B2800029BB1B2AEE7BBF8001000203BF8022CC4
:102B3800864642EA01420499B2FBF1F20192099AEF
:102B4800ABEB02021646CDE9072AB3450FD8BBF80E
:102B58000010084400283BD1069AABF1020B0199FA
:102B680022F802190692059A013A6260ADE7089ABE
:102B7800B6F8009032F8021F19FA80F999400892C5
:102B8800019A41EA1E4E1FFA8EF151431FFA81FC49
:102B9800090CA9EB0C0CC1EB204126F802CB01EB88
:102BA8002C40D2E739F802CF0CFA03FC4CEA1E4E4F
:102BB800B6F800C011FA8EF18C444FEA1C4126F891
:102BC80002CBB345EED8019A0844013A0192C1E715
:102BD8000021D146079E8E46F3E7BBF8001041FA64
:102BE80003F6814032432BF802298AB27CE7013B85
:102BF8006B607DE7013B63606368002B3FF4F2AED6
:102C08005A1837F81220002AF4D0EBE60FB0BDE8C6
:102C1800F08FF0B51F464B6885B004460D46164642
:102C28004BB11378DA0706D47B68012B0BD1BB684C
:102C38001B88012B07D123786FF30003237000232F
:102C4800636005B0F0BD01212046FFF73AF97368CB
:102C5800002BF6D02846FFF7EFF805463046FFF779
:102C6800EBF8064601A8FFF74AF97368B3B1B368F1
:102C78001B88DB070AD52A4621462046FFF7BAFDFE
:102C88003B462246214601A8FFF773FEB16801239F
:102C980072680846FFF717F8706058B901A8FFF77F
:102CA80033F92846FFF701F9304605B0BDE8F04092
:102CB800FFF7FBB82A4629462846FFF79BFD3B4607
:102CC8002A46294601A8FFF754FECEE7D0E901219C
:102CD800002301EB420210B5914205D30278D207D6
:102CE80048BF5B42184610BD32F8024D44EA034320
:102CF800F2E730B5D0E90124002304EB4202944204
:102D080006D302780120D20748BF5B420B6030BD72
:102D1800B3F5004F04D232F8025D45EA0343EEE70B
:102D28000020F4E72DE9F0470546D1B198180026B0
:102D38004FF0010C03EB02093746D5E90184A4F1F1
:102D4800020EB8F1000F0ED1B9B3C21A18462B788B
:102D580013F0010FBDE8F04714BFFF21002122F056
:102D680063BC1846E3E73EF8024F103744EA0646CC
:102D780095F800A0072F0AF0010A02DC08F1FF38D5
:102D8800DFE7B4B2BAF1000F06D0E4435CFA84FC82
:102D98001FFA8CF4CCF3072CE4B249B100F1FF3AE6
:102DA80000F8014C53450BD0083F360A5046DFE780
:102DB80082460AF8014BCA45F5E71A44121AC6E7D3
:102DC800BDE8F08700000000D0E901329FED0C0B50
:102DD8009FED0D6B02EB43039A4205D30378DB07A3
:102DE80048BFB1EE400B704733F8021D07EE101ACA
:102DF800B8EEC77BA0EE067BB0EE470BECE700BF52
:102E08000000000000000000000000000000F0408A
:102E18002DE9F84F446881468A4615461E469DF8B6
:102E280028B00B9F9CB982B1551E3A4615F8011F70
:102E3800134639B930221A70002203F8012FD81B23
:102E4800BDE8F88F02F8011BF0E73B46F2E76400A3
:102E58002046FDF769FA80462246D9F8081022F084
:102E68009FFB3A463B4608EB0401A6F13A00A1F164
:102E7800020C0026E045644639D930361C46392E06
:102E880088BF361804F8016B4646B142B44638D8B4
:102E9800BBF1000F0AD00126A4EB020CBCF1030F12
:102EA80002BF9C1C83F801B02246F6B14046FDF7EC
:102EB80063FA5DB1284622F0F1FB2A18611E134619
:102EC800AB4229D8954288BF0020044499F80030C5
:102ED800DB0744BF2D2304F8013B3B46621E9A42A0
:102EE8001FD80023E01B2370AAE72346BFE72488E6
:102EF80044EA0646B6FBFAF40AFB14662CF80249C3
:102F0800B8E7BCF800C00236BCF1000FBDD0BBF179
:102F1800000FEAD00026BFE713F8016D01F8016F32
:102F2800CEE71978107803F8010B02F80119D6E7F3
:102F3800D0E9023293423DBF5A1C826018784FF0A4
:102F4800FF307047036810B5044613B14068FDF7B9
:102F580013FA2046BDE81040FDF70EBAF8B50C4646
:102F68001F46164605461020FDF7DEF9054B84601E
:102F7800C0E900743444C4606B60034B2860AB60E4
:102F8800F8BD00BF392F00084D2F000802690A2A32
:102F980010B5044635D1836A013383620123A269DF
:102FA800E36263696261226F2361002A31D0616E36
:102FB8008A423BBF501CA16E0022206738BF8A5C42
:102FC800A2613BB9E26963662261226A2367626192
:102FD800626AA261D4E905230D2A07D10A22934225
:102FE800626103D1D4E901039847A061A369013361
:102FF80006D163695A1C03D00A2B1CBF0A23A3619C
:1030080010BDC36A092A04BF073323F0070301333D
:10301800C5E7D4E901039847A061DBE70369272BDB
:103028002BD0222B29D0A3F1620113291ED8174ACD
:103038000A41D2071AD44269272A1ED0222A1CD054
:10304800722B1CD1662A06D18269272A15D0222A1A
:1030580013D0722B15D14369622B0CD180692728B4
:103068000BD0A0F12203584258417047662BF0D18B
:103078004269722AE8D00020704701207047662B09
:10308800F6D0622BF7D14369722BE6E7EEFFF6FF25
:1030980070B504460D4600262069431C01D1304610
:1030A80070BD0A2808D115B1636B002BF7D02046F4
:1030B8000126FFF76BFFEFE7FEF76EFD18B120461C
:1030C800FFF764FFE8E72369232B08D12046FFF7C1
:1030D8005DFF23695A1CDFD00A2BF7D1DCE75C2B94
:1030E800DDD163690A2BDAD12046FFF74FFFE6E707
:1030F800436E2DE9F04F04462DED028B85B0A3B148
:10310800036F93B929216030FEF7F0F82369E36172
:1031180063692362A3696362A36E1A7822615A788D
:1031280062619B78A36103232367002120466165C0
:10313800FFF7AEFFA36AE56A6364236BA564002BFF
:1031480001930ADA019F0823013784F84C3027637A
:1031580005B0BDEC028BBDE8F08F05D0072384F8DD
:103168004C30019B5F1EF2E7002834D0636B93BBA1
:1031780006236FF00042013D84F84C30D4E90F304B
:10318800991830F811108D42E2D019D9A16B8B42F1
:1031980007D308314900FDF7E2F8A36B2064083330
:1031A800A363D4E90F32591CE16322F81350236B4F
:1031B80001332363CCE7013BE363236B013B2363C8
:1031C800E36B991830F811108D42F4D3C0D0022364
:1031D80084F84C30BCE725696A1C01D10023F7E765
:1031E8002046FFF71BFF8146002800F0B581002329
:1031F80084F84C302369752B51D0622B07D1636951
:10320800722B51D1C84602260D23002512E0722BDD
:1032180006D16369622BF5D0662B49D10523D7E720
:10322800662B49D16369722BF8D04D4601260C23D1
:103238004FF0000894F84C20002A3FD184F84C3015
:103248003EB12046FFF7A2FE022E02D12046FFF72C
:103258009DFE23692046222B14BF4FF0270B4FF009
:10326800220BFFF793FE23695B452AD163699B45CF
:1032780027D120464FF0030AFFF788FE2046FFF7C4
:1032880085FE25B1B24904F16000FEF772F804F139
:103298006003002704F1500608EE103A1EE00126EC
:1032A80000250C23A846C5E701260D230025BFE706
:1032B800C84601260C23A8E7019EF1E79A42BFD031
:1032C80046E74FF0010ADCE7934533D159463046CB
:1032D8000137FEF712F82046FFF758FE2269511C05
:1032E80000F02F81BAF1010F02D10A2A00F02981DA
:1032F8005745E9D3394604F15000FEF754F8012147
:103308002046FFF7C5FE2046FFF788FE00287FF419
:1033180071AF1DE72046FFF739FE21697B291ED1D1
:103328003046FDF7E3FF2046FFF730FE7B213046AD
:10333800FDF7DCFF21690DB17B29EBD05C2940F05A
:10334800FB8020460291FFF721FE27690299B8F118
:10335800000F38D03046FDF7D0FF3946CBE0676E16
:10336800002221694B1C04D0C2B93A2901D07D2919
:1033780014D1D4E91921881810F8010C3D2807D177
:10338800D21B39443046FDF701FF636E013B63668B
:103398002C2118EE100AFDF7A9FFC7E721F020003D
:1033A8005B280BD10132C9B218EE100A0292FDF760
:1033B8009DFF2046FFF7EAFD029AD2E75D2808BF85
:1033C80002F1FF32EFE7782F06D85B2F0BD8222FB8
:1033D80072D053D80A2F4FD0A7F13001072900F235
:1033E800A58003279BE0A7F15C021C2AF4D801A161
:1033F80051F822F0C1340008E1330008E133000835
:10340800E1330008E1330008713400089D340008F6
:10341800E1330008E1330008E1330008AD34000867
:10342800E1330008E1330008E1330008E133000824
:10343800E1330008E1330008E1330008A53400084F
:10344800E1330008E1330008E1330008993400084B
:10345800E1330008A1340008B1340008A934000899
:10346800E133000811350008072194F84C300C2B83
:103478005ED13046FDF741FF00272CE7552F13D0CA
:10348800AAD8272F18D04E2FA6D132480AF088FB89
:103498000D21EAE70821E8E70921E6E70A21E4E740
:1034A8000B21E2E70C21E0E794F84C200D2A05D126
:1034B8005C213046FDF721FF3946D6E7752F0CBF52
:1034C80004270827002114E020460291FFF75EFD3B
:1034D800226910460392FEF77DFB002800F04F8119
:1034E8000299039A090110460291FEF7B3FB02996B
:1034F8000144013FE8D2481CBED0B1F5881FB4D3BF
:10350800012384F84C30B7E70227DBE72046029115
:10351800FFF73CFD22690299303A02EBC10162696A
:10352800303A072AE7D8013FF0D1E4E75C2111E7F8
:10353800FF29E5D80D2BE3D1C9B23046FDF7D6FEF9
:103548009AE757453CBF032284F84C20D2E600BFD7
:10355800231706082C1706082846FEF727FB0546FA
:1035680020B920695F2801D07F283ED9092304F1BA
:10357800500584F84C30217C2846FDF7B7FE2046DC
:10358800FFF704FD2069421C1BD128467E4FFDF73A
:103598009EFE0025064657F8041B304622F08CF89C
:1035A80000281CD10F35EDB2122D84F84C507FF451
:1035B800CFAD764BD3F80C32002B0CBF11230F2361
:1035C80006E6FEF7F3FA0028D5D120695F28D2D0A5
:1035D8007F28D0D8FEF7F4FA0028CCD1D5E7FFF63B
:1035E800B7AD0135242DD6D1B2E5FEF7E9FA68B3B7
:1035F80021692E2935D10B2384F84C3004F150066B
:103608000B273046FDF779FE2046FFF7BFFC2069FF
:10361800431C3FF49DAD002D36D120F02003452BEF
:1036280032D16521304684F84C70FDF766FE20469D
:10363800FFF7ACFC21692B2901D02D29E7D13046B1
:10364800FDF75BFE2046FFF7A1FCE0E723692E2B80
:1036580004D16069FEF7B4FA0028C9D100264C4DA0
:1036680032E00A23302984F84C30C7D1636943F02B
:103678002003623B162B97BF464D01251D4105F0DF
:10368800010585F00105B9E7FEF790FA28B121692F
:103698002E290DD184F84C70D1E72069FEF790FAF5
:1036A8000028F4D123692E2BF1D05F2BCAD04FE527
:1036B80021F020034A2BC2D1ECE7652F01D0632FFC
:1036C80000D10135013601352F7817B12369BB4286
:1036D800F3D12046FFF75AFC0FB9012378E5212FD3
:1036E80007D123693D2BF8D12046FFF74FFC3A2339
:1036F8006EE52E2F0FD123692E2B02D163692E2B55
:1037080001D05D2364E52046FFF740FC2046FFF723
:103718003DFC0E235CE50335334615F8027C632F28
:103728001AD0652F18D01C4AD35C552B84F84C301E
:103738000ED0563BDBB2042B3FF60AAD012202FA4B
:1037480003F313F0150F17D113F00A0F3FF400AD70
:10375800636B01336363FBE415F8012C01362169BF
:10376800914207D12046FFF711FC3346652FDAD086
:103778000235D2E7632FFAE7636B013BEAE70123DF
:10378800014684F84C3070E6E41706085C00002413
:10379800DE160608FEDFBFFFB61706087FB501ADC7
:1037A8000646742085E80E00FCF7BEFD0446034675
:1037B80095E8070043F8046B002583E80700012318
:1037C8006FF001021420C4E90A320A22C4E90C5538
:1037D800C4E90E23FCF7A8FD2021206404F1500061
:1037E800FDF7FDFC294604F16000FDF7F8FC236CA9
:1037F80020461D802561C4E90555FFF7C7FB204613
:10380800FFF7C4FB2046FFF7C1FB2046FFF770FC1B
:10381800A36C2046012B1CBF072384F84C3004B04E
:1038280070BD30B585B0054601AC2046FFF796FB64
:10383800284694E80E00FFF7B1FF05B030BD30B55B
:1038480085B00546014601AC20461DF045FA2846DC
:10385800FDF7C6FB94E80E00FFF7A0FF05B030BDEA
:1038680010B5044690B1C3684068984704F1500009
:10387800FDF7E4FC04F16000FDF7E0FC206CFCF7C8
:103888007BFD2046BDE81040FCF776BD10BDD0E9B1
:103898000432013B036152F8230070470369591A47
:1038A8004369013953F821007047F8B5446A064660
:1038B8000D46B4B1D4E900030B44834222D9083140
:1038C800002201442046FCF755FD0246B8B961685C
:1038D80020460831FCF74EFD63682360336A636055
:1038E8003462802D2F4638BF802707F10800FCF787
:1038F8001BFD0023076004464360706202E02368F2
:103908002B44236060680834054444F8045C204470
:10391800F8BD38B5D0E9033204460D469A4208D3BB
:10392800103340699900FCF71AFDE36860611033B1
:10393800E360D4E90432591C216142F8235038BDB0
:10394800F8B504461D460F461646D0E900038342E3
:1039580008D31030C100A068FCF701FD2368A060FF
:1039680010332360D4E90103421C626003EBC002F8
:1039780053F8301067F3170143F83010D6705560CC
:10398800F8BD10B48469CAB20023616C5DF8044BB9
:10399800FFF7D6BFF7B5866905460F4696F84C304F
:1039A800092B1ED1D6E91510FDF788FA902F044689
:1039B8000ED1C100002205F1280041F002010AF0F1
:1039C8006FFC28B14468E3071FD544F0010102E009
:1039D800210141F00201284603B0BDE8F040FFF79D
:1039E80098BF0A2B07D133460022D6E9151008F0F4
:1039F80003FA0446E7E70B2B13D1009600230122B4
:103A0800D6E9151008F078FA04460C212846766C99
:103A1800FFF74BFF4FF49D7301460660C0E9013480
:103A2800D9E7A3F10C02012A1CD8D6E915100A29F6
:103A38000BD8FDF743FA96F84C3048B10C2B0CBF65
:103A480006210A2141EA0011C5E7FDF707FAF2E766
:103A5800064C0748D6E915210C2B08BF204610F064
:103A6800F3F8D1E7190141F00E01B4E7C84A060896
:103A780064480608FE2807D010F0010306D0400865
:103A88000CBF01200020704701207047184670477E
:103A9800B0F58F7F07D010F0010306D0400814BF9F
:103AA8000120002070470120704718467047000029
:103AB80010F0010204D040F00100086001207047B6
:103AC800A8B110F003030FD102793A2A0ED1836806
:103AD80013F001000B60F1D19A0708D11868044B64
:103AE800C31A5842584170471046704718467047E5
:103AF800203D06082D2A2DE9F04F044687B0894657
:103B080016461D460BD10021FFF7C8FEC0B1870736
:103B180002D10379922B13D007B0BDE8F08F922A17
:103B280020D10021FFF7BAFE014648B1880707D126
:103B38004F68FBB2952B0AD1013D2046FFF7A7FE3F
:103B4800A6F11E03012B58D8A8462F4619E0962B3C
:103B5800F6D127F0FF072046FFF799FE47F09207B6
:103B68004F60D9E7962A08BF0135E9E71E2E37D1FD
:103B7800FFF78EFFC8B91046FFF77CFF002808BF83
:103B8800574607F1FF3AB8F1000F0ED008F1FF3899
:103B980020464146FFF782FE236961690246DB1B26
:103BA80041F82300B8F1000FE0D1002151451FD1A1
:103BB8006D1A012DB0D0A6F12303DFB2092F00F250
:103BC800B780092B00F29181DFE813F07B007B00BE
:103BD8007B00CA00CA00CA0005017B008F014001B2
:103BE800FFF748FF0028E0D11046FFF751FFC5E76F
:103BF80020460131FFF74BFED8E7202E19D10021CE
:103C08002046FFF74BFE0246FFF734FF70B9104617
:103C1800FFF73EFF0028CED0FE212046FFF737FEF3
:103C2800204607B0BDE8F04FFFF773BE4FF48F7121
:103C3800F3E7052EBFD100212046FFF72FFE0746E8
:103C4800002875D010F0030A04D1436803F0FE037E
:103C5800562B6DD001212046FFF720FE00F00F0300
:103C6800022B65D1BAF1000F62D13B792C2B5FD1C1
:103C7800BB6803F00F02022A5AD11B09482B57D1FF
:103C8800FB68002B54D09A0752D11A79302A4FD1A9
:103C9800D3F808B04FEA101803A95846FFF708FFF1
:103CA800002840F0B180954995480CF067FDA1695E
:103CB800054653463A6809680CF032FE2846FCF778
:103CC8000FFB691E2046FFF7E9FD02A9FFF7F0FE8A
:103CD80070B3022FA5F1020896BFA6F10D0722279F
:103CE800FFB2B8F1000F09DA002D40F0EE80029E15
:103CF800F30740F1EF8046F0010191E74146204685
:103D0800FFF7CCFD04A9FFF7D3FE88B1222F049A50
:103D180007D00299384609F04FFD08F1FF380290A4
:103D2800DFE7104601920DF0D3FE0028019AF0DA81
:103D3800A91C20468900FFF7B8FD074646EA052377
:103D480000F10801C0F800904360002D40F0CF80DA
:103D5800962E03D139462046FFF7DBFD39465FE74B
:103D6800691E2046FFF79AFD02A9FFF7A1FE002869
:103D7800DED0A5F10208B8F1000FB5DD08F1FF317A
:103D88002046FFF78BFD04A9FFF792FE0028CFD04D
:103D980041462046FFF782FDC0F307104328C7D0ED
:103DA8004528C5D02538049AC7B2104601920DF0AF
:103DB8008FFE1A2F019A09D80028B9DB02993846D4
:103DC80009F0FAFCA8F102080290D4E71E2FF5D9F1
:103DD8000028F3D1ACE700212046FFF75FFD02A9D8
:103DE800FFF766FE0028A3D001212046FFF756FD05
:103DF800C0F307100299342816BF40380220C0B219
:103E080008F086FF02906FE74FEAC801012204F12B
:103E1800280041F002010AF043FA039B4360404640
:103E2800FDF7F2F8037820465F2B08D10025FFF74D
:103E38002EFD20460826A946FFF729FD80E6FFF754
:103E480026FD59462046FFF764FD71E7012120460B
:103E5800FFF724FD074600212046FFF71FFD07F066
:103E68000F03022B7FF464AF00283FF461AF10F01A
:103E780003027FF45DAF0379322B7FF459AF390920
:103E8800D0F808801F48C90041F002010AF008FA7A
:103E980000283FF44DAF04AA4FEA1811406808F013
:103EA80061FE049B002B3FF443AFD90707D49A0760
:103EB8007FF43EAF1968144A91427FF439AF059AEE
:103EC800002A7FF435AF02930EE72046013DFFF745
:103ED800DEFC09E70C212046FFF7E7FC4FF49D7351
:103EE80001460560C0E901369AE62B2620E7013D28
:103EF8002046FFF7CCFC41F8250026E77418060891
:103F0800D0360608E4180608203D0608036830B5D0
:103F18005BB19C070BD15C68E5B28D4207D103F118
:103F28000800230A1060184630BD1846FAE7012336
:103F3800F8E700002DE9F04F93B0002440230D4628
:103F480001904FF400700092CDE90534FCF7ECF9CC
:103F5800202307908020CDE90834FCF7E5F92146B5
:103F6800CDE90A050FA8CDE90D440AF063F9009BD5
:103F7800002B49D0022B0CBF3F2222460027DFF836
:103F8800CCA20023696C05A8FFF7DAFC069C002C7C
:103F980000F05E81013C0799A74E01EBC40351F87C
:103FA80034100694DA78C1F31709A449632A5B68C8
:103FB80011F802B0A2490BF00F08895C88BF41F4E0
:103FC800807106EB41060BF0300110291ED0202924
:103FD80049D0002F00F00281B8F1020F40F0F180C3
:103FE800012B19D000211BF0010F03F1FF3006D07F
:103FF80074880AEA0404B4F5805F08BF58080128E9
:1040080000D101B30346AAE03D22B7E703B1D7B117
:1040180006EB4306984501D80127B7E7374636F837
:10402800021B01EA0A00B0F5805F0ED195F84C003A
:10403800C1F30B01884214D105A81146FFF7AAFC69
:104048002846FFF755F80027A0E70133434503D278
:10405800494605A8FFF774FC398805A8FFF791FCC5
:10406800F1E70133D6E78FB103F10041013936F8A2
:1040780011100AEA0101B1F5405F1DD1002105A820
:10408800CDE90232FFF745FCDDE9023206EB4304D5
:10409800984525D8009B0BB1052A47D0002406EB8C
:1040A80048082746B0455FD1012F7ED11BF0400F4D
:1040B8007BD00026314672E0012BADD995F84C3003
:1040C800072B40F0F3805F495F480CF057FB04462C
:1040D80000236A6C29680CF023FC2046FCF700F9E1
:1040E800274634F8021B01EA0A00B0F5805F1BD1AD
:1040F800C9B295F84C00884212D1092807D1114657
:1041080005A803930292FFF745FCDDE90223284640
:10411800CDE90232FEF7ECFF029B039A0133B7E7C1
:10412800002B3FF479AFC9E7013391E7002105A8D7
:10413800FFF7B4FB0028B1D1012105A8FFF7AEFBBA
:10414800830700F0C18000F00F000228A6D005A860
:10415800FFF79DFB05A8FFF79AFB002308224946B5
:1041680005A8FFF7C7FC6EE738F8023D03EA0A0125
:10417800B1F5805F05D1DBB2092B93D1013401374A
:1041880090E7214605A8FFF789FB00B10137013404
:1041980088E7FFF77CFB0136002818BF0146A642D6
:1041A80005A8F6D1FFF7B5FB4DE71BF0800F06D049
:1041B800002105A802920134FFF7ABFB029A2346BF
:1041C800CDE7012B3FF428AF13F001013FF40BAF0B
:1041D800B8F1030F7FF472AF012104E708EA030185
:1041E80001F0010136F8114004EA0A00B0F5805FD9
:1041F80017D1C4F30B0495F84C00A04203F1010455
:104208000DD129B9114605A80292FFF7C3FB029AFE
:1042180028460292FEF76CFF2346029ADEE7234601
:10422800DAE6494605A80133FFF78AFB214605A8C7
:10423800FFF7A7FBAAE600BFD01906082019060851
:10424800581D060882180608C433060800F0FFFF48
:104258000FA80AF003F80E9850B1416822460831B9
:10426800FCF788F80E9B5A681A600D9A5A600D93ED
:1042780095F84C30002B7FF421AF099B002B3FF4BD
:104288001DAF0A9B07981B680C93FCF775F80A98F2
:10429800FCF772F82846FFF7E3FA019BDDE90C0109
:1042A80083E80300184613B0BDE8F08F022B01D154
:1042B800094909E7042B02D10849094805E7052BF4
:1042C8000CBF08490849F8E700283FF4E7AE03792E
:1042D8003A2B3FF43CAFE1E694180608B6180608F6
:1042E800D0360608C9180608DE180608406810B552
:1042F80000B910BD4468FCF73FF82046F8E7000015
:104308002DE9F041054630200E4690461F46FCF741
:1043180024F8072D04460570C660A0F8148001D063
:10432800012D10D1B268C2F30F12E28207F046FFE6
:1043380004232061202067832385FBF7F5FFE062D3
:104348002046BDE8F081014B5A5DEEE7081E0608DD
:1043580010B50446C06AFCF70FF82046BDE81040C7
:10436800FCF70AB830B50022448D944202D80023E5
:10437800184630BDC36A03EBC2035D688D42F7D0AF
:104388000132F2E770B504460D461646FFF7EAFF1C
:10439800C0B9238D628D9A4208D30633E06AD900EA
:1043A800FBF7DDFF238DE06206332385638DE26A28
:1043B800591C02EBC300618502F833600023456095
:1043C8004370438070BD034618465B68002BFBD1E1
:1043D800FFF7C8BFF8B544680E462CB9F8BD032BE3
:1043E800FCD104230370F9E7254628466D68002DA3
:1043F800F4D077683946FFF7B5FF0028F5D0037881
:10440800033B022BEAD805253570002239462046A1
:10441800FFF7B8FF0378002BE1D105706468F4E773
:10442800436A5B8B012B1EBF0369C9180161704782
:10443800C36A10B50446DB6F806A9847A38B626A2B
:104448000133D18C9BB29942A38338BFD38410BD6A
:10445800838B013B10B583830446C36A806AD3F813
:104468008430984720460121BDE81040FFF7D8BFA7
:10447800F7B51E4659B111F0030511D14F68FCB2CA
:1044880094420DD13F0A01F10804BD4201DB03B09B
:10449800F0BD54F8041B01350190B0470198F4E7CA
:1044A800334603B0BDE8F04018472DE9F04F044605
:1044B8000D4698462DED028B08EE102A83B01BB1ED
:1044C8000B8B43F008030B8318EE103A2B84636AB6
:1044D8001A8B42F030021A831B78002B4CD1E36A06
:1044E80018EE102A2946A06AD3F8B4604346B446A9
:1044F80003B0BDEC028BBDE8F04F6047DB6A03EB0D
:10450800C60B13F83630043B012B1DD84FF00009B9
:1045180017E0EB6A03EBC90213F83930052B0ED10B
:10452800DBF804105368994209D1E36A0AF1010AD9
:10453800BBF802205B69A06A1F460023B84709F14F
:1045480001096B8D4B45E4DC0136636A5A8DB24232
:10455800D4DCD4E90A03BAF1000FC0D0CDF800804A
:104568005246D3F8B840294618EE103AA04703B08F
:10457800BDEC028BBDE8F08F0026B246E5E70000EF
:10458800F8B50E4611461A46002304468579476950
:10459800837143610E4BFFF76BFFA368BBB9E18AD8
:1045A80051B1A28A42B9E36AA06AD3F8A030984709
:1045B800E36AA06A5B6C9847A38A3146E28A204680
:1045C800FFF773FF003D676118BF0125A571F8BDAE
:1045D800B9590008024B9D228968FFF749BF00BFFF
:1045E800C9660008024B6B228968FFF741BF00BF0C
:1045F800694A0008C36A002110B50446D3F8883018
:10460800806A9847E36AA06A10215B6B9847E36A5F
:10461800A06A0121D3F8CC30984720460321BDE891
:104628001040FFF7FDBE38B5C36A04460022806A11
:104638009B6C9847E36AA06AD3F8C05000231A46D7
:104648001946A8472046BDE83840FFF7D3BFC36ADC
:10465800002289685B6D0909806A1847C36A8968FE
:104668001B6C806A184710B5044608461146226834
:10467800FFF746FE636A436000238360236A0BB931
:10468800206210BD1A469B68002BFBD19060F8E7AA
:1046980070B5437905460C46012B06D1436A0A4694
:1046A80002215B8BFFF7DFFF2061A26828462169A2
:1046B8004C23BDE87040FFF763BF70B513464279DD
:1046C80005460C46012A04D10A460721FFF7CBFF0D
:1046D800A061A66928464623E2683146FFF750FFE5
:1046E800F08A70BD2DE9F04F87B005460C4600AF43
:1046F80011B90121116015E011F003081BD10B79E4
:10470800682B07D1CB681B0913608C68002CF0D08C
:104718004FF0010804F00F03022B0FD12109B8F163
:10472800000FE7D0EB6A0022A86A1B6B98471C377A
:10473800BD46BDE8F08F4FF00008EBE7B8F1000F79
:1047480002D1A3681B091360636800264FEA132986
:1047580004F1080309F1FF3A9B46FB604E4526DB4E
:104768000AF107034FF0000B23F00703ADEB030D2D
:104778006B461E46CB4522DB51461846FCF79EFB8E
:10478800EB6A014600221B6BA86A9847B8F1000F34
:10479800CDD00C3401264E45C9DA54F8041B00224A
:1047A800EB6A01360909A86A5B6D9847F3E75BF87D
:1047B800040B01360009FCF722FC8244CEE7BBF16A
:1047C800000F03D04FF02E0206F8012B7B6007F193
:1047D8001401FB680BF1010B53F8040B0009FB6093
:1047E800FCF717FC7A6901463046BA6020F0D8FE1B
:1047F800BA687B681644BDE731B101F00303C268AB
:10480800134304BF0B68C3607047000038B5836862
:104818000D46044611464BB905480BF0AFFF294633
:10482800A0602046BDE83840FFF7E6BF38BD00BFAE
:10483800D0360608014AFFF7E9BF00BF0F1E060879
:104848000B79092B4FF6FF7370B508BF058B04462B
:1048580018BF458B9D4202D1064AFFF7D7FFA18BAF
:10486800E28BE36A8A1AA06A29469B6FBDE870400A
:10487800184700BF1C1E060813B50446B9B101F05D
:104888000F03022B0FD10A091046019209F040FBD1
:104898000028019A05DA074907480CF005F8A060D6
:1048A800002002B010BD054AFFF7B0FFF8E7084640
:1048B800F7E700BF351E0608FC3706083A1E06084B
:1048C80010B404460B46406A6279012A03D15DF8A8
:1048D800044BFFF757BDE16A0246A06A14315DF840
:1048E800044B02F0B5BD10B4426A044640790B4649
:1048F800012804D110465DF8044B02F09BBDE16A23
:10490800A06A1C315DF8044B02F0A2BD436A10B5E1
:1049180004465A8BFFF7D1FE01462046BDE81040F9
:10492800FFF7E1BFF0B58D6885B004460E4605F087
:104938000F030E2B07D0002D31D015F003012ED117
:104948002B79652B1ED10295002503AA652102A8A3
:10495800FFF7DCFA039B002140F2DE5203EB8000F4
:10496800834215D1F26840F22E439A4237D1636AE6
:104978001F78B7B1394A3146204605B0BDE8F04046
:10498800FFF744BF622BEDD1AB680293ED68DCE71B
:1049980053F8047B97420CBF01310331E0E7002153
:1049A800E0E7E36AA06A9B6B9847E36AA06A05217F
:1049B800DB6B9847E36A3A46A06AD3F8A030012136
:1049C800984703AA29462046FFF78CFEE36A02228D
:1049D80039461B6BA06A05B0BDE8F0401847E36A8A
:1049E8000027A06A9B6B984706F10C0002AA6A216F
:1049F800FFF78CFA0646B742D4E90A0312D1D3F876
:104A0800A0300022314698472946002503AA2046AF
:104A1800FFF768FEB542D4E90A030CD11B6E98472C
:104A280005B0F0BD029ADB6B52F827200137916878
:104A380009099847DFE7029A1B6B52F82570012293
:104A4800B968090901919847FB682BB90199204673
:104A58000135FFF748FFDDE71909F8E74A1E0608A0
:104A6800C36A37B504460D469B6B0021806A984798
:104A7800E36AA06A10215B6B98472946204601AA81
:104A8800FFF730FE0199204603B0BDE83040FFF73C
:104A98002ABF10B4426A044640790B46012804D163
:104AA80010465DF8044B02F0C5BCE16AA06A2431E7
:104AB8005DF8044B02F0CCBC37B504460D4600291E
:104AC80036D0CA0707D5C36A49109B6BA06A03B0E2
:104AD800BDE8304018478B0736D001F00F050B09A9
:104AE800062D09D00A2D0FD0022D23D1194603B067
:104AF800BDE83040FFF7E4BEC26A1946806AD26B4F
:104B080003B0BDE8304010474279042A03D0C36A95
:104B180006211B6CDAE701A91846FCF77AFAE36A62
:104B2800A46A01991D6C0FF02DFB01462046A84789
:104B380003B030BD062BFBD0C26AD9B2806A526B73
:104B480003B0BDE830401047C36A09681B69806A32
:104B580098472A79024B2946204653F82230B6E76F
:104B6800202006088B072DE9F14F04460D4616460E
:104B780011D001F00F03022B16D1D7074FEA1111FC
:104B880004D401B0BDE8F04FFFF7ADBE01B0BDE8F9
:104B9800F04FFFF795BE4968CBB22D2B7BD00BD8D1
:104BA800062B0DD02C2B12D04E4A2946204601B098
:104BB800BDE8F04FFFF72ABE2E2B7FD09D2BF3D1F7
:104BC800002EF1D105F10802090A20467BE0022AED
:104BD80002D0A968FFF770FFEF68002FE4D017F044
:104BE8000309E1D17B68B846DAB28E2A0DD1022ECC
:104BF8004FEA132805D007F1080A08F1FF3BD94509
:104C080011DB08F1010857F8288098F80430312B97
:104C180024D1022E0FD1E36AA06A9B6E9847E36AFB
:104C28001B6D012115E05AF8041B204609F1010902
:104C3800FFF742FFE3E7D8F808102046FFF73CFFEC
:104C4800012EE36AECD1DB6DA06A9847E36A002184
:104C58001B6DA06A01B0BDE8F04F1847322BA3D1F5
:104C6800012ED4E90A030CD19B6D9847E36AD8F862
:104C7800081000225B6D0909A06A01B0BDE8F04F79
:104C88001847022E01D15B6E9847E36A0122D8F8D3
:104C980008105B6DEFE7AA68002A85D0002E83D143
:104CA8005168090A022907D1D3682BB1980703D1A3
:104CB8001B79AC2B3FF478AF083286E7002A7FF4E3
:104CC80073AFA96821B901B0BDE8F04F00F00CB886
:104CD8008E0703D10B790A46922BE1D005F1080221
:104CE800012172E75C1E06082DE9F84304460D46CB
:104CF800904601F1FF3900264FF0FF37B9F1FF3F29
:104D08000CD17B1C05D1E36A2946A06AD3F8AC30E4
:104D180098470026AE421DD1BDE8F88358F8261002
:104D280071B18A070CD10B79222B09D101370BD12C
:104D3800E36A37464A463146D3F8B030A06A984706
:104D4800013609F1FF39D9E72046084ABDE8F8439A
:104D5800FFF75CBD58F82610B7424FF00002204616
:104D680008BF89680136FFF7FDFED3E7701E060805
:104D78002DE9F74F04460D4616461F462846FEF70E
:104D880079FE20B1CEB9E36A3946DB6E4CE028469D
:104D9800FEF77EFE08B186B1F5E7002D55D0AB07CA
:104DA80053D16B684FEA132BDBB21E2B1BD1F6B124
:104DB800083505EB8B0B5D450DD103B0BDE8F08FD1
:104DC80043465AF8041B2046019209F10109FFF7EE
:104DD800CFFF019A19E03B46324655F8041B20469E
:104DE800FFF7C6FFE7E71F2B23D1002EE0D0D4F84A
:104DF800108005F1080A4FF0000986F0010208F159
:104E0800010323610BF1FF330093009B4B45D7DC73
:104E18000BF101013B463246204655F82110FFF7B9
:104E2800A7FFE36A4146DB6AA06A03B0BDE8F04F1A
:104E38001847202B03D1AD6886F001069EE72D2B7D
:104E480003D1AB68002BA6D19CE729462046FFF783
:104E580033FEE36A3A4631461B6FA06A03B0BDE8E9
:104E6800F04F18472DE9F04707691E4604460D46DE
:104E7800BB1C3946904607F101090361C36A806A81
:104E8800DB6A9847E36A4946A06AD3F88C309847AA
:104E9800A96800222046FFF765FE2D69002D2DD157
:104EA80041462046FFF708FE636A1978E36A062937
:104EB8001DD1D3F8CC302946A06A98472046012155
:104EC800FFF7AEFAE36AA06A1B6E9847E36A3946B1
:104ED800A06ADB6E9847E36AA06A4946DB6A98478E
:104EE800E36AA06AD3F89030BDE8F0471847B200EB
:104EF800D3F8A830A06A05329847E7E72B79AD2B9D
:104F080007D1A9683B4600222046FFF731FFED682C
:104F1800C4E7E9682046FFF7CFFDE36AA06A0121EC
:104F2800D3F888309847731C424629462046FFF735
:104F380099FFCBE72DE9F041C36A0D4600260446E8
:104F48004271114606612A461B684562806A984785
:104F580006212046FFF764FA6779012F08BF6E62C1
:104F6800EE686EB1B2070BD133793F2B08D1B16827
:104F7800FFF7A2FDE36AA06AD3F8C43098472CE093
:104F88002B784BB931462046FFF796FDE36A5B6BF9
:104F98001021A06A9847EDE7072B24D1012F12D1E1
:104FA800002346222046A3715E4BF168FFF760FAA2
:104FB8006B8B032B07D131692046FFF75DFC2B8BE8
:104FC80043EA8010288320467169FFF775FDE36A7C
:104FD800A06A9B6898470028D8D0E36AA06A5B68F3
:104FE800BDE8F0411847022B1BD1E36A31681B6901
:104FF800A06A98476379012B07D100234C222046E9
:10500800A371494BB168FFF733FAF1682046FFF7FF
:1050180053FD2B8BDB07ADD5E36AA06A1B6E98475F
:10502800B4E7033B032B4FD8012FD6F80C8005D1EA
:1050380003223946606AFFF7A5F9AF83E36A31684E
:105048001B69A06A98472B78032B24D1E36A0122B5
:10505800D3F8A0300021A06A98472B78062B28D1D6
:10506800E36AA06A5B6C984701212046FFF728FC99
:10507800E36AA06A5B6C9847E36AA06A5B6C98472E
:105088000023B26841462046FFF7ECFE2B78062B3A
:105098007FF470AF7AE7042B04D1E36A0222D3F8D5
:1050A800A030D7E7052BD8D1E36A0322D3F8A03084
:1050B800D0E720460121FFF703FCE36A0121A06A3B
:1050C800D3F888309847DBE7012F04D103220A215F
:1050D8002846FFF757F917212046FFF7F1FB16215D
:1050E8002046FFF700FCB168E36A0909A06ADB6B98
:1050F80098471A212046FFF7F6FB31692046FFF74B
:10510800DBFC0A212846FFF72DF90378032BE36A15
:105118003FF43DAF5D690A2142880023A06AA84791
:1051280028E700BF956E00089D6E0008426A38B5F2
:10513800127804460B46072A06D0022A04D0154ADC
:10514800BDE83840FFF762BB9D6885B9E36A102166
:10515800A06A5B6B9847E36A0021A06AD3F8CC3059
:10516800984720460121BDE83840FFF759B9AB07F9
:105178000BD12B79AF2B08D12046A968FFF79CFCEF
:105188002046BDE83840FFF735BA29462046FFF7E4
:1051980093FCE0E7771E060801F00F03022B70B5B9
:1051A80004460D46164602D00B4AFFF72FFB314640
:1051B8002046FFF781FCE36AA06A9B6D9847666A00
:1051C800290920463378033B032B9CBF736863622D
:1051D800FFF789FB666270BD5C1E0608D1E9021202
:1051E800FFF7DABF70B5437904461546CE68012B40
:1051F80006D1436A0A4629465B8BFFF734FA706189
:105208000023716920461A46FFF74FF9F1682046D6
:10521800FFF752FC062D05D1E36A0021A06AD3F8F6
:1052280088309847E36A0121A06AD3F8BC5000236C
:10523800AC461A46BDE87040604700002DE9F04FC3
:105248004FF0000B87B004461E46D946DA465F4643
:10525800D84603A8CDE9022105AAA421FEF756FEE7
:105268000190019B9B451AD16FB1BAF1000F72D121
:10527800E36AA06A5B6C9847B9F1000F71D1E36AE1
:10528800A06A5B6C9847029AD4E90A03002A6ED098
:10529800D3F8C0403B4642463146A04710E0059A45
:1052A80052F82B50002D49D0A80747D12A79A62AB1
:1052B8000FD1F90707D52F4A29462046FFF7A6FA46
:1052C80007B0BDE8F08F47F00107AA460BF1010BC4
:1052D800C7E7A72A07D1BA0701D5274AECE747F05D
:1052E8000207A946F2E7A82A28D1EA686AB1930713
:1052F8000BD11179AA2906D192682046A968FFF72F
:105308004BFF0136E2E7AC2912D0A96801F00F0281
:10531800022A01D0194ACFE7E26A0909A06A08F10E
:105328000108D26B9047E9682046FFF7C5FBCDE737
:10533800062229462046FFF755FFE2E70FB1104A3B
:10534800BAE7B8F1000F01D00E4AB5E72946204662
:10535800FFF7B2FBD5E7DAF808102046FFF7ACFBF9
:105368008AE7D9F808102046FFF7A6FB8BE7D3F8A1
:10537800BC408FE7821E0608891E0608911E060893
:105388009E1E0608A71E060870B50D4641790446FC
:105398001346012903D12A46FFF765F96861E36AD4
:1053A800A06ADB6C98476E690023204631461A468E
:1053B800FFF77BF8E36AF18ADB6BA06A9847E96834
:1053C80029B18B0703D10B79A32B08BF00212046F5
:1053D80002230022FFF732FFF08A70BD436A10B53E
:1053E80004465A8BFFF7D0FF01462046BDE810401F
:1053F800FFF779BA002389681A46FFF71FBF38B547
:1054080005460C46C968FFF757FBA1682846BDE862
:105418003840FFF751BB0B79342B70B504460D4665
:1054280010D18968FFF748FBED68AD6885B9E36A74
:105438001021A06A5B6B9847E36A04220221D3F823
:10544800A0301AE0C36A1021806A5B6B9847ECE7CA
:10545800AB071FD12B799A2B13D1E36A1021A06ACD
:105468005B6B9847A9680029E6D02046FFF724FB24
:10547800E36A04220321D3F8A030A06ABDE8704093
:1054880018479B2B06D1A9682046FFF715FBEB6848
:105498009968E8E729462046FFF70EFBCCE710B5E8
:1054A80004468968FFF708FB0021E36AA06A1B6DC0
:1054B800BDE81040184700002DE9F7438D68044601
:1054C80016465DB9002A75D0C36A02222946D3F868
:1054D800A030A06A03B0BDE8F043184715F00307F1
:1054E80040F08A802B79372B13D132B1C36A02225C
:1054F8000121806AD3F8A030984720462946FFF753
:10550800DBFAE36AA06AD3F8A43003B0BDE8F0433D
:1055180018479F2B70D1EB681A79A12A5AD1A2217A
:1055280001AA03F10800FEF7F1FCA968804621B33F
:105538008B0722D10B79372B1FD136B1E36A411C77
:105548000222A06AD3F8A0309847A9682046FFF73E
:10555800B3FAE36A4FF00109A06AD3F8A430984778
:10556800474510D1B9F1000F24D1E36A0322791C11
:10557800A06AD3F8A03098471CE020464FF00009F5
:10558800FFF79AFAECE7019B53F82710A9B18E07A9
:1055980013D10E79A6F13700464246412046FFF75F
:1055A8008BFAB9F1000F11D04EB9184A2946204696
:1055B800FFF72CF903B0BDE8F0830026EEE7E36AB5
:1055C800A06AD3F8A43098470137C9E7002EFBD06A
:1055D8000F4AEBE7AB685BB19A0709D11B79372B08
:1055E80006D10422294603B0BDE8F043FFF7FABD0F
:1055F800052229462046F6E729462046FFF75CFAA9
:10560800E36A03220121D3F8A03062E7AE1E060840
:10561800BF1E06080122FFF74FBF00002DE9F8431F
:105628000C4689680546FFF747FAE668002E57D00A
:105638007768696AFBB209788E2BA36819BF04F1F1
:105648000C0601273F0A0836072903F00F024BD141
:10565800022A47D11A099A2A48D132681179302981
:1056680044D19268002A41D10A212846FFF728F937
:105678006A6AD36A528D32B9316828463F4ABDE812
:10568800F843FFF7C3B85978C9070FD559682846B2
:10569800FFF716F9022FEB6A0BD8D3F8BC400023AA
:1056A8000221A86A1A46A047012417E0013A0833E4
:1056B800E1E7726811793229EFD1B468217930298C
:1056C800EBD1916801229B6C0909A86A9847A168E7
:1056D8000324002301222846FFF7B0FDA74226D85D
:1056E800BDE8F8830024F9E7022AFBD140F21E4204
:1056F800B2EB131FF6D133681A79302AF2D19B68BE
:10570800002BEFD013F00304ECD11B792F2BE5D13C
:10571800EB6A22462146A86AD3F8BC802346C047D4
:105728003368224628469968FFF7C6FEBCE704F1AD
:105738000108A30056F82410B8451AD20A79322A6B
:1057480017D13344D3F8049099F80430302B10D192
:1057580089680022EB6A0909A86A9B6C98470023AC
:105768000122D9F808102846FFF768FD08F101045E
:10577800B4E72846A046FFF79FF9F7E7CA1E0608D0
:10578800426A0B4610B512780446072A06D0022A48
:1057980004D0074ABDE81040FFF738B8204619463C
:1057A800FFF73CFF2046BDE81040FEF723BF00BFCF
:1057B800DD1E060870B50D46C9680446FFF77CF97A
:1057C800A968E36AC1F30711A06AD3F898303429AD
:1057D80016BF40390221C9B2BDE870401847F8B574
:1057E8004F680C46002689683F0A0C340546FFF7C7
:1057F80063F902360834B74200DCF8BD54F8041CDB
:105808002846FFF759F954F8081CEB6A0909A86AF1
:10581800D3F89C302539C9B29847EAE72DE9F04119
:105828004E680C4601278968A6F10D080C34360A23
:1058380005465FFA88F8FFF73FF9B74201DBBDE894
:10584800F08154F8041B2846FFF736F9EB6A414605
:10585800A86AD3F89C3001379847EEE72DE9F04164
:105868004E680D4689680446360A0127FFF724F971
:10587800032E89BFD4F810804FF0000808F1010307
:1058880023617B1C9E4222DC032E55DD2569A06A1C
:105898006B1C29462361E36ADB6E9847E36A41463D
:1058A800A06ADB6A9847E36A0121A06ADB68984727
:1058B800E36AA06A5B6E9847E36AA06A1B6E984722
:1058C800E36A2946A06ADB6ABDE8F0411847023757
:1058D80029692046FFF7F0F8B74207DAE36AA06AB9
:1058E8009B6D9847E36AA06A9B6E9847EB68E26AEB
:1058F80003F00F01A06AD2F89C200E2911D1C3F33E
:105908000713262B16BF353B0621D9B29047B7425D
:1059180005DAE36A42460021A06A5B6F98470835BA
:10592800AFE71979852901D13221EFE79B680BB9D7
:105938000721EBE73321E9E7BDE8F08110B504461C
:105948008968FFF7B9F80321E36AA06AD3F89830A9
:10595800BDE8104018472DE9F0474E680446D0F8D6
:10596800108001F108055FFA86F90027360AA9F1C7
:105978001E03D3F1000949EB030908F10103036190
:10598800B74206DBE36A4146A06ADB6ABDE8F04736
:105998001847013755F8041B2046FFF78DF8B74222
:1059A800F0DAE36A42464946A06A5B6F9847E7E740
:1059B80001F00F03022B70B504460FD00B79492B69
:1059C80001D04F2B02D10123A37170BD4A2BFCD00B
:1059D800502BFAD0482B0DD10D696DB9A379002B46
:1059E800F3D1E38A002BF0D020461D4ABDE8704071
:1059F800FEF70CBFCD68F0E7A3798E683BB3A38AA6
:105A080001339BB2012BA3820ED1E18AD4E90A03A8
:105A1800D1B1D3F8A03000229847E36A02220021CE
:105A2800A06AD3F8A030984729462046FFF744F8E3
:105A3800E36AA06A3109DB6B9847E36AA06AD3F886
:105A4800A430BDE8704018475B6C9847E5E7E38AE7
:105A5800294620460133E382BDE87040FFF72CB8A1
:105A6800E81E06082DE9F04105690446D1F80C80C6
:105A78000E46AB1C0022D8F808106F1C03612B4699
:105A8800FFF776F9B1682046FFF716F8E36A39465A
:105A9800A06ADB6E9847E36A2946A06ADB6A9847E2
:105AA800E36AA06A4FF0FF31DB689847D8F80C101A
:105AB8002046FFF701F8E36A3946A06ADB6ABDE8C9
:105AC800F04118472DE9F7430446904699460F469A
