:020000040800F2
:10000000F8FF07246D020408834C0308714C0308B1
:10001000854C0308954C0308A54C0308000000001C
:10002000000000000000000000000000B54C0308C4
:10003000B74C030800000000E55C03081D5D0308E1
:100040003D0004089D4D0308AF4D0308B54D03085E
:100050000DE903083D000408314D0308374D03083E
:100060003D4D0308434D0308494D0308CD81030866
:10007000DD810308ED810308FD8103080D8203087B
:100080001D8203082D8203083D000408FDA6030815
:100090003D00040803A703083D0004084F4D030872
:1000A000C94D0308CF4D0308D54D0308DB4D0308A8
:1000B000DF4D0308E54D0308EB4D0308814E0308AF
:1000C000874E03088D4E0308934E03083D00040835
:1000D0003D0004084B4E0308514E0308574E0308D9
:1000E000734D0308A34D030800000000154E0308DC
:1000F0001B4E0308334E03082D4E03083D820308B0
:100100003D000408C9F20308F14D03083D920308BD
:100110005D4E0308634E0308094E03080F4E0308A3
:100120004D8203085D8203086D8203087D82030807
:100130008D820308A5BA0308A94D03083D000408F1
:1001400000000000000000000000000000000000AF
:100150009D820308AD820308BD820308694E03082F
:100160003D0004083D0004083D0004083D0004086B
:100170003D0004083D0004083D00040800000000A4
:100180003D0004083D0004086F4E0308754E030847
:100190003D0004083D0004083D0004083D0004083B
:1001A0003D0004083D0004083D0004083D0004082B
:1001B0003D0004083D0004083D000408994E030872
:1001C0009F4E03083D0004083D0004083D0004085C
:1001D000C54C0308B94C03083D0004083D00040861
:1001E0003D0004083D0004083D0004083D000408EB
:1001F0003D0004083D0004083D0004083D000408DB
:100200003D0004083D0004083D0004083D000408CA
:10021000394E03083F4E0308454E03083D000408CD
:100220003D0004083D0004083D00040800000000F3
:100230003D0004083D000408000000003D000408E3
:100240003D0004083D0004083D0004083D0004088A
:100250003D0004083D0004083D0004083D0004087A
:100260003D0004083D0004083D0004083D0004086A
:100270003D0004083D0004087B4E03080000000018
:100280003D0004083D0004083D0004080000000093
:08029000000000003D0004081D
:10029800024B5A69026058610020704760000024D0
:1002A800024B5A6912685A61704700BF6000002407
:1002B800C460056146618761C0F81C80C0F8209061
:1002C800C0F824A0C0F828B0C0F82CD080ED0C8B62
:1002D80080ED0E9B80ED10ABC0F808E0FFF7D8BFAB
:1002E800104908B54B690BB934F0AAF91A68586077
:1002F8004A611846C468056946698769D0F81C8050
:10030800D0F82090D0F824A0D0F828B0D0F82CD07D
:1003180090ED0C8B90ED0E9B90ED10ABD0F808E0B3
:10032800012070476000002410B50021044600F049
:10033800EFFA18B914B120460DF014FB10BD0021D6
:1003480000F0E6BA10B50121044600F0E1FA18B948
:1003580014B120460DF006FB10BDFFF7E5BF10B540
:1003680001220C4600F0E2FB18B914B120460DF04A
:10037800F9FA10BD00F0DABB00F09ABB484308B5A3
:100388000830FFF7DCFF40B1044A536A03B1186034
:100398000021C0E900135062083008BD6000002445
:1003A800034678B153F8042C083812B153F8081CE6
:1003B800116053F8083C13B15A6000F079BB024B46
:1003C8005A62FAE7704700BF600000242DE9F04345
:1003D8004FF0030C00252A4CD4F8B06200210131FB
:1003E80043189A0803F00303B25C5B0042FA03F374
:1003F80003F00303022BF2D0D4F8BC32090103EB5B
:1004080000108B0811B300EB830103681A071AD197
:10041800D4F8BC229A4216D89A1AD4F8C062C2F309
:10042800011E9E424FEA92174FEA4E0E4FEA1212F1
:1004380009D9D4F8B08218F8076046FA0EF303F029
:100448000303012B09D004308842DED1B5B1013D48
:1004580005F5B27334F81300BEE70CFA0EFE3F2D13
:1004680005F5B27946EA0E0608F8076003D80135A3
:1004780024F81920E7E7C4F8C432E4E7BDE8F083BC
:100488006000002430B51C4C0122D4E9AE53C01AD8
:10049800C109C0F302134FEA101C9A406B5C4FEA83
:1004A8009C0E23EA02036B548309D4F854230325D2
:1004B800B2EB901FD4F8B0020CF0030288BFC4F866
:1004C8005433C15C52000CF1010C05FA02F30CF034
:1004D800030221EA0301530000F80E104FEA9C0EB4
:1004E800D4F8B00210F80E1041FA03F303F0030336
:1004F800022BE7D030BD00BF6000002421F00F01BF
:10050800154A38B50C1A154D0346E400C5F8C01253
:10051800C5F8B002A2FB0424640AA1EB84112344A9
:100528002246C5F8BC120021C5E9AD4325F048FBB9
:100538000021A200D5F8B8020732D20825F040FB06
:10054800002301214FF0FF32C5F854332B81A5F861
:100558004813C5E9D33238BDF32C23FA60000024D0
:10056800024A138901331381704700BF60000024D9
:10057800024A1389013B1381704700BF60000024C1
:10058800024B1889003818BF01207047600000240A
:10059800F8B51C4D002203272B8905F1080405F541
:1005A8000176C5F84C230133C5F8C4222B8154F8D1
:1005B800043F1A071AD1D5F8BC02834216D3181A79
:1005C800D5F8C012C0F301128B424FEA901C4FEAD3
:1005D80042024FEA101009D2D5F8B0E21EF80C100A
:1005E80041FA02F303F00303012B02D0A642DED145
:1005F800F8BD07FA02F211430EF80C10FFF7E6FEF9
:10060800F4E700BF6000002491B32DE9F0410E46E5
:10061800051F0024174F4FF0030855F8043F013415
:100628001A0719D1D7F8BC229A4215D8D7F8C012A0
:100638009A1A99424FEA921C4FEA1210C2F3011219
:100648000AD9D7F8B0E252001EF80C1041FA02F3AA
:1006580003F00303012B03D0A642DED1BDE8F081ED
:1006680008FA02F211430EF80C10FFF7AFFEF3E799
:10067800704700BF600000242DE9F04F574E85B049
:10068800D6F8B432D6F8C4229800C2B10025C6F80C
:10069800C452002843D00024A30804F00302D6F86B
:1006A800B0125200CB5C134103F00303032B3FD07D
:1006B80001348442F0D3D6F8C432002BE7D170B3AA
:1006C8004FF0000C03274FF001094FF00208654670
:1006D80004E0012B4AD00135854220D2D6F8B0E299
:1006E8004FEA950A05F003041EF80A200EEB95015F
:1006F800640042FA04F303F00303022B28D0032B0F
:10070800E7D108FA04F401354FF0000C22EA04029C
:100718000EF80A20D6F8B43298008542DED3338921
:100728000022013BC6F85423338105B0BDE8F08FA1
:1007380020460134FFF74AFED6F8B432B4EB830FF3
:100748004FEA8300A8D3D6F8C432002B9FD1B6E76E
:10075800BCF1000FBFD007FA04F44FF0010C22EAF5
:1007680004040C70D6F8B4329800B4E7EB08D6F855
:10077800B80205F0070B10F803E000EBD50C019365
:100788004EFA0BF0C307E6D5D6F8BC02290141584A
:1007980000EB0510A9B102AAB1210CF0ADFADDE910
:1007A800013242B10DF04EFBDDE902010DF01AFBFA
:1007B8000DF05EFB019BD6F8B82202EB030C12F891
:1007C80003E009FA0BFB2EEA0B0E8CF800E0D6F8D2
:1007D800B03203EB0A0113F80A20BCE760000024DA
:1007E800044B00211A89C3F8C41201321A81FFF799
:1007F80043BF00BF60000024444A00232DE9F04FA6
:10080800D2E9AF41D2E9AC62091B83B04FEA820E4C
:1008180083619C4698461C461D461A469B46019392
:10082800C0E90013C0E90233C0E90433194696F859
:1008380000A04FEA4B034AFA03F303F00303012B2A
:100848003AD0022B51D0002B48D0013296450CBF2C
:100858004FF001094FF000090FD0930802F0030B85
:1008680016F803A04FEA4B034AFA03F39F0702D591
:10087800B9F1000FDDD003F00303012939D00229B3
:1008880004D1476907F1010AC0F814A0414501D90C
:1008980088468161012B13D0B9F1000F10D193085C
:1008A80002F0030B16F803A04FEA4B034AFA03F3CE
:1008B80003F00303012BC4D1013419464460C4E793
:1008C800654501D9AC46C560964518D1019B240100
:1008D8001F01C0E9014703B0BDE8F08F0199013558
:1008E8000131019181601946AFE70134013144605B
:1008F800ABE7076907F1010AC0F810A0C6E793083B
:10090800002502F0030B16F803A092E7600000240C
:100918000F302DE9F84306094FD0644C2389002B8A
:100928004BD1B4F848330D46002B0CBF4FF0010EE5
:100938004FF0000E45D1D4F85403D4F8B47287426E
:1009480038D9D4F8B0C2411E002261441AE00132FD
:10095800964250D913F00C0F1ED10132964240F244
:100968009C8013F0300F1CD10132964240F29880DF
:1009780013F0C00F1AD10132964240F29480013030
:10098800B84217D211F8013F13F0030FDFD013F06C
:100998000C0F4FF00002E0D013F0300F4FF00002C0
:1009A800E2D013F0C00F4FF00002E4D00130002273
:1009B800B842E7D3BEF1000F12D000231846BDE8B5
:1009C800F883D4E9D3239A42B5D33BF021FBD4F87A
:1009D8005403D4F8B472B842EFD24FF0010EB0E726
:1009E8003BF016FBD4F85403D4F8B4724FF0010E60
:1009F8008742A6D8E1E78000811A012A01F10107A0
:100A080003D1431C9B08C4F8543307F003084FEA8A
:100A1800970E012302314FEA4808884203FA08F387
:100A28001CF80E8043EA08030CF80E3013D34FF07D
:100A3800020801F003034FEA910CD4F8B0E2013147
:100A48005B001EF80C90884208FA03F343EA090396
:100A58000EF80C30EDD2D4F84C331201D4F8BC8225
:100A6800002133443E01C4F84C3308EB0713184601
:100A780025F0A6F8EA070346A0D50022D4F8B80264
:100A8800F90807F0070748F806200122445CBA4035
:100A9800224342541846BDE8F88380000130ABE792
:100AA80080000230A8E780000330A5E7600000243A
:100AB800034B1A8912B908B1FFF7E4BC704700BFAD
:100AC8006000002410F00F021BD11749D1F8BC3286
:100AD800834217D810B4D1F8C04284420DD9C31A42
:100AE800D1F8B042C3F3011099091B09615C4000B9
:100AF800014101F00301012906D010465DF8044BBD
:100B0800704700221046704701329918880801F092
:100B18000301205C490040FA01F101F003010229B8
:100B2800F2D01201E9E700BF600000242DE9F84F78
:100B380088460646002800F0A580574D2B890029D5
:100B480077D0002B4DD1D5F8BC1208F10F0C411A03
:100B5800D5F8B4024FEA1C1C4FEA111E4FEA800A6E
:100B68000EF10107B7EB800F80F09280D5F8B00244
:100B78004FF00109BC0807F0030B045D4FEA4B0B6B
:100B880044FA0BF404F00304022C2ED024B90133E8
:100B980003EB090464452AD3CC451ED02BD34B4420
:100BA80063454ED2C909D5F8B832595CCAB10EF0BE
:100BB800070E404641FA0EF101F00101FFF7A8FEC9
:100BC800044670B14FEA0912314624F0B5FF2B896B
:100BD80023B93046FFF756FC00E034462046BDE80E
:100BE800F88F00242046BDE8F88F09F10109013784
:100BF800BA45BFD1D0E7F4440327CE44624602F099
:100C080003039008D5F8B04201325B00215C7245BD
:100C180007FA03F321EA03032354F0D1D5F8543338
:100C28004FEA9C02B3EB9C0FD7D93446C5F854233E
:100C3800D4E7002BD5D11C46FFF724FC2046BDE89D
:100C4800F88F0EEB0902E64496450FD9022702F009
:100C580003039108D5F8B00201325B00445C964565
:100C680007FA03F343EA04034354F0D1ACEB090257
:100C78003446002106EB0910120124F0A1FF20469A
:100C8800BDE8F88F01464046BDE8F84FFFF740BE83
:100C98004FF0010980E700BF6000002410B58AB05A
:100CA8000B4C03A8FFF7A8FD039A0A49DDE90430B5
:100CB8000090204600F06CFF2046069C079ADDE96C
:100CC8000831CDE90014044900F062FF0AB010BDF4
:100CD8005421060840BC050864BC05082DE9F84302
:100CE800DFF86C914A494B48D9F8BC2200F050FF14
:100CF800D9F8B412890079D00024DFF85881464F1A
:100D0800444E0EE0012B4AD02E224449304600F0D2
:100D18003FFF0134D9F8B432B4EB830F4FEA8301B3
:100D280064D204F00305A206D9F8B0024FEA4505DB
:100D38000CD0A308D9F8B022D35C2B4103F00303ED
:100D4800022B2AD0032BDDD16D22DEE7A4464FEA21
:100D58009C020CF00303825C5B0042FA03F39B07DE
:100D680003D10CF1010C8C45F1D3ACEB04027F2AC2
:100D78000CD992092A4930462CF03F0400F008FFAC
:100D8800D9F8B432B4EB830F30D2002508EA041244
:100D98003946304600F0FCFECBE73D22B5E7D9F8EE
:100DA800BC2223011F49D2588A421DD01E4B9A42A9
:100DB80022D01E4B9A4223D01D4B9A421ED01D4B67
:100DC8009A421BD01C4B9A421CD01C4B9A4219D0F9
:100DD8001B4B9A421AD01B4B9A4215D01A4B9A4277
:100DE8000CBF4D22682290E754228EE71749094824
:100DF800BDE8F84300F042BB4C2286E7532284E763
:100E0800442282E7412280E742227EE746227CE7AD
:100E1800ACBC050854210608E8BC0508F0BC050868
:100E2800CCBC0508B0580608F4490608D83B0608A3
:100E380034560608D0530608DC3706086437060817
:100E480040440608D0440608D04B0608C8BC05082C
:100E580060000024F0FF0F00054B02681B6A596808
:100E68008A4203D3521A0260184670471B68F6E795
:100E780060000024014441F20553884204D398B22B
:100E8800012838BF0120704703EB431310F8012BEA
:100E98005340F2E7034B044A1A620022C3F80822BF
:100EA800704700BF6000002460D406082DE9F047B1
:100EB80080460E46FFF7DEFF124B07461C6A0CB948
:100EC80020461AE0D4F80C90002504F1180A4D4584
:100ED80001D12468F3E7236933F81530BB420ED1FA
:100EE80063695B5DB3420AD1324641465AF8250030
:100EF80024F08EFE18B960682844BDE8F0870135F3
:100F0800E5E700BF600000242DE9F84381460E465E
:100F1800FFF7CCFF0246002840F08B80FF2E03D954
:100F2800454946480BF062FF454C751CD4F8080249
:100F380090B1D4E983132B448B4229D92944FFF774
:100F480019FA0746D8B90246D4F81012D4F808029C
:100F5800FFF710FAC4F80872802D2F4638BF802793
:100F68003846FFF7ECF9C4F80802D0BB2846FFF76B
:100F7800E6F9C4F8080298BB28460CF0F3FCD4F84C
:100F88000C322B44C4F80C32D4F80832002BE3D0CE
:100F9800D4F810323146D4F8087248461F442B441E
:100FA800C4F81032FFF766FF49464FF00009804643
:100FB8003246384624F0C0FD07F80690236AD3E984
:100FC8000253AB4225D36D000A2D38BF0A25C5EB65
:100FD800C5001830FFF7B3F948B9C4F80802CBE7E1
:100FE8002F460023C4F80C72C4F81032D0E700F181
:100FF8001803226A03EB85030260036103EB4503D0
:1010080043615368D268C0F80C901344C0E90135B5
:101018002062236AD3E903215B6921F81280911DBC
:101028009E54236A43F82170D9680131D9605B68FE
:101038001A441046BDE8F883F3BC05085C4106086D
:101048006000002410B5044624F0F4FD0146204653
:10105800BDE81040FFF758BF07B5019001A8FFF79A
:10106800FBFE019A036933F8120003B05DF804FB34
:1010780007B5019001A8FFF7EFFE019B4269D05C1C
:1010880003B05DF804FB07B5019001A8FFF7E4FE83
:10109800019B063350F8230003B05DF804FB13B539
:1010A800019001A80C46FFF7D7FE019B4269D25C6C
:1010B800063350F82300226002B010BD2DE9F84332
:1010C8001D46002307468846036016460B601360DA
:1010D8002B60154BDFF854901C6A0CB14C4505D1B8
:1010E8002B68326813442B60BDE8F8833B680133F2
:1010F8003B60E268D8F8003013446269C8F80030F1
:10110800E368D1188A4207D32046FFF7DBFC2B6837
:10111800246818442860E0E7336812F8010B0133AB
:1011280003443360EEE700BF6000002460D4060883
:101138002DE9F8430D4B0E4F1C6ADFF83880DFF8B5
:1011480038900CB1BC4201D1BDE8F88304F1180510
:10115800E36805EB8306B54201D32468F1E755F847
:10116800042B4146484600F013FDF4E760000024D4
:1011780060D40608F8BC05085421060830B50023D9
:10118800202411F8012F0AB9027030BD120600F1AF
:1011980001051ED50BB1047028460B78114A03F0DF
:1011A8007F0363B9013A12F8013F0546013013F095
:1011B800800F0BD003F07F032B700123E1E712F9B6
:1011C800015B002DFBDA013BDBB2EAE700F8013CEA
:1011D800E9E7012B04BF047028460B7800F8013BAF
:1011E8000223CEE7FFBC050838B543680546194415
:1011F8000368994211D9037BDB0703D5002107480F
:101208000BF0F4FD01F11004806824F007040834A1
:101218002146FFF7A4F82C60A86038BD5C41060899
:1012280070B504460E4611461546FFF7DDFF3146F8
:101238002A46D4E90130184424F0AEFC63682B44F4
:10124800636070BD70B546680446B14228BF314638
:101258000D460121FFF7C8FFA368681C721B5919C6
:10126800184424F099FC6368A0680133284463603B
:1012780070BD012938B538BF01210446002508464C
:1012880021606560FFF750F8237BA06065F30003D9
:10129800237338BD38B505460C460131FFF7E9FF21
:1012A8006C6038BD00230160C0E90132037B43F064
:1012B800010303737047000038B514460546FFF76D
:1012C800D8FF024B2560636038BD00BF29120008B3
:1012D800037BDB0710B5044602D48068FFF74CF89F
:1012E8000023A36010BD13B501901020FFF71CF870
:1012F80004460199FFF7BDFF204602B010BD10B5A6
:10130800044650B1037BDB0702D48068FFF734F84A
:101318002046BDE81040FFF72FB810BD38B5037B55
:1013280004460D46DB0703D5002107480BF05EFD98
:10133800016880682944FFF712F82368A0601D44FB
:101348001844256038BD00BF5C41060838B504461E
:101358000D46FFF749FFD4E901301D441844656084
:1013680038BDD0E9002310B59A42044602D10121C4
:10137800FFF7D4FF0021D4E90132D154A06810BD91
:1013880010B50C460121FFF7E1FF047010BD7F295D
:10139800F8B50C46CEB204D80121FFF7D7FF067086
:1013A800F8BD06F03F06B1F5006FC1F3871546F0AA
:1013B800800607D265F03F050221FFF7C7FF467098
:1013C8000570EDE705F03F05B1F5803FC1F307373C
:1013D80045F0800508D267F01F070321FFF7B6FF25
:1013E800457007708670DBE7A40C07F03F070421FF
:1013F80064F00F0467F07F07FFF7A8FF857004709B
:101408004770C670CCE713B504460846019124F02E
:1014180011FC01990246204602B0BDE81040FFF7D2
:10142800FFBE10B51446FFF70DFF047010BD10B5D0
:101438001446FFF707FF047010BD43688B422CBFAA
:10144800591A00214160704738B5044615460846C8
:1014580062688A4203D929448A4201D8606038BD4B
:10146800A368521A1844194424F096FB63685B1B5E
:101478006360F4E70846114625F07CBC37B505469D
:101488000846019124F0D6FB044620B102466B6859
:10149800019928689847204603B030BD2DE9F74FD9
:1014A80089469DF8301017460D9A11F0DF0F064651
:1014B800A2EB07023DD030290CA8254913BF80466E
:1014C8004FF0100A88464FF0010A13F0800535D016
:1014D80002EBD2746510A2EB6404002D35DDAB4637
:1014E800DA45524673684146A8BF5A4630680192A9
:1014F8009847019AABEB020BBBF1000FF0DC2FB160
:101508003D4473683A46494630689847002C0CDDDC
:101518002544A245574673684146A8BF2746306808
:10152800E41B3A469847002CF3DC284603B0BDE894
:10153800F08FDFF820804FF0100AC6E713F001049F
:1015480001D11546C9E71446D9E70025D7E700BFFA
:101558006D2106085C2106082DE9F043064689B08E
:101568000020119D9DF84880139F8DF80F000AB345
:1015780081421ADA2D2249428DF80F20109A08ACC0
:101588000DF11009A2F10A008E46B1FBF3FC03FB32
:101598001C126146092A8CBF1218303204F8012D3A
:1015A8004C450ED07345EFD90BE0A80727D52B2261
:1015B8008DF80F200029E1D130230DF11F048DF89B
:1015C8001F3015F040099DF80F301CD023B30122BD
:1015D8002B460DF10F013046013FCDE90082FFF7A0
:1015E8005DFF814608AA2B4621463046121BCDE9ED
:1015F8000087FFF753FF484409B0BDE8F0836A0746
:10160800D8D52022D4E7002BECD004AA9442E9D9FB
:1016180004F8013C013CE5E79946E3E72DE9F04F82
:1016280093B081461E46C8079DF874300C46924612
:101638001C9D0793DDE91E870BD4A10703D1216800
:101648007F4B994205D020460DF0EEF9400040F05E
:10165800010415F0810306D1079A302A03D1B84551
:10166800B8BFB8461F4620460DF1280B10F034FBD2
:10167800002818DBAA0712D52B238DF828300DF186
:101688002903E806F6B21CD5BAF1020F0DD13020B5
:10169800194601F8020B701C58700B4611E06B07D5
:1016A80001D52023E9E75B46EBE7BAF1080F62D1E1
:1016B80030211970A90549BF06F10E01013359708F
:1016C8000233002115F0200F0EA81970A3EB0B03AD
:1016D8000B904FF0100006930CBF0B462C23012FE4
:1016E8008DF82710C8BF45F0400515F04002CDE938
:1016F8000C010592CDE9026347D023460DAA0BA839
:10170800CDE900A10CA910F0C3F9037882462D2B6E
:1017180006D18DF8273000F1010A0D9B013B0D938E
:10172800012F40F385800D9C059BBC42B8BF3C4609
:101738002BB19DF8273003B10134069B1C44A0450A
:101748002EDD15F00103A8EB04042AD126461C4619
:1017580025F001054EB1202301963A4948460093E9
:1017680000231A46FFF79AFE0646059B002B5CD11C
:10177800302307933AE0BAF1100FA2D1302019466E
:1017880001F8020B06F1170086E70AAB0DAA0CA9AF
:101798000BA8CDE900A3234610F07AF98246BFE7EB
:1017A80000240026D4E7002426469DF827305BB1A4
:1017B800002301220DF12701484608F1FF38CDE941
:1017C8000032FFF76BFE0644069B63B1002301223B
:1017D80059464846CDE90032069AFFF75FFE069B58
:1017E8000644A8EB0308012FD8BF4746079B51467C
:1017F8000D9A484600932B460197FFF74FFE064483
:101808004CB120230F4948460194009300231A46FF
:10181800FFF744FE06440B980EAB984201D0FEF742
:10182800ABFD304613B0BDE8F08F30230793BCE71B
:10183800059B002BB7D11C461E464746D6E700BF7E
:1018480090480608549107082DE9F0431646984633
:101858008BB00746B2070A4602A84FF0200154BFD2
:10186800C6F380032B23DDF8489058BF5B01009333
:10187800139B0AF0E5F9F305044610D5431C1F2B0A
:101888000DD800F1280200210DEB0204252204F8EE
:10189800202C03F128021C466A4402F8201C16F08A
:1018A80040051DD09DF808302F2B4FF0000319D8A4
:1018B800012202A9384609F1FF39013CCDE900327D
:1018C800FFF7ECFD0DF1090105463346224638467F
:1018D800CDE90089FFF7E2FD28440BB0BDE8F083AD
:1018E80002A9F2E702A91D46EFE700002DE9F04F33
:1018F800074689B014460025DFF890820B461E463D
:1019080013F8012BA2BBB14235D30B78002B00F0A2
:101918003681013120234FF0000A084610F8012BC8
:1019280032B12B2A3CD02FD8202A3CD0212A3DD0B6
:101938004FF000094FF00A0C0E4611F8012BA2F1E6
:101948003000092835D92E2A59D172782A2A35D05B
:1019580000224FF00A0E0E4611F8010BA0F1300CD0
:10196800BCF1090F2DD80EFB020BABF13002F2E7E8
:10197800252AC4D1C7E7A6EB01097B6838684A461F
:101988004D4498473146C0E72D2A05D0302ACFD19B
:101998004AF0400A134601E04AF0010A0146BCE752
:1019A8004AF0020AFAE74AF0040AF7E74AF0080A96
:1019B800F4E70CFB0922A2F13009BDE7023654F81E
:1019C800042B22EAE27B32786C2A08BF0136317890
:1019D800002900F0D480782960D8572912D84729DF
:1019E8005AD844295AD907345246384624F00704AD
:1019F800CDE9009BB4EC020BFFF726FF60E04FF047
:101A0800FF3BE0E7A1F15802202A47D801A050F88F
:101A180022F000BF571B0008A51A0008A51A0008E5
:101A2800A51A0008A51A0008A51A0008A51A000892
:101A3800A51A0008A51A0008A51A0008B31A000874
:101A4800D51A00083B1B0008EF190008EF19000819
:101A5800EF190008A51A0008A51A0008A51A000819
:101A6800A51A0008A51A0008A51A0008A51A000852
:101A7800A51A0008771B0008E91A0008A51A00082B
:101A8800131B0008A51A0008571B0008A51A000810
:101A9800A51A0008571B0008502968D07B68012246
:101AA80031463868013598470BE054F8042BCDE9E6
:101AB800003953463AB1042233493846FFF7EEFC61
:101AC8000544711C1AE705224146F6E754F8042B31
:101AD80007A98DF81C200122CDE900395346ECE70F
:101AE80007A954F8040B0493FFF7D9FABBF1FF3F99
:101AF8000146049B04D0079A934538BFCDF81CB023
:101B0800079ACDE900395346D7E754F8041B0593E3
:101B18000846049124F08EF8BBF1FF3F0246DDE948
:101B2800041302D0584528BF5A46CDE90039534618
:101B3800C3E7CDE9023961230122CDF804A000935F
:101B48000A2354F8041B3846FFF706FDB8E74A1C79
:101B580021F00F01CDF804A002F006020F39CDE9FB
:101B68000239C9B2C2F1100300910022E9E7CDE9B8
:101B780002396123CDF804A000931023F5E7284625
:101B880009B0BDE8F08F00BF482106084D210608BE
:101B98000EB403B503AA52F8041B0192FFF7A6FE80
:101BA80002B05DF804EB03B0704790F900200378A9
:101BB800002A0ADA03F07F034022134207D110F803
:101BC800012F02F0C001802905D01846704723EA8A
:101BD80002035208F1E702F03F0242EA8313EEE7FC
:101BE800431C18460133027802F0C002802AF8D05C
:101BF80070470023814201D81846704711F8012D1B
:101C080002F0C002802A18BF0133F3E701440346FB
:101C1800002099421A4600D870471278013302F022
:101C2800C002802A18BF0130F3E700007F289DBF5B
:101C3800024B185CC0F34000002070477E21060864
:101C48007F289DBF024B185CC0F3C000002070477E
:101C58007E2106087F289DBF024B185CC0F38000D8
:101C6800002070477E2106087F289DBF024B185C24
:101C7800C0F38010002070477E2106087F2809D80D
:101C8800064B1B5C13F00C0F06D1A0F15F03584202
:101C98005841704700207047012070477E21060890
:101CA8007F289DBF024B185CC0F3001000207047CE
:101CB8007E2106087F289DBF024B185CC0F34010A8
:101CC800002070477E21060808B50246FFF7E8FFA6
:101CD80000B12032104608BD08B50246FFF7EAFFFA
:101CE80000B1203A104608BD3038092884BF20F0DA
:101CF80020000738704701440246002010B5E5244B
:101D0800914203D8B0FA80F0400917E012F8013B7D
:101D180030B103F0C003802B11D1431ED8B2EFE7D6
:101D2800BF2B09D9F72B09D8DB0803F0060344FABF
:101D380003F303F00300E3E71B06E1D510BD002021
:101D4800FCE7023981420B4603D31A880239002A7C
:101D5800F8D00233181A40107047B2EB131F70B551
:101D68004FEA131416D9121B03F00F0301EB4401B9
:101D780015460E46012D31F8024B18BF3468013D57
:101D880024FA03F4A4B220F8024BF2D104B9013AC0
:101D9800104670BD0022FBE7F0B5059F0024D21B5A
:101DA8002646A74210D100EB4705002301EB470167
:101DB8009A4214D105EB42031EB10121023325F8E2
:101DC8001210181A4010F0BD31F8145033F814C02E
:101DD8006544354420F814502E0C0134E1E731F8FD
:101DE8001340344425F81340260C0133E0E7F0B4DF
:101DF800049F0025D21B2C46AF420BD100EB4706AF
:101E0800002301EB47059A420FD106EB4201F0BCD3
:101E1800FFF797BF31F81560344433F81560A41BF9
:101E280020F8154024140135E6E735F813100C4462
:101E380026F8134024140133E5E72DE9F043079C05
:101E48000239DDF828E0154684464FF6FF78A4EB02
:101E58000209DDE9087655B900EB42011FB10123FB
:101E6800023120F81230BDE8F043FFF76ABF31F8BD
:101E7800024F013D4444264405EB0904AC4296BF99
:101E880033F8024B4FF6FF744444744486EA040E58
:101E9800360C17FA8EF74FEA144E2CF8027B3F0CDB
:101EA800D9E7022938B538BF0221044680680D46B3
:101EB80018B12368B1EB930F07D96900FEF74FFA01
:101EC8002368A06065F39F03236038BD38B50446D6
:101ED8000C20FEF729FA054623682278C3F39D00F3
:101EE80023F0030302F00102400013432B606368F0
:101EF8006B60FEF719FAA8602268A168C2F39D0218
:101F0800520023F019FE284638BD994210B511D366
:101F180013D800EB410002EB410209B9084610BD95
:101F280030F8023D32F8024D1B1B002B02DB04D1B6
:101F38000139F2E74FF0FF30F1E70120EFE710B584
:101F4800044638B18068FEF717FA2046BDE810400D
:101F5800FEF712BA10BD70B50C4602210546FFF710
:101F6800A0FF002C2B78B5BF012200226142214638
:101F780062F30003AA682B70012388B21446090C87
:101F88001E4622F8020B03F10103F6D16E60208091
:101F980070BD0023C0E900338360704728B103781F
:101FA8009B0702D48068FEF7E7B9704738B5054645
:101FB8000C464968FFF775FF22782B78A86862F30A
:101FC80000032B706368A1686B606268BDE83840E5
:101FD800520023F0B1BD0A4629B90178426062F384
:101FE800000101707047FFF7B6BF08B5FFF7D1FFD2
:101FF800BDE80840FFF7EFBF920042F0020202601E
:10200800002210B4C0E901215DF8044B1946FFF71E
:10201800E2BFF8B514461D469DF81870042106461F
:10202800FFF73FFF22462B4627B1002D0CDA62420C
:1020380065EB4503317867F3000131700021716069
:1020480052EA030102D1F8BD0027F3E7D6E90110EF
:102058004C1C746020F81120120C42EA03421B0C3D
:10206800EEE72DE9F84353EC102B1E46037807469C
:1020780010EE105AF20F62F30003037047F6F07384
:1020880013EA164207D13B786FF300033B70002335
:102098007B60BDE8F8839A42F5D0C6F30A52A2F2F3
:1020A800FF34002CEFDB04D10121BDE8F843FFF732
:1020B80052BFA2F2EF38C6F31306332C4FEA2818A2
:1020C80046F480163FDCC4F13402A4F11403C4F1D1
:1020D800140406FA03F3D54026FA04F4D6401D4347
:1020E80025430024A14641463846FFF7DAFEC7F8E3
:1020F8000480B9F1000F05D04FEA49020021B86801
:1021080023F05EFD9CB105FA04F2BB6823F81920A0
:10211800C4F11003103409F10109A3F12002DD40D4
:1021280006FA04F426FA02F2DE40254315434B462C
:102138009845AED0BA6822F813502D0C013345EA01
:102148000645360CF4E7A2F233430C34002B04F0B6
:102158000F04B8BFA2F224434FEA2319C3E72DE9BD
:10216800F8438F18C2F35B0204460D46511C98468B
:10217800089EFFF796FE2378AC4600221FFA86FEDB
:1021880068F300032370BC456046626002D3401BBD
:10219800BDE8F88301780CF1010CA1F13003092B9B
:1021A80005D9A1F14103192B12D8A1F13703B34284
:1021B800EDD2A06890468146B8F1000F0FD100EB30
:1021C800420113B1023120F81230091A4A10DAE735
:1021D800A1F16103192BDAD8A1F15703E7E7B9F8A0
:1021E800001008F1FF3801FB0E3329F8023B1B0CE5
:1021F800E2E7F8B5044615461E46C1B1531E4FF036
:10220800FF371E44E90020460F310909FFF749FE50
:10221800237800216FF30003616023704DB9D4E97E
:10222800011000EB4101FFF78CFD6060F8BD01274C
:10223800E8E700230F290ADC3278013D3E4402FA20
:1022480001F201F1080143EA02039BB2F2D162688C
:102258001039501C6060A06820F81230DEE738B5ED
:10226800057804460B7805F0010203F00103981A7B
:1022780008D1D1E90132D4E90110FFF746FEEB0796
:1022880048BF404238BD884210B5044601D0FFF728
:102298008DFE23786FF30003237010BD884210B5BC
:1022A800044601D0FFF782FE63683BB12378C3F38D
:1022B8000002C2F1010262F30003237010BD8842DC
:1022C8001FB5044601D0FFF771FE626862B90121AB
:1022D8002046FFF7E6FD0123A26813806360237898
:1022E80043F00103237010E02378D9070FD56FF36B
:1022F8000003A168237001230846ADF80E3000934F
:102308000DF10E03FFF773FD606004B010BD511CA2
:102318002046FFF7C6FD0123A168ADF80E300093F3
:1023280008460DF10E036268FFF736FD6060D6E7D8
:102338002DE9F8434B6805460E46144603B12AB901
:1023480031462846BDE8F843FFF730BE02F10F01D9
:102358004FEA111803EB1111FFF7A3FDA96814F058
:102368000F044FF0000ED6E9013208BF102408EB25
:10237800030702EB4302C4F1100407F1004C0CF10F
:10238800FF3C01EB4C0C1946E14601BB6FF0010222
:10239800C8F101082EFA04FE53434FEA48020CEB39
:1023A800030052422CF803E000EB48084046A8F12D
:1023B800020823F005FC17B138F817309BB12B78C9
:1023C8006F60327862F300032B70BDE8F88332F84F
:1023D800020D013940EA0E0020FA04FE29F802E94C
:1023E8004FEA004ED1E7013FE5E72DE9FF410D46F1
:1023F80049680646144601B132B92946304604B048
:10240800BDE8F041FFF7D2BDFFF74BFDB768D5F83F
:10241800088023466A6838464146FFF79EFC3378B1
:1024280070600246297861F300033370DB072AD510
:10243800002320096968ADF80E30994201D0834223
:102448000ED181421FD904F00F04012338F810106F
:1024580003FA04F4013C214211D0ADF80E3007E034
:1024680038F813504DB101238142ADF80E30EAD847
:1024780001235AB93B80736005E00133DDE7BDF8FD
:102488000E30002BF4D104B0BDE8F081009339463A
:102498000DF10E033846FFF77FFC7060F3E773B564
:1024A8000C4615460646D2E90132D1E90110FFF77C
:1024B8002CFD0028BEBF23462C461D4623786168A4
:1024C8002A785340DB071AD401313046FFF7E9FC7C
:1024D8006B68B0680093AB68D4E90121FFF75CFC36
:1024E800706023783278C3F3000300280CBF002300
:1024F80003F0010363F30002327002B070BD30468E
:10250800FFF7CFFC6B68B0680093AB68D4E9012192
:10251800FFF76DFCE4E7F7B50C4617460546D2E928
:102528000132D1E90110FFF7F0FC0028BDBF2346B6
:102538003C4601260026B8BF1F46237861683A78D2
:102548005340DB0719D501312846FFF7AAFC7B6801
:10255800A8680093BB68D4E90121FFF71DFC6860F7
:10256800B8B1237803F001030EB183F001032A7890
:1025780063F300022A7003B0F0BD2846FFF791FC10
:102588007B68A8680093BB68D4E90121FFF72FFC9A
:10259800E5E70346EBE72DE9F04F14464A680D4698
:1025A80085B0636806469A423EBF0B4625461C46E0
:1025B8002B786968DB0722D4237813F001071ED132
:1025C800FFF76FFCB068AD683B46D4E9011C99423F
:1025D8000CD100EB4101FFF7B4FB002370603278A7
:1025E80063F30002327005B0BDE8F08F35F81320B0
:1025F8003CF81340224020F813200133E7E701316B
:102608003046FFF74EFC2F78237807F00108D5F8FD
:1026180004C087EA030147F30007B06803F0010923
:10262800C94343F30003A268834601F0010E41F356
:1026380000019BB289B200930291B9B26746019139
:10264800A968A1F1020A6168A1EB0C0103918FB995
:1026580000EB4C01BEF1000F03D00123023120F83A
:102668001C30FFF76EFB706022782B78C2F30002F3
:102678001340B4E73AF8021F013F019B5940039BFE
:102688008844D919B9429BBF32F8021B009B0099B4
:102698005940029B894408EA09014FEA19494FEA5F
:1026A800184859401EFA81F14FEA114E2BF8021BC7
:1026B800CDE72DE9F84F15464A680C4606466B6883
:1026C8009A423EBF0B462C461D4623786168DB07BD
:1026D80032D42A7812F001072ED1FFF7E2FBA16865
:1026E80064683A46D6F808C0D5E9013EE41A934230
:1026F80013D101EB430100220CEB4303944215D1A3
:1027080003EB44030022A3EB0C03581033787060EA
:1027180062F300033370BDE8F88F31F812003EF819
:10272800125028432CF812000132E0E731F8120069
:1027380023F812000132E1E701313046FFF7B1FB1F
:1027480022782B784FF0010A616802F00108B0681E
:1027580003F0010942F3000243F30003A46883462F
:1027680092B29BB2A4F1020CD5E901E70D46AEEB9B
:10277800010E2DB900EB4101FFF7E3FA0122C5E78D
:102788003CF8024F013D5440A0440EEB0504AC4216
:1027980096BF37F8024B1C465C40A14448EA09043E
:1027A8004FEA19494FEA1848E4431AFA84F44FEA01
:1027B800144A2BF8024BDCE7F0B515464A680C467C
:1027C80085B06B6806469A423EBF0B462C461D46AE
:1027D800277861682B785F4017F001073BD1FFF736
:1027E80060FB237813F0010329D16168B068A768FA
:1027F800D5E9012C891A9A4212D107EB4207002326
:1028080000EB4202994214D102EB4101FFF799FA19
:1028180000277060337867F30003337005B0F0BDAC
:1028280037F813403CF813506C4020F8134001333C
:10283800E1E737F8134022F813400133E2E7CDE926
:10284800027701976B68B0680093AB68D4E90121FF
:10285800FFF7F3FADCE701310127FFF722FB2B78BA
:10286800B068DB4303F00103039323780197DB434C
:1028780003F0010302936B680093AB68D4E901216C
:10288800FFF7DBFA7060C5E74B682DE9F04F0446A7
:1028980085B00E4615460BB1536843B923786FF3DC
:1028A800000323700023636005B0BDE8F08F814208
:1028B8002ED1FFF70BFBA5420646074600D1054679
:1028C8006B68204671681944FFF7EBFA226800210B
:1028D800A068C2F39D02520023F072F9B368D4F8DD
:1028E80008E00022D6F804900193F446AB680EEB9A
:1028F8004908114602936B680393039B934231D0B6
:10290800ACF10200DDF804B00023CDF8009018E027
:10291800824204D1FFF7DAFA05460746D0E70027D6
:10292800CEE730F802AF53443BF802AB1946029B9E
:1029380033F8123003FB0A130099038001391B0C8A
:10294800009100990029ECD14146881C13B1014639
:10295800A8F80030A1EB0E010CF1020C0132804600
:102968004910CAE7616038462A783378534022789C
:1029780063F30002227005B0BDE8F04FFFF7DFBA3D
:102988004B6870B50546144613B11378DA0706D5B7
:102998002B786FF300032B7000236B6070BD6368A6
:1029A80023B90121BDE87040FFF7D5BA0846FFF703
:1029B8008DFA06462046FFF789FA01210446284683
:1029C800FFF7C9FA636883B1A3681B88DB0704D5DE
:1029D800324629462846FFF757FFA1680123626857
:1029E8000846FFF7BAF9606038B93046FFF7A7FA2A
:1029F8002046BDE87040FFF7A2BA3246314630465D
:102A0800FFF742FFDEE72DE9F04F0C4651688FB023
:102A18009046013105460293FFF743FAD8F804209F
:102A28000021A86800260132520023F0C9F82B784B
:102A38006E6020466FF300032B70D8F80410013144
:102A4800FFF72FFA41462046FFF7B0FA029BA76826
:102A5800D4F8049038464946D3E9013A00935246DF
:102A6800AB680393009BFFF750FA002835D1012388
:102A7800039A606013806B6023786168C3F3000277
:102A880000290CBF002202F0010262F30003029A3F
:102A9800237098F8003012785340DB0740F100812A
:102AA8006B682A78003B18BF012363F300022A7081
:102AB800002900F0F5800BA84FF0FF31FFF795FAD9
:102AC8000BAA29462846FFF7EAFC029A2146204627
:102AD8000FB0BDE8F04FFFF7E2BC01DA6E60CBE75C
:102AE800009B03F10042013A4FEA420E3AF81230D5
:102AF800180406F1010150D507EB490B002109F133
:102B08000100BC460BF1020327F81910606001931D
:102B1800B3B2C3F110060496019EB44541D33AF806
:102B280012209A400492009A012A09D90AEB0E024F
:102B3800C3F1100132F8022CCA40049911430491E0
:102B4800009AAAF1020A801A039A686000F100400C
:102B5800013802EB400206920EF102020992626805
:102B680005920599009A8A4227D301F1004B002269
:102B7800C3F110000BF1FF3B07EB4B0B5F4576D918
:102B88006FF000416B682BB15A18039830F8122087
:102B9800002A76D06FF0004178E05B000E469BB2C9
:102BA800A6E7BCF8006006FA03F941EA09090499A6
:102BB800CE402CF8029BB1B2AEE7BBF80010002063
:102BC8003BF8022C864642EA01420499B2FBF1F234
:102BD8000192099AABEB02021646CDE9072AB345E2
:102BE8000FD8BBF80010084400283BD1069AABF177
:102BF800020B019922F802190692059A013A6260BD
:102C0800ADE7089AB6F8009032F8021F19FA80F971
:102C180099400892019A41EA1E4E1FFA8EF15143DB
:102C28001FFA81FC090CA9EB0C0CC1EB204126F81A
:102C380002CB01EB2C40D2E739F802CF0CFA03FCA7
:102C48004CEA1E4EB6F800C011FA8EF18C444FEAD9
:102C58001C4126F802CBB345EED8019A0844013A44
:102C68000192C1E70021D146079E8E46F3E7BBF8E3
:102C7800001041FA03F6814032432BF802298AB248
:102C88007CE7013B6B607DE7013B63606368002B79
:102C98003FF4F2AE5A1837F81220002AF4D0EBE6C7
:102CA8000FB0BDE8F08FF0B51F464B6885B00446FD
:102CB8000D4616464BB11378DA0706D47B68012B0C
:102CC8000BD1BB681B88012B07D123786FF3000356
:102CD80023700023636005B0F0BD01212046FFF793
:102CE8003AF97368002BF6D02846FFF7EFF8054647
:102CF8003046FFF7EBF8064601A8FFF74AF9736874
:102D0800B3B1B3681B88DB070AD52A46214620469B
:102D1800FFF7BAFD3B462246214601A8FFF773FE9E
:102D2800B168012372680846FFF717F8706058B950
:102D380001A8FFF733F92846FFF701F9304605B037
:102D4800BDE8F040FFF7FBB82A4629462846FFF7BA
:102D58009BFD3B462A46294601A8FFF754FECEE7CD
:102D6800D0E90121002301EB420210B5914205D3BD
:102D78000278D20748BF5B42184610BD32F8024DB0
:102D880044EA0343F2E730B5D0E90124002304EB19
:102D98004202944206D302780120D20748BF5B4220
:102DA8000B6030BDB3F5004F04D232F8025D45EA3E
:102DB8000343EEE70020F4E72DE9F0470546D1B1DB
:102DC800981800264FF0010C03EB02093746D5E9A5
:102DD8000184A4F1020EB8F1000F0ED1B9B3C21AE2
:102DE80018462B7813F0010FBDE8F04714BFFF21F8
:102DF800002122F0E5BE1846E3E73EF8024F1037FF
:102E080044EA064695F800A0072F0AF0010A02DCFA
:102E180008F1FF38DFE7B4B2BAF1000F06D0E44397
:102E28005CFA84FC1FFA8CF4CCF3072CE4B249B1A9
:102E380000F1FF3A00F8014C53450BD0083F360A21
:102E48005046DFE782460AF8014BCA45F5E71A44BF
:102E5800121AC6E7BDE8F087D0E901329FED0C0BE6
:102E68009FED0D6B02EB43039A4205D30378DB0712
:102E780048BFB1EE400B704733F8021D07EE101A39
:102E8800B8EEC77BA0EE067BB0EE470BECE700BFC1
:102E98000000000000000000000000000000F040FA
:102EA8002DE9F84F446881468A4615461E469DF826
:102EB80028B00B9F9CB982B1551E3A4615F8011FE0
:102EC800134639B930221A70002203F8012FD81B93
:102ED800BDE8F88F02F8011BF0E73B46F2E7640013
:102EE8002046FDF721FA80462246D9F8081022F03C
:102EF80023FE3A463B4608EB0401A6F13A00A1F14D
:102F0800020C0026E045644639D930361C46392E75
:102F180088BF361804F8016B4646B142B44638D823
:102F2800BBF1000F0AD00126A4EB020CBCF1030F81
:102F380002BF9C1C83F801B02246F6B14046FDF75B
:102F48001BFA5DB1284622F075FE2A18611E134649
:102F5800AB4229D8954288BF0020044499F8003034
:102F6800DB0744BF2D2304F8013B3B46621E9A420F
:102F78001FD80023E01B2370AAE72346BFE7248855
:102F880044EA0646B6FBFAF40AFB14662CF8024932
:102F9800B8E7BCF800C00236BCF1000FBDD0BBF1E9
:102FA800000FEAD00026BFE713F8016D01F8016FA2
:102FB800CEE71978107803F8010B02F80119D6E763
:102FC800D0E9023293423DBF5A1C826018784FF014
:102FD800FF307047036810B5044613B14068FDF729
:102FE800CBF92046BDE81040FDF7C6B9F8B50C4648
:102FF8001F46164605461020FDF796F9054B8460D6
:10300800C0E900743444C4606B60034B2860AB6053
:10301800F8BD00BFC92F0008DD2F000802690A2A81
:1030280010B5044635D1836A013383620123A2694E
:10303800E36263696261226F2361002A31D0616EA5
:103048008A423BBF501CA16E0022206738BF8A5CB1
:10305800A2613BB9E26963662261226A2367626101
:10306800626AA261D4E905230D2A07D10A22934294
:10307800626103D1D4E901039847A061A3690133D0
:1030880006D163695A1C03D00A2B1CBF0A23A3610B
:1030980010BDC36A092A04BF073323F007030133AD
:1030A800C5E7D4E901039847A061DBE70369272B4B
:1030B8002BD0222B29D0A3F1620113291ED8174A3D
:1030C8000A41D2071AD44269272A1ED0222A1CD0C4
:1030D800722B1CD1662A06D18269272A15D0222A8A
:1030E80013D0722B15D14369622B0CD18069272824
:1030F8000BD0A0F12203584258417047662BF0D1FB
:103108004269722AE8D00020704701207047662B78
:10311800F6D0622BF7D14369722BE6E7EEFFF6FF94
:1031280070B504460D4600262069431C01D130467F
:1031380070BD0A2808D115B1636B002BF7D0204663
:103148000126FFF76BFFEFE7FEF770FD18B1204689
:10315800FFF764FFE8E72369232B08D12046FFF730
:103168005DFF23695A1CDFD00A2BF7D1DCE75C2B03
:10317800DDD163690A2BDAD12046FFF74FFFE6E776
:10318800436E2DE9F04F04462DED028B85B0A3B1B7
:10319800036F93B929216030FEF7F2F82369E361E0
:1031A80063692362A3696362A36E1A7822615A78FD
:1031B80062619B78A3610323236700212046616530
:1031C800FFF7AEFFA36AE56A6364236BA564002B6F
:1031D80001930ADA019F0823013784F84C302763EA
:1031E80005B0BDEC028BBDE8F08F05D0072384F84D
:1031F8004C30019B5F1EF2E7002834D0636B93BB11
:1032080006236FF00042013D84F84C30D4E90F30BA
:10321800991830F811108D42E2D019D9A16B8B4260
:1032280007D308314900FDF79AF8A36B20640833E7
:10323800A363D4E90F32591CE16322F81350236BBE
:1032480001332363CCE7013BE363236B013B236337
:10325800E36B991830F811108D42F4D3C0D00223D3
:1032680084F84C30BCE725696A1C01D10023F7E7D4
:103278002046FFF71BFF8146002800F0B581002398
:1032880084F84C302369752B51D0622B07D16369C0
:10329800722B51D1C84602260D23002512E0722B4D
:1032A80006D16369622BF5D0662B49D10523D7E790
:1032B800662B49D16369722BF8D04D4601260C2341
:1032C8004FF0000894F84C20002A3FD184F84C3085
:1032D8003EB12046FFF7A2FE022E02D12046FFF79C
:1032E8009DFE23692046222B14BF4FF0270B4FF079
:1032F800220BFFF793FE23695B452AD163699B453F
:1033080027D120464FF0030AFFF788FE2046FFF733
:1033180085FE25B1B24904F16000FEF774F804F1A6
:103328006003002704F1500608EE103A1EE001265B
:1033380000250C23A846C5E701260D230025BFE775
:10334800C84601260C23A8E7019EF1E79A42BFD0A0
:1033580046E74FF0010ADCE7934533D1594630463A
:103368000137FEF714F82046FFF758FE2269511C72
:1033780000F02F81BAF1010F02D10A2A00F0298149
:103388005745E9D3394604F15000FEF756F80121B4
:103398002046FFF7C5FE2046FFF788FE00287FF489
:1033A80071AF1DE72046FFF739FE21697B291ED141
:1033B8003046FDF7E5FF2046FFF730FE7B2130461B
:1033C800FDF7DEFF21690DB17B29EBD05C2940F0C8
:1033D800FB8020460291FFF721FE27690299B8F188
:1033E800000F38D03046FDF7D2FF3946CBE0676E84
:1033F800002221694B1C04D0C2B93A2901D07D2989
:1034080014D1D4E91921881810F8010C3D2807D1E6
:10341800D21B39443046FDF703FF636E013B6366F8
:103428002C2118EE100AFDF7ABFFC7E721F02000AA
:103438005B280BD10132C9B218EE100A0292FDF7CF
:103448009FFF2046FFF7EAFD029AD2E75D2808BFF2
:1034580002F1FF32EFE7782F06D85B2F0BD8222F27
:1034680072D053D80A2F4FD0A7F13001072900F2A4
:10347800A58003279BE0A7F15C021C2AF4D801A1D0
:1034880051F822F0513500087134000871340008F1
:103498007134000871340008013500082D35000822
:1034A8007134000871340008713400083D35000893
:1034B8007134000871340008713400087134000850
:1034C800713400087134000871340008353500087B
:1034D8007134000871340008713400082935000877
:1034E80071340008313500084135000839350008C5
:1034F80071340008A1350008072194F84C300C2BD2
:103508005ED13046FDF743FF00272CE7552F13D037
:10351800AAD8272F18D04E2FA6D132480AF034FC4B
:103528000D21EAE70821E8E70921E6E70A21E4E7AF
:103538000B21E2E70C21E0E794F84C200D2A05D195
:103548005C213046FDF723FF3946D6E7752F0CBFBF
:1035580004270827002114E020460291FFF75EFDAA
:10356800226910460392FEF77FFB002800F04F8186
:103578000299039A090110460291FEF7B5FB0299D8
:103588000144013FE8D2481CBED0B1F5881FB4D32E
:10359800012384F84C30B7E70227DBE72046029185
:1035A800FFF73CFD22690299303A02EBC1016269DA
:1035B800303A072AE7D8013FF0D1E4E75C2111E768
:1035C800FF29E5D80D2BE3D1C9B23046FDF7D8FE67
:1035D8009AE757453CBF032284F84C20D2E600BF47
:1035E800432206084C2206082846FEF729FB054612
:1035F80020B920695F2801D07F283ED9092304F12A
:10360800500584F84C30217C2846FDF7B9FE204649
:10361800FFF704FD2069421C1BD128467E4FFDF7A9
:10362800A0FE0025064657F8041B304622F010FB82
:1036380000281CD10F35EDB2122D84F84C507FF4C0
:10364800CFAD764BD3F81432002B0CBF11230F23C8
:1036580006E6FEF7F5FA0028D5D120695F28D2D012
:103668007F28D0D8FEF7F6FA0028CCD1D5E7FFF6A8
:10367800B7AD0135242DD6D1B2E5FEF7EBFA68B324
:1036880021692E2935D10B2384F84C3004F15006DA
:103698000B273046FDF77BFE2046FFF7BFFC20696D
:1036A800431C3FF49DAD002D36D120F02003452B5F
:1036B80032D16521304684F84C70FDF768FE20460B
:1036C800FFF7ACFC21692B2901D02D29E7D1304621
:1036D800FDF75DFE2046FFF7A1FCE0E723692E2BEE
:1036E80004D16069FEF7B6FA0028C9D100264C4D0E
:1036F80032E00A23302984F84C30C7D1636943F09B
:103708002003623B162B97BF464D01251D4105F04E
:10371800010585F00105B9E7FEF792FA28B121699C
:103728002E290DD184F84C70D1E72069FEF792FA62
:103738000028F4D123692E2BF1D05F2BCAD04FE596
:1037480021F020034A2BC2D1ECE7652F01D0632F6B
:1037580000D10135013601352F7817B12369BB42F5
:10376800F3D12046FFF75AFC0FB9012378E5212F42
:1037780007D123693D2BF8D12046FFF74FFC3A23A8
:103788006EE52E2F0FD123692E2B02D163692E2BC4
:1037980001D05D2364E52046FFF740FC2046FFF793
:1037A8003DFC0E235CE50335334615F8027C632F98
:1037B8001AD0652F18D01C4AD35C552B84F84C308E
:1037C8000ED0563BDBB2042B3FF60AAD012202FABB
:1037D80003F313F0150F17D113F00A0F3FF400ADE0
:1037E800636B01336363FBE415F8012C013621692F
:1037F800914207D12046FFF711FC3346652FDAD0F6
:103808000235D2E7632FFAE7636B013BEAE701234E
:10381800014684F84C3070E6042306086000002452
:10382800FE210608FEDFBFFFD62206087FB501ADE0
:103838000646742085E80E00FCF776FD044603462C
:1038480095E8070043F8046B002583E80700012387
:103858006FF001021420C4E90A320A22C4E90C55A7
:10386800C4E90E23FCF760FD2021206404F1500018
:10387800FDF7FFFC294604F16000FDF7FAFC236C14
:1038880020461D802561C4E90555FFF7C7FB204682
:10389800FFF7C4FB2046FFF7C1FB2046FFF770FC8B
:1038A800A36C2046012B1CBF072384F84C3004B0BE
:1038B80070BD30B585B0054601AC2046FFF796FBD4
:1038C800284694E80E00FFF7B1FF05B030BD30B5CB
:1038D80085B00546014601AC20461DF0C3FC2846CC
:1038E800FDF7B0FB94E80E00FFF7A0FF05B030BD70
:1038F80010B5044690B1C3684068984704F1500079
:10390800FDF7E6FC04F16000FDF7E2FC206CFCF733
:1039180033FD2046BDE81040FCF72EBD10BDD0E9B0
:103928000432013B036152F8230070470369591AB6
:103938004369013953F821007047F8B5446A0646CF
:103948000D46B4B1D4E900030B44834222D90831AF
:10395800002201442046FCF70DFD0246B8B9616813
:1039680020460831FCF706FD63682360336A63600C
:103978003462802D2F4638BF802707F10800FCF7F6
:10398800D3FC0023076004464360706202E02368AA
:103998002B44236060680834054444F8045C2044E0
:1039A800F8BD38B50D460C211446FFF7C6FF4FF495
:1039B8009D720560C0E9012438BD38B5D0E90332ED
:1039C80004460D469A4208D3103340699900FCF723
:1039D800C6FCE36860611033E360D4E90432591C23
:1039E800216142F8235038BDF8B504461D460F46FC
:1039F8001646D0E90003834208D31030C100A068FE
:103A0800FCF7ADFC2368A06010332360D4E9010300
:103A1800421C626003EBC00253F8301067F31701D1
:103A280043F83010D6705560F8BD10B48469CAB236
:103A38000023616C5DF8044BFFF7D6BF10F001025C
:103A48001CD110F003030CD000F00F03062B15D087
:103A58000A2B11D100090E3803288CBF0020012041
:103A6800704770B102793A2A08D02D2A08D18068A7
:103A7800B0FA80F04009704710467047012070473F
:103A880018467047C20702D540F001007047830707
:103A980010D0030900F00F00062803D1D80040F029
:103AA80002007047A3F10F00022809D8064B53F80B
:103AB8002000704730B103793A2B03D180687047F2
:103AC800024870470248704700240608F05006086C
:103AD800A85806082DE9F04105460F461446164633
:103AE80096B93146204612F051FA014600F108080D
:103AF800ACB90A4628463946FFF753FF014628461F
:103B0800FFF75BFF012008E0013E28463146FFF73A
:103B18000DFFFFF793FF0028E2D1BDE8F0812846AA
:103B2800013CFFF7FCFE0646FFF7ACFF48F824000F
:103B3800002EDDD0B307DBD1686A00F108039E428E
:103B4800D6D3426813449E42D2D273681B0A02330A
:103B5800A2EB83024260CBE7F7B5866905460F46BC
:103B680096F84C20092A1FD1D6E91510FDF7CCF993
:103B7800902F04460ED1C100002205F1280041F023
:103B880002010AF095FC28B14268D30724D542F017
:103B9800010002E0200140F002000146284603B07F
:103BA800BDE8F040FFF709BFA2F10A03032B31D8A3
:103BB800DFE803F0020A172B00223346D6E9151076
:103BC80008F0D2FA0246E0E7009600230122D6E97F
:103BD800151008F049FB0246716C2846FFF7E1FE14
:103BE800DBE7D6E915100A2906D8FDF78DF930B1BB
:103BF800000140F00600D0E7FDF758F9F7E7D6E9ED
:103C08001521064810F050F9E5E7D6E9151010F02F
:103C1800E9FBE0E7120142F00A00BEE73456060865
:103C2800FA2807D010F0010306D040080CBF012085
:103C3800002070470120704718467047B0F58D7F07
:103C480007D010F0010306D0400814BF012000205F
:103C580070470120704718467047000010F00102B5
:103C680004D040F00100086001207047A8B110F0AE
:103C780003030FD102793A2A0ED1836813F00100A9
:103C88000B60F1D19A0708D11868044BC31A58423F
:103C980058417047104670471846704790480608C4
:103CA8002DE9F04F2D2A1D4600F1280304468846C9
:103CB80016462DED028B08EE103A87B00DD1002183
:103CC800FFF734FED0B1870702D10379922B15D0C4
:103CD80007B0BDEC028BBDE8F08F922A20D10021FD
:103CE800FFF724FE014648B1880707D14F68FBB2A9
:103CF800952B0AD1013D2046FFF711FEA6F11E03C0
:103D0800012B56D82F46AA4619E0962BF6D127F054
:103D1800FF072046FFF703FE47F092074F60D7E7FB
:103D2800962A08BF0135E9E71E2E35D1FFF786FF31
:103D3800B0B90846FFF774FF002808BFCA460AF161
:103D4800FF396FB1013F20463946FFF7EFFD236980
:103D580062690146A3EB0A0342F82300002FE3D16E
:103D68000021894520D1A5EB0905012DB0D0A6F188
:103D78002303DFB2092F00F29881092B00F2A881F2
:103D8800DFE813F0860086008600C200C200C20089
:103D9800FD008600A6014901FFF742FF0028DFD198
:103DA8000846FFF74BFFC7E720460131FFF7B7FD8D
:103DB800D7E7202E1BD100212046FFF7B7FD02468A
:103DC800FFF72EFF80B91046FFF738FF0028CED046
:103DD800FA212046FFF7A3FD204607B0BDEC028B71
:103DE800BDE8F04FFFF7E9BD4FF48D71F1E7052EFF
:103DF800BDD100212046FFF799FD0746002800F0B5
:103E0800FC8010F0030B05D1436803F0FE03562B2A
:103E180000F0F38001212046FFF788FD00F00F0332
:103E2800022B40F0EA80BBF1000F40F0E6803B79BE
:103E38002C2B40F0E280BB6803F00F02022A40F00E
:103E4800DC801B09482B40F0D880FB68002B00F071
:103E5800D4809A0740F0D1801A79302A40F0CD807A
:103E6800D3F808A04FEA10195046FFF7E7FD0028DD
:103E780040F09F80AA49AB480CF07CFDA16905463B
:103E88005B463A6809680CF047FE2846FCF728FAB2
:103E9800691E2046FFF74AFD03A9FFF7DFFE70B34E
:103EA800022FA5F1020996BFA6F10D072227FFB23E
:103EB800B9F1000F09DA002D40F0EC80039AD3071E
:103EC80040F1ED8042F0010186E749462046FFF7C0
:103ED8002DFD04A9FFF7C2FE88B1222F049A07D04E
:103EE8000399384609F05CFD09F1FF390390DFE7D3
:103EF800104601920DF0F0FE0028019AF0DA362EF5
:103F080000F0DD80332ED9E0691E2046FFF70EFD54
:103F180003A9FFF7A3FE0028F1D0A5F10209B9F122
:103F2800000FC8DD09F1FF312046FFF7FFFC04A9A7
:103F3800FFF794FE0028E2D049462046FFF7F6FC3A
:103F4800C0F307104328DAD04528D8D02538049A7A
:103F5800C7B2104601920DF0BFFE1A2F019A09D878
:103F68000028CCDB0399384609F01AFDA9F10209AB
:103F78000390D4E71E2FF5D90028F3D1BFE700211D
:103F88002046FFF7D3FC03A9FFF768FE002800F0DE
:103F9800C48001212046FFF7C9FCC0F3071003992C
:103FA800342816BF40380220C0B208F07BFF0390C7
:103FB80081E750464FEAC901FFF764FD0746012231
:103FC80041F0020118EE100A0AF072FA47604846FA
:103FD800FDF759F8027820465F2A08D10025FFF737
:103FE8009EFC20460826A846FFF799FC86E6FFF7C0
:103FF80096FC51462046FFF7E0FCA91C20468900A4
:10400800FFF79BFC074646EA052300F10801C0F8C4
:104018000080436077E001212046FFF787FC0746D0
:1040280000212046FFF782FC07F00F03022B7FF4E4
:1040380069AF00283FF466AF10F003027FF462AF67
:104048000379322B7FF45EAF3909D0F808903648EF
:10405800C90041F002010AF02BFA00283FF452AFE0
:1040680004AA4FEA1911406808F046FE049B002B89
:104078003FF448AFD90707D49A077FF443AF1968CC
:104088002A4A91427FF43EAF059A002A7FF43AAF5C
:10409800039310E72046013DFFF741FC0BE7294653
:1040A8002046FFF77EFC014696E6922E10D1D4E911
:1040B800012303EBC20313F8053C2D2B9DD12A469F
:1040C80041462046FFF706FD00287FF401AE94E73D
:1040D800962E22D1D4E9012303EBC20313F8153C31
:1040E8002D2B8AD12A4641462046FFF7F3FC0028AB
:1040F80083D06368023B6360EAE5013D2046FFF731
:104108000EFC41F82500002DF7D1962E03D1394633
:104118002046FFF752FC39465EE6062ECFD0EEE683
:1041280094230608104206080C240608904806083E
:10413800036830B55BB19C070BD15C68E5B28D4272
:1041480007D103F10800230A1060184630BD18464D
:10415800FAE70123F8E700002DE9F04F93B00024B7
:1041680040230D4601904FF400700092CDE90534CC
:10417800FCF7DAF8202307908020CDE90834FCF713
:10418800D3F82146CDE90A050FA8CDE90D440AF078
:1041980059F9009B002B49D0022B0CBF3F22224625
:1041A8000027DFF8CCA20023696C05A8FFF71CFCE8
:1041B800069C002C00F05E81013C0799A74E01EB9C
:1041C800C40351F834100694DA78C1F31709A449E6
:1041D800632A5B6811F802B0A2490BF00F08895CEA
:1041E80088BF41F4807106EB41060BF030011029BD
:1041F8001ED0202949D0002F00F00281B8F1020F0B
:1042080040F0F180012B19D000211BF0010F03F1C0
:10421800FF3006D074880AEA0404B4F5805F08BF4A
:104228005808012800D101B30346AAE03D22B7E7A8
:1042380003B1D7B106EB4306984501D80127B7E784
:10424800374636F8021B01EA0A00B0F5805F0ED146
:1042580095F84C00C1F30B01884214D105A811460A
:10426800FFF77AFC2846FEF78BFF0027A0E701330B
:10427800434503D2494605A8FFF7B6FB398805A888
:10428800FFF7D3FBF1E70133D6E78FB103F1004124
:10429800013936F811100AEA0101B1F5405F1DD164
:1042A800002105A8CDE90232FFF787FBDDE90232DC
:1042B80006EB4304984525D8009B0BB1052A47D047
:1042C800002406EB48082746B0455FD1012F7ED170
:1042D8001BF0400F7BD00026314672E0012BADD990
:1042E80095F84C30072B40F0F3805F495F480CF09D
:1042F80041FB044600236A6C29680CF00DFC20463B
:10430800FBF7EEFF274634F8021B01EA0A00B0F576
:10431800805F1BD1C9B295F84C00884212D1092898
:1043280007D1114605A803930292FFF715FCDDE9B2
:1043380002232846CDE90232FEF722FF029B039AA8
:104348000133B7E7002B3FF479AFC9E7013391E7B1
:10435800002105A8FFF7EAFA0028B1D1012105A834
:10436800FFF7E4FA830700F0C18000F00F0002288D
:10437800A6D005A8FFF7D3FA05A8FFF7D0FA0023BF
:104388000822494605A8FFF78BFC6EE738F8023D7E
:1043980003EA0A01B1F5805F05D1DBB2092B93D19D
:1043A8000134013790E7214605A8FFF7BFFA00B1AD
:1043B8000137013488E7FFF7B2FA0136002818BF41
:1043C8000146A64205A8F6D1FFF7F7FA4DE71BF01C
:1043D800800F06D0002105A802920134FFF7EDFAFC
:1043E800029A2346CDE7012B3FF428AF13F00101D1
:1043F8003FF40BAFB8F1030F7FF472AF012104E76C
:1044080008EA030101F0010136F8114004EA0A0044
:10441800B0F5805F17D1C4F30B0495F84C00A042A7
:1044280003F101040DD129B9114605A80292FFF73D
:1044380093FB029A28460292FEF7A2FE2346029AAE
:10444800DEE72346DAE6494605A80133FFF7CCFA4A
:10445800214605A8FFF7E9FAAAE600BFF8240608EE
:104468004824060880280608A0230608043F0608F2
:1044780000F0FFFF0FA809F0F9FF0E9850B141684E
:1044880022460831FBF776FF0E9B5A681A600D9A90
:104498005A600D9395F84C30002B7FF421AF099B9F
:1044A800002B3FF41DAF0A9B07981B680C93FBF782
:1044B80063FF0A98FBF760FF2846FFF719FA019B8C
:1044C800DDE90C0183E80300184613B0BDE8F08F5E
:1044D800022B01D1094909E7042B02D108490948EF
:1044E80005E7052B0CBF08490849F8E700283FF401
:1044F800E7AE03793A2B3FF43CAFE1E6B223060876
:10450800D423060810420608E7230608FC230608F9
:10451800406810B500B910BD4468FBF72DFF204670
:10452800F8E70000F8B5054630200E461746FBF7B9
:1045380014FF072D04460570C66001D0012D0FD168
:10454800B368C3F30F13A38207F0F0FF04232061BD
:1045580020202783E384FBF7E7FEE0622046F8BDCE
:10456800014B5B5DEFE700BF3029060810B5044634
:10457800C06AFBF701FF2046BDE81040FBF7FCBE10
:1045880030B50022048D944202D80023184630BD6D
:10459800C36A03EBC2035D688D42F7D00132F2E7CC
:1045A80070B504460D461646FFF7EAFFC0B9E38C1E
:1045B800228D9A4208D30633E06AD900FBF7CFFE72
:1045C800E38CE0620633E384238DE26A591C02EB34
:1045D800C300218502F8336000234560437043809F
:1045E80070BD034618465B68002BFBD1FFF7C8BFB8
:1045F800F8B544680E462CB9F8BD042BFCD1052348
:104608000370F9E7254628466D68002DF4D07768D1
:104618003946FFF7B5FF0028F5D00378043B022B95
:10462800EAD806253570002239462046FFF7B8FF3C
:104638000378002BE1D105706468F4E7036A1B8BEB
:10464800012B1EBFC368C918C1607047836A10B5C3
:104658000446DB6F406A9847238B226A0133918CAA
:104668009BB29942238338BF938410BD038B013BCF
:1046780010B503830446836A406AD3F884309847A8
:1046880020460121BDE81040FFF7D8BFF7B51E4608
:1046980059B111F0030511D14F68FCB294420DD104
:1046A8003F0A01F10804BD4201DB03B0F0BD54F834
:1046B800041B01350190B0470198F4E7334603B075
:1046C800BDE8F04018472DE9F04F04460D469846DE
:1046D8002DED028B08EE102A83B01BB1CB8A43F074
:1046E8000803CB8218EE103AEB83236ADA8A42F089
:1046F8003002DA821B78002B4CD1A36A18EE102AFC
:104708002946606AD3F8B4604346B44603B0BDECAA
:10471800028BBDE8F04F6047DB6A03EBC60B13F86A
:104728003630053B012B1DD84FF0000917E0EB6A26
:1047380003EBC90213F83930062B0ED1DBF804104D
:104748005368994209D1A36A0AF1010ABBF8022009
:104758005B69606A1F460023B84709F101092B8D80
:104768004B45E4DC0136236A1A8DB242D4DCD4E925
:104778000903BAF1000FC0D0CDF800805246D3F833
:10478800B840294618EE103AA04703B0BDEC028B9A
:10479800BDE8F08F0026B246E5E70000F8B50E4602
:1047A80011461A4600230446857807698370036119
:1047B8000E4BFFF76BFF6368BBB9618A51B1228A60
:1047C80042B9A36A606AD3F8A0309847A36A606ABE
:1047D8005B6C9847238A3146628A2046FFF773FF4D
:1047E800003D276118BF0125A570F8BD2D510008AF
:1047F800024B9D228968FFF749BF00BFD96D0008A9
:10480800024B6B228968FFF741BF00BFE56A0008C9
:10481800836A002110B50446D3F88830406A984767
:10482800A36A606A10215B6B9847A36A606A0121DA
:10483800D3F8CC30984720460321BDE81040FFF755
:10484800FDBE38B5836A04460022406A9B6C9847CF
:10485800A36A606AD3F8C05000231A461946A847CD
:104868002046BDE83840FFF7D3BF836A0022896835
:104878005B6D0909406A1847836A89681B6C406A3E
:10488800184710B50446084611461A46FFF74AFE6F
:10489800236A436000238360E3690BB9E06110BDBC
:1048A8001A469B68002BFBD19060F8E770B54378F7
:1048B80005460C46012B06D1036A0A4602211B8BCA
:1048C800FFF7DFFF2061A268284621694C23BDE875
:1048D8007040FFF763BF70B51346427805460C4633
:1048E800012A04D10A460721FFF7CBFFA061A66978
:1048F80028464623E2683146FFF750FFB08A70BD6C
:104908002DE9F04F85B005460C4600AF11B90121DD
:10491800116015E011F003081BD10B79682B07D142
:10492800CB681B0913608C68002CF0D04FF001088D
:1049380004F00F03022B0FD12109B8F1000FE7D0C3
:10494800AB6A0022686A1B6B98471437BD46BDE8FE
:10495800F08F4FF00008EBE7B8F1000F02D1A36821
:104968001B091360666804F1080A360AD14606F185
:10497800FF3B0AEB860659F8040B0009FCF778FBA5
:10498800B1458344F7D10BF1070323F00703ADEBDF
:10499800030D6B4699465AF8040B07F10C013B606E
:1049A8000009FCF77CFBFA68014648467A6021F06A
:1049B800C3F87A68B2453B68914418D159461846FD
:1049C800FCF7A2FAAB6A014600221B6B686A98479B
:1049D800B8F1000FB9D00C34A642B6D054F8041B75
:1049E8000022AB6A0909686A5B6D9847F4E74FF0E3
:1049F8002E0209F8012BCEE731B101F003038268DA
:104A0800134304BF0B6883607047000038B54368E0
:104A18000D46044611464BB905480BF0ABFF294635
:104A280060602046BDE83840FFF7E6BF38BD00BFEC
:104A380010420608014AFFF7E9BF00BF37290608F8
:104A48000B79092B4FF6FF7370B508BF858A0446AA
:104A580018BFC58A9D4202D1064AFFF7D7FF218BAE
:104A6800628BA36A8A1A606A29469B6FBDE8704008
:104A7800184700BF4429060813B50446B9B101F028
:104A88000F03022B0FD10A091046019209F048FBC7
:104A98000028019A05DA074907480CF001F8606018
:104AA800002002B010BD054AFFF7B0FFF8E708463E
:104AB800F7E700BF5D2906083C4306086229060897
:104AC80010B404460B46006A6278012A03D15DF8E7
:104AD800044BFFF765BDA16A0246606A14315DF8B0
:104AE800044B02F04FBE000070B505460C46002985
:104AF8002DD0CA0706D5836A49109B6B686ABDE842
:104B0800704018478B0716D004F00F040909022CCF
:104B18000AD0062C0CD0062919D0836AC9B2406A7B
:104B28005B6BBDE870401847BDE87040FFF7C8BF31
:104B3800836ADB6BE2E7836A09681B69406A984706
:104B48002279034B2146284653F82230D7E770BD17
:104B5800482B06082DE9F74F04460D4616461F4612
:104B68002846FFF75DF820B1CEB9A36A3946DB6E57
:104B78004CE02846FFF762F808B186B1F5E7002D4A
:104B880055D0AB0753D16B684FEA132BDBB21E2B02
:104B98001BD1F6B1083505EB8B0B5D450DD103B084
:104BA800BDE8F08F43465AF8041B2046019209F1EC
:104BB8000109FFF7CFFF019A19E03B46324655F845
:104BC800041B2046FFF7C6FFE7E71F2B23D1002E63
:104BD800E0D0D4F80C8005F1080A4FF0000986F0FF
:104BE800010208F10103E3600BF1FF330093009B1E
:104BF8004B45D7DC0BF101013B463246204655F8C0
:104C08002110FFF7A7FFA36A4146DB6A606A03B079
:104C1800BDE8F04F1847202B03D1AD6886F0010698
:104C28009EE72D2B03D1AB68002BA6D19CE7294624
:104C38002046FFF759FFA36A3A4631461B6F606A60
:104C480003B0BDE8F04F1847026A38B51278044639
:104C58000B46072A06D0022A04D0154ABDE8384078
:104C6800FFF7D4BE9D6885B9A36A1021606A5B6BA3
:104C78009847A36A0021606AD3F8CC309847204649
:104C88000121BDE83840FFF7D9BCAB070BD12B7920
:104C9800AF2B08D12046A968FFF726FF2046BDE8BC
:104CA8003840FFF7B5BD29462046FFF71DFFE0E76E
:104CB8007229060870B5437804461546CE68012B5C
:104CC80006D1036A0A4629461B8BFFF7DAFD706195
:104CD8000023716920461A46FFF7F5FCF168204663
:104CE800FFF702FF062D05D1A36A0021606AD3F8F9
:104CF80088309847A36A0121606AD3F8BC50002322
:104D0800AC461A46BDE87040604738B505460C46C3
:104D1800C968FFF7E9FEA1682846BDE83840FFF7F3
:104D2800E3BE0B79342B70B504460D4610D1896863
:104D3800FFF7DAFEED68AD6885B9A36A1021606AED
:104D48005B6B9847A36A04220221D3F8A0301AE0CB
:104D5800836A1021406A5B6B9847ECE7AB071FD169
:104D68002B799A2B13D1A36A1021606A5B6B984741
:104D7800A9680029E6D02046FFF7B6FEA36A0422F8
:104D88000321D3F8A030606ABDE8704018479B2B18
:104D980006D1A9682046FFF7A7FEEB689968E8E7FF
:104DA80029462046FFF7A0FECCE710B504468968DF
:104DB800FFF79AFE0021A36A606A1B6DBDE81040E8
:104DC800184700002DE9F7438D68044616465DB97B
:104DD800002A75D0836A02222946D3F8A030606A77
:104DE80003B0BDE8F043184715F0030740F08A8088
:104DF8002B79372B13D132B1836A02220121406A01
:104E0800D3F8A030984720462946FFF76DFEA36ADD
:104E1800606AD3F8A43003B0BDE8F04318479F2B6D
:104E280070D1EB681A79A12A5AD1A22101AA03F1FB
:104E38000800FFF77DF9A968804621B38B0722D1C6
:104E48000B79372B1FD136B1A36A411C0222606A45
:104E5800D3F8A0309847A9682046FFF745FEA36A13
:104E68004FF00109606AD3F8A4309847474510D13C
:104E7800B9F1000F24D1A36A0322791C606AD3F820
:104E8800A03098471CE020464FF00009FFF72CFEA1
:104E9800ECE7019B53F82710A9B18E0713D10E79BF
:104EA800A6F13700464246412046FFF71DFEB9F1FC
:104EB800000F11D04EB9184A29462046FFF7A6FD23
:104EC80003B0BDE8F0830026EEE7A36A606AD3F872
:104ED800A43098470137C9E7002EFBD00F4AEBE70B
:104EE800AB685BB19A0709D11B79372B06D104222D
:104EF800294603B0BDE8F043FFF7DCBE052229468A
:104F08002046F6E729462046FFF7EEFDA36A03226E
:104F18000121D3F8A03062E77D2906088E2906080A
:104F28000122FFF74FBF70B50D46C9680446FFF769
:104F3800DBFDA968A36AC1F30711606AD3F898304A
:104F4800342916BF40390221C9B2BDE8704018475C
:104F5800F8B54F680C46002689683F0A0C340546A8
:104F6800FFF7C2FD02360834B74200DCF8BD54F83A
:104F7800041C2846FFF7B8FD54F8081CAB6A090959
:104F8800686AD3F89C302539C9B29847EAE72DE911
:104F9800F0414E680C4601278968A6F10D080C34CB
:104FA800360A05465FFA88F8FFF79EFDB74201DB2F
:104FB800BDE8F08154F8041B2846FFF795FDAB6A5D
:104FC8004146686AD3F89C3001379847EEE72DE9E7
:104FD800F0414E680D4689680446360A0127FFF7F6
:104FE80083FD032E89BFD4F80C804FF0000808F128
:104FF8000103E3607B1C9E4222DC032E55DDE5683D
:10500800606A6B1C2946E360A36ADB6E9847A36A53
:105018004146606ADB6A9847A36A0121606ADB68D7
:105028009847A36A606A5B6E9847A36A606A1B6EBA
:105038009847A36A2946606ADB6ABDE8F0411847C9
:10504800023729692046FFF74FFDB74207DAA36AFE
:10505800606A9B6D9847A36A606A9B6E9847EB6885
:10506800A26A03F00F01606AD2F89C200A2911D1C4
:10507800C3F30713262B16BF353B0621D9B2904739
:10508800B74205DAA36A42460021606A5B6F984717
:105098000835AFE71979852901D13221EFE79B68F7
:1050A8000BB90721EBE73321E9E7BDE8F08110B53B
:1050B80004468968FFF718FD0321A36A606AD3F8DC
:1050C8009830BDE8104018472DE9F0474E6804466F
:1050D800D0F80C8001F108055FFA86F90027360A36
:1050E800A9F11E03D3F1000949EB030908F10103F3
:1050F800C360B74206DBA36A4146606ADB6ABDE863
:10510800F0471847013755F8041B2046FFF7ECFC19
:10511800B742F0DAA36A42464946606A5B6F98472D
:10512800E7E7000001F00F03022B70B504460FD02B
:105138000B79492B01D04F2B02D10123A37070BDED
:105148004A2BFCD0502BFAD0482B0DD10D696DB9E4
:10515800A378002BF3D1638A002BF0D020461D4A98
:10516800BDE87040FFF752BCCD68F0E7A3788E68C1
:105178003BB3238A01339BB2012B23820ED1618A70
:10518800D4E90903D1B1D3F8A03000229847A36A23
:1051980002220021606AD3F8A030984729462046A9
:1051A800FFF7A2FCA36A606A3109DB6B9847A36A20
:1051B800606AD3F8A430BDE8704018475B6C984724
:1051C800E5E7638A2946204601336382BDE87040DB
:1051D800FFF78ABC9B2906082DE9F041C5680446FB
:1051E800D1F80C800E46AB1C0022D8F808106F1CB2
:1051F800C3602B46FFF7AEFCB1682046FFF774FC8E
:10520800A36A3946606ADB6E9847A36A2946606AD2
:10521800DB6A9847A36A606A4FF0FF31DB689847FA
:10522800D8F80C102046FFF75FFCA36A3946606A7D
:10523800DB6ABDE8F04118472DE9F047C668044627
:10524800D0F814A00D46B31C06F10108B0F81A9066
:10525800C360038B8682A0F8168043838868FEF7B4
:10526800DFFCF8B9E768A8687B1CE360FEF7E6FC9A
:1052780020B9A36A4146606ADB6E9847A36A39463B
:10528800606ADB6A9847E9682046FFF72DFCA36A45
:105298004146606ADB6A98473B460122A968204676
:1052A800FFF758FC29692046C4F814A0A4F81A90FE
:1052B800FFF71AFCA36A3146606ADB6ABDE8F0476B
:1052C80018472DE9F347C66804460D46731CC360AA
:1052D8008868FEF7A5FC024610BBE7682046A96867
:1052E8007B1CE3603B46FFF735FC2046E968FFF787
:1052F800FBFBA868FEF7A2FC00BB2B690BB96B6926
:105308004BB1A36A606A9B68984720B9A36A314683
:10531800606ADB6E9847A36A3946606ADB6A984719
:1053280001AA712105F110000027FEF701FF81464F
:105338004F450BD169692046FFF7D6FBA36A314672
:10534800606ADB6A984702B0BDE8F087019B53F8B2
:105358002780D8F80800FEF763FC024620BBD4F883
:105368000CA02046D8F808100AF10103E360534660
:10537800FFF7F0FB2046D8F80C10FFF7B5FBD8F87C
:105388000800FEF75BFC0028D8D1A36A606A9B6816
:10539800984720B9A36A3146606ADB6E9847A36ACA
:1053A8005146606ADB6A98470137C1E770B58D6876
:1053B80004463DB9836A2946D3F8C830606ABDE817
:1053C80070401847AB070ED12B795E2B0BD1A9681B
:1053D800FFF78AFBE9682046FFF786FBA36A0221EC
:1053E800D3F8C830EAE729462046FFF77DFBA36AD1
:1053F8000121D3F8C830E1E710B504468968FFF702
:1054080073FBA36A606A1B6EBDE8104018472DE95C
:10541800F0414E6801F108040546360A04EB860798
:10542800BC4208D1AB6A3146686A0022D3F8A03082
:10543800BDE8F041184754F8041B2846FFF754FB11
:10544800EEE78968034610B441B9826A406AD2F827
:10545800A0400A4623465DF8044B18474A68120ADA
:10546800022A0BD1CA684AB1940707D11279AC2A2B
:1054780004D106225DF8044BFFF71CBC18465DF802
:10548800044BFFF7C4BF4B682DE9F04105460E46B3
:105498001F0A01F108080024BC4201DBBDE8F081C5
:1054A80058F8041B2846FFF71FFB6B683BB1023412
:1054B800284656F82410BDE8F041FFF79DBA01349C
:1054C800EAE710B50446FFF7DEFF2221A36A606A07
:1054D800D3F89C30BDE81040184770B58D68044675
:1054E80045B9836A01222946D3F8A030606ABDE82D
:1054F80070401847A9071ED16B68DAB2922A1AD1F0
:105508001B0A022B0CD1EB6853B19A0708D11B79FF
:10551800AC2B05D129460322BDE87040FFF7CABB72
:1055280029462046FFF7AFFF6968A36A0122090AE6
:10553800D3F8A030DAE729462046FFF7D5FAA36A60
:105548000122D3F8A0301146D0E70000184B2DE90E
:10555800F041D3F8147204460D463FBBC6680122D9
:105568008968731CC3603346FFF7F4FAA36A1F21E6
:1055780001229B69606A9847E96851B12046FFF7A4
:10558800B3FAA36A3A460121D3F8BC503B46606A95
:10559800A847A36A0121606AD3F8C8309847A36A6C
:1055A8003146606ADB6ABDE8F0411847BDE8F08122
:1055B80060000024026A2DE9F04112780446072AA7
:1055C80004D01B4ABDE8F041FFF720BA8D685DB9E9
:1055D800836A1021406A5B6B9847A36A606AD3F8B4
:1055E800C430BDE8F041184715F003021DD12B79EE
:1055F8001B2B1AD1C668EF68731CB968C3603346A1
:10560800FFF7A8FAA9682046FFF76EFAA36A606A4E
:10561800D3F8C4309847A36A3146606ADB6A984772
:10562800F9682046FFF760FAD7E72946F9E700BF8F
:10563800B929060810B4026A044640780B460128C6
:1056480004D110465DF8044B02F08DB8A16A606A77
:105658001C315DF8044B02F095B800008B072DE96A
:10566800F14F04460D46164611D001F00F03022BE8
:1056780016D1D7074FEA111104D401B0BDE8F04F95
:10568800FFF7D8BF01B0BDE8F04FFFF719BA496876
:10569800CBB22D2B7BD00BD8062B0DD02C2B12D0B8
:1056A8004E4A2946204601B0BDE8F04FFFF7AEB993
:1056B8002E2B7FD09D2BF3D1002EF1D105F10802BE
:1056C800090A20467BE0022A02D0A968FFF70CFAF3
:1056D800EF68002FE4D017F00309E1D17B68B846E2
:1056E800DAB28E2A0DD1022E4FEA132805D007F11F
:1056F800080A08F1FF3BD94511DB08F1010857F802
:10570800288098F80430312B24D1022E0FD1A36AB7
:10571800606A9B6E9847A36A1B6D012115E05AF8D1
:10572800041B204609F10109FFF7DEF9E3E7D8F881
:1057380008102046FFF7D8F9012EA36AECD1DB6DDB
:10574800606A9847A36A00211B6D606A01B0BDE8D2
:10575800F04F1847322BA3D1012ED4E909030CD1FD
:105768009B6D9847A36AD8F8081000225B6D090959
:10577800606A01B0BDE8F04F1847022E01D15B6E98
:105788009847A36A0122D8F808105B6DEFE7AA686A
:10579800002A85D0002E83D15168090A022907D131
:1057A800D3682BB1980703D11B79AC2B3FF478AFA2
:1057B800083286E7002A7FF473AFA96821B901B0DF
:1057C800BDE8F04F00F074B88E0703D10B790A4694
:1057D800922BE1D005F10802012172E7C5290608DC
:1057E8002DE9F047C7681E4604460D46BB1C3946DE
:1057F800904607F10109C360836A406ADB6A9847EB
:10580800A36A4946606AD3F88C309847A968002291
:105818002046FFF723FF2D69002D2DD14146204654
:10582800FFF762F9236A1978A36A06291DD1D3F80C
:10583800CC302946606A984720460121FEF7FEFED3
:10584800A36A606A1B6E9847A36A3946606ADB6E72
:105858009847A36A606A4946DB6A9847A36A606A00
:10586800D3F89030BDE8F0471847B200D3F8A83015
:10587800606A05329847E7E72B79AD2B07D1A9680D
:105888003B4600222046FFF765F9ED68C4E7E96862
:105898002046FFF729F9A36A606A0121D3F8883006
:1058A8009847731C424629462046FFF799FFCBE7E5
:1058B8002DE9F84304460D46904601F1FF390026CC
:1058C8004FF0FF37B9F1FF3F0CD17B1C05D1A36A1C
:1058D8002946606AD3F8AC3098470026AE421DD1FD
:1058E800BDE8F88358F8261071B18A070CD10B79F6
:1058F800222B09D101370BD1A36A37464A463146D4
:10590800D3F8B030606A9847013609F1FF39D9E712
:105918002046084ABDE8F843FFF778B858F826103B
:10592800B7424FF00002204608BF89680136FFF7EA
:1059380095FED3E7D92906082DE9F7430446904692
:1059480099460F4629B9194603B0BDE8F043FFF759
:10595800CBB8C668731CC36015684DB315F0030255
:1059680026D12B797B2B23D1A9680192FFF7BCF8AC
:10597800019A31462046FEF769FE019AE9682046F9
:10598800FFF76CFE4B4608F10402791E2046FFF72C
:10599800D3FFA36A3146606AD3F880309847032161
:1059A8002046FEF74BFE03B0BDE8F043FEF75EBEAF
:1059B80029462046FFF798F8204600223146FEF790
:1059C80045FEA36A606A1B6E9847DBE737B50C464D
:1059D800054601AA7A2104F10800FEF7A9FBE3684D
:1059E8000146019A2846FFF7A7FF03B030BDD1E969
:1059F80002232DE9F04F02F00F0204460E46022A58
:105A08002DED028B87B040F00481002B00F001815E
:105A1800980740F0FE801A792C2A40F0FA809A689C
:105A280002F00F01022940F0F48012097C2A40F0AC
:105A3800F080DB681A79302A40F0EB809B6805AA71
:105A4800A42104A80493FEF773FB431E022B00F263
:105A5800E080059B01281A6800F0CD80022800F03C
:105A68002E819D68E90740F1D480690800F0D18053
:105A7800D3F804A032B1930704D11179A6390229C9
:105A880040F2C780BAF1000F08D01AF0030F05D111
:105A98009AF80410A639022940F2BB80B3681AF0BC
:105AA800010B776908EE103A3369218B08EE903ABA
:105AB8006369E6680293638B06F10208618306F165
:105AC8000401019306F1010306F10309A682039379
