:020000040800F2
:10000000F8770010D18603087FF302086DF3020829
:1000100081F3020891F30208A1F302080000000036
:10002000000000000000000000000000B1F3020822
:10003000B3F3020800000000150203084D02030894
:100040005D85030833F402083DF4020845F4020814
:10005000A57503085D850308C1F30208C7F302080C
:10006000CDF30208D3F30208D9F3020835220308BE
:100070004522030855220308652203087522030858
:1000800085220308952203085D8503085D85030822
:10009000FD3E0308033F0308093F0308DFF302089E
:1000A00059F402085FF4020871F4020877F40208B8
:1000B0007DF4020883F4020889F40208E3F40208DC
:1000C000E9F40208EFF40208F5F402085D8503087C
:1000D0005D850308BFF40208C5F40208CBF40208EA
:1000E00003F4020837F402085D8503085D85030800
:1000F000B5F402085D850308BBF402085D850308BA
:100100005D8503085D85030891F402085D85030899
:10011000D1F40208D7F40208A9F40208AFF40208E7
:10012000A5220308B5220308C5220308D522030827
:10013000E52203085D8503085D8503085D850308E6
:100140005D8503085D8503085D850308B5F3020836
:10015000F522030805230308DDF402085D85030882
:10016000FBF4020801F502085D8503085D850308BC
:100170005D8503085D8503085D85030800000000B8
:080180005D8503085D8503089D
:10018800024B5A6902605861002070478C000020B9
:10019800024B5A6912685A61704700BF8C000020F0
:1001A800C460056146618761C0F81C80C0F8209072
:1001B800C0F824A0C0F828B0C0F82CD080ED0C8B73
:1001C80080ED0E9B80ED10ABC0F808E0FFF7D8BFBC
:1001D800104908B54B690BB92EF0BCFE1A68586077
:1001E8004A611846C468056946698769D0F81C8061
:1001F800D0F82090D0F824A0D0F828B0D0F82CD08F
:1002080090ED0C8B90ED0E9B90ED10ABD0F808E0C4
:10021800012070478C00002010B50021044600F032
:10022800B3FA18B914B120460DF072FA10BD0021C6
:1002380000F0AABA10B50121044600F0A5FA18B9D1
:1002480014B120460DF064FA10BDFFF7E5BF10B5F4
:1002580001220C4600F0AAFB18B914B120460DF093
:1002680057FA10BD00F0A2BB00F062BB2DE9F043C5
:100278002A4C00254FF0030CD4F89C620021013170
:1002880043189A0803F00303B25C5B0042FA03F3D5
:1002980003F00303022BF2D0D4F8A832090103EBD0
:1002A80000104FEA910E81B300EB8E0E03681A0717
:1002B80028D1D4F8A8229A4224D89A1AC2F3011154
:1002C8004F00D4F8AC1299424FEA92164FEA121234
:1002D80018D9D4F89C9219F8068048FA07F303F065
:1002E8000303012B0ED10CFA07F148EA010804EBCD
:1002F80045013F2D09F806809ABF0135A1F8B422BF
:10030800C4F8B03204307045D0D12DB1013D04EBB2
:100318004503B3F8B402AFE7BDE8F0838C000020D2
:1003280030B51C4CD4E9A953C01AC109C0F3021E48
:100338006B5C012202FA0EF223EA02036B54D4F832
:10034800402383094FEA101CB2EB901FD4F89C029B
:1003580088BFC4F84033C15C4FEA9C0E0CF003031D
:1003680003255B0005FA03F321EA030100F80E10E8
:100378000CF1010CD4F89C024FEA9C0E0CF003031C
:1003880010F80E105A0041FA02F202F00302022A93
:10039800E7D030BD8C00002021F00F0138B5154A98
:1003A800154D0C1AE400A2FB0424640A03462344F6
:1003B800C5F8A4322246A1EB8413C5F8AC1200217B
:1003C800C5F8A832C5E9A70423F044FEA200073205
:1003D800D2080021D5F8A40223F03CFE0023012115
:1003E8004FF0FF32C5E9CE32C5F840332B81A5F86E
:1003F800341338BDF32C23FA8C000020024A1389E9
:1004080001331381704700BF8C000020024A138912
:10041800013B1381704700BF8C000020024B1889F4
:10042800003818BF012070478C000020F8B51C4D1B
:100438002B8900220133C5F838232B81C5F8B02257
:1004480005F1080405F5F876032754F8043F1A0760
:100458001AD1D5F8A822934216D3D5F8AC029A1A25
:10046800C2F3011183424FEA921C4FEA41014FEA5D
:10047800121209D2D5F89CE21EF80C0040FA01F3DA
:1004880003F00303012B02D0A642DED1F8BD07FA20
:1004980001F108430EF80C001046FFF7E7FEF3E7FA
:1004A8008C000020A9B32DE9F8431A4F0E46051F0A
:1004B80000244FF0030855F8043F1A0704F101041B
:1004C80019D1D7F8A8229A4215D89A1AC2F301115D
:1004D8004800D7F8AC1299424FEA921C4FEA121220
:1004E80009D9D7F89C9219F80CE04EFA00F303F0FA
:1004F8000303012B03D0A642DDD1BDE8F88308FA37
:1005080000F14EEA010E09F80CE01046FFF7AEFEC6
:10051800F1E770478C0000202DE9F04F574ED6F8D0
:10052800A032D6F8B02285B09800C2B10025C6F82E
:10053800B052002843D00024D6F89C12A30804F037
:100548000302CB5C5200134103F00303032B3FD09B
:1005580001348442F0D3D6F8B032002BE7D170B31F
:100568004FF0000C654603274FF001094FF00208D1
:1005780004E0012B4AD00135854220D2D6F89CE20E
:100588004FEA950A05F003041EF80A20640042FAAF
:1005980004F303F00303022B0EEB950128D0032B81
:1005A800E7D108FA04F422EA04020EF80A20D6F881
:1005B800A0320135980085424FF0000CDED3338914
:1005C8000022013BC6F84023338105B0BDE8F08F17
:1005D8002046FFF74BFED6F8A0320134B4EB830F68
:1005E8004FEA8300A8D3D6F8B032002B9FD1B6E7E4
:1005F800BCF1000FBFD007FA04F422EA04040C701F
:10060800D6F8A0324FF0010C9800B4E7D6F8A4024F
:10061800EB0805F0070B10F803E0019300EBD50C8D
:100628004EFA0BF0C307E6D5D6F8A80229014158BF
:1006380000EB0510A9B102AAB1210CF033FADDE9EB
:10064800013242B10DF0CEFADDE902010DF09AFA5D
:100658000DF0DEFA019BD6F8A42212F803E002EBB3
:10066800030C09FA0BFB2EEA0B0E8CF800E0D6F807
:100678009C1211F80A205144BDE700BF8C000020ED
:10068800044B1A8900210132C3F8B0121A81FFF70E
:1006980043BF00BF8C0000203A4A2DE9F047D2E959
:1006A800AA410023091BD2F89C620160D2F8A0126B
:1006B800C0E90133C0E90333C0E905334FEA810CCF
:1006C8001D469E461F461C461A4699461946984698
:1006D80016F8093049000B4103F00303012B47D0FA
:1006E800022B41D0002B38D0013294450ED04FEA6E
:1006F800920902F0030116F809304FEA410A43FA59
:100708000AF313F0030301D0012BE1D1012C11D01E
:10071800022C02D14169013141618169A14238BF8E
:10072800846194450FD0012B26D04FEA920902F03C
:100738000301CDE70169013101618169A14238BF37
:1007480084619445EFD1474500D9C7602D014FEA30
:100758000E13C0E90153BDE8F0870EF1010EC0F891
:1007680008E001371C46BFE7013545600134BBE7A7
:10077800013545601C46B7E7B84501D2C760B846A1
:100788000027D2E78C0000200F302DE9F843060936
:1007980050D0664C2389002B4CD1B4F83433002B4D
:1007A8000D460CBF4FF0010E4FF0000E46D1D4F8A5
:1007B8004003D4F8A072874239D9D4F89CC2411EAC
:1007C800614400221AE00132964252D913F00C0F0C
:1007D8001ED10132964240F29F8013F0300F1CD197
:1007E8000132964240F29B8013F0C00F1AD10132B9
:1007F800964240F297800130B84218D211F8013F72
:1008080013F0030FDFD013F00C0F4FF00002E0D00D
:1008180013F0300F4FF00002E2D013F0C00F4FF08A
:100828000002E4D00130B8424FF00002E6D3BEF136
:10083800000F13D000231846BDE8F883D4E9CE236F
:100848009A42B4D334F070FCD4F84003D4F8A072C0
:10085800B84238BF4FF0010EAFD3EBE734F064FC79
:10086800D4F84003D4F8A07287424FF0010EA4D800
:10087800E0E78000811A012A01F1010703D1431C36
:100888009B08C4F840334FEA970E07F003081CF89A
:100898000E904FEA48080123023103FA08F343EAAD
:1008A800090388420CF80E3013D34FF002084FEAC0
:1008B800910CD4F89CE201F003031EF80C905B0045
:1008C80008FA03F3013143EA090388420EF80C30B1
:1008D800EDD2D4F83833D4F8A8823344C4F8383386
:1008E80008EB071312011846002123F0B3FBEA07AF
:1008F8004FEA071603469ED50022D4F8A40248F80A
:100908000620F9080122445C07F00707BA40224391
:1009180042541846BDE8F88380000130AAE78000F9
:100928000230A7E780000330A4E700BF8C00002056
:10093800034B1A8912B908B1FFF7F2BC704700BF20
:100948008C00002010F00F021CD11749D1F8A832F2
:10095800834218D810B4D1F8AC4284420ED9C31AD5
:10096800D1F89C429909C3F30110615C4000014130
:1009780001F0030101294FEA131306D010465DF870
:10098800044B7047002210467047013299188808B6
:1009980001F00301205C490040FA01F101F0030174
:1009A8000229F2D01201E9E78C0000202DE9F84F66
:1009B80089460646002800F09D80534D2C89002961
:1009C8006ED0002C6ED1D5F8A812D5F8A032411AF5
:1009D8004FEA111E0EF1010709F10F0CB7EB830F57
:1009E8004FEA830A4FEA1C1C234680F08980D5F819
:1009F8009C024FF00108BC0807F0030B045D4FEAA6
:100A08004B0B44FA0BF404F00304022C4ED024B927
:100A1800013303EB080464454AD3C4453CD04BD3A7
:100A2800434463451CD2D5F8A432C909595CCAB3FA
:100A38000EF0070E41FA0EF101F001014846FFF7EA
:100A4800A3FE044670B34FEA0812314623F0BEFAFB
:100A58002B8913BB3046FFF763FC2046BDE8F88FAF
:100A68000EEB0802E64496450ED902279108D5F800
:100A78009C0202F00303445C5B0007FA03F30132B3
:100A8800234396454354F1D1ACEB080212010021EF
:100A980006EB081023F0DEFA34462046BDE8F88F4E
:100AA800002CD8D000242046BDE8F88F08F10108B2
:100AB8000137BA459FD1B0E7F4446246C6440327DC
:100AC8009008D5F89C4202F00303215C5B0007FA0A
:100AD80003F3013221EA030372452354F0D1D5F818
:100AE8004033B3EB9C0F4FEA9C02D5D9C5F840239D
:100AF8003446D2E701464846BDE8F84FFFF744BE02
:100B08004FF0010889E700BF8C00002010B58AB0BB
:100B180003A8FFF7C1FDDDE90430094C039A0090F2
:100B28000849204600F078FFDDE908310698079A61
:100B3800CDE900100449204600F06EFF0AB010BD50
:100B48008C08040874B4030898B403082DE9F04726
:100B5800DFF864A14949DAF8A822494800F05CFFA7
:100B6800DAF8A012890077D0DFF85091DFF85081C9
:100B7800434F00250EE0012B47D02E22414938462D
:100B880000F04AFFDAF8A0320135B5EB830F4FEADF
:100B9800830161D205F00306AA06DAF89C024FEA3F
:100BA80046060CD0DAF89C22AB08D35C334103F03C
:100BB8000303022B27D0032BDDD16D22DEE72C4661
:100BC800A20804F00303825C5B0042FA03F39B076C
:100BD80002D101348C42F3D3621B7F2A0CD92A49F3
:100BE8009209384600F018FFDAF8A03224F03F05E1
:100BF800B5EB830F30D2002609EA05124146384684
:100C080000F00AFFCEE73D22B8E7DAF8A8221F492C
:100C18002B01D2588A421DD01D4B9A4222D01D4B1F
:100C28009A4223D01C4B9A421ED01C4B9A421BD08E
:100C38001B4B9A421CD01B4B9A4219D01A4B9A4212
:100C48001AD01A4B9A4215D0194B9A420CBF4D2212
:100C5800682293E7542291E7BDE8F0471549084810
:100C680000F044BB4C2289E7532287E7442285E7FA
:100C7800412283E7422281E746227FE7E0B4030866
:100C88008C08040824B5030800B503080C3F0408C1
:100C98007C300408882204088C3C0408283A04089C
:100CA8008C1E0408141E0408C82A0408582B0408BB
:100CB80030320408FCB403088C000020F0FF0F0059
:100CC8001CB50308054B02681B6A59688A4203D39E
:100CD800521A0260184670471B68F6E78C0000201D
:100CE800014441F20553884204D398B2012838BF21
:100CF8000120704710F8012B03EB43135340F2E730
:100D0800034B044A1A620022C3F8F421704700BF5B
:100D18008C00002064B404082DE9F04780460E4694
:100D2800FFF7DEFF124B1C6A07460CB920461AE093
:100D3800D4F80C90002504F1180A4D4501D1246817
:100D4800F3E7236933F81530BB420ED163695B5D65
:100D5800B3420AD15AF825003246414623F0A2F997
:100D680018B960682844BDE8F0870135E5E700BF99
:100D78008C0000202DE9F84381460E46FFF7CCFF92
:100D88000246002840F08B80FF2E03D9454946488B
:100D98000BF002FF454CD4F8F401751C90B1D4E96E
:100DA8007E132B448B4229D92944FFF75BFA074667
:100DB800D8B90246D4F8FC11D4F8F401FFF752FA76
:100DC800C4F8F471802D2F4638BF80273846FFF7C6
:100DD8002EFAC4F8F401D0BB2846FFF728FAC4F865
:100DE800F40198BB28460CF093FCD4F8F8312B4456
:100DF800C4F8F831D4F8F431002BE3D0D4F8FC313E
:100E0800D4F8F47131461F4448462B44C4F8FC31E9
:100E1800FFF766FF49468046324638464FF00009DC
:100E280023F0D4F807F80690236AD3E90253AB42BB
:100E380025D36D000A2D38BF0A25C5EBC50018302B
:100E4800FFF7F5F948B9C4F8F401CBE72F460023BA
:100E5800C4F8F871C4F8FC31D0E700F11803226A2D
:100E6800026003EB8503036103EB450343615368A9
:100E7800D268C0F80C901344C0E901352062236A97
:100E8800D3E903215B6921F812809E54911D236ADE
:100E980043F82170D9680131D9605B681A4410465B
:100EA800BDE8F88327B503080C2804088C00002047
:100EB80010B5044623F008F901462046BDE8104065
:100EC800FFF758BF07B5019001A8FFF7FBFE019A8D
:100ED800036933F8120003B05DF804FB07B501900D
:100EE80001A8FFF7EFFE019B4269D05C03B05DF8F3
:100EF80004FB07B5019001A8FFF7E4FE019B063348
:100F080050F8230003B05DF804FB13B5019001A865
:100F18000C46FFF7D7FE019B4269D25C226006337C
:100F280050F8230002B010BD2DE9F8431D460023F8
:100F380003600B6013602B60164BDFF85C901C6A33
:100F48000746884616460CB14C4505D12B683268D1
:100F580013442B60BDE8F8833B6801333B60E268CB
:100F6800D8F800301344C8F800306269E368D11833
:100F78008A4207D32046FFF7E5FC2B68246818440B
:100F88002860E0E7336812F8010B0133034433604B
:100F9800EEE700BF8C00002064B404082DE9F84394
:100FA8000D4B0E4F1C6ADFF83880DFF838900CB113
:100FB800BC4201D1BDE8F883E36804F1180505EBEC
:100FC8008306B54201D32468F1E755F8042B41465E
:100FD800484600F021FDF4E78C00002064B40408C2
:100FE8002CB503088C08040830B50023202411F818
:100FF800012F0AB9027030BD120600F101051FD594
:101008000BB1047028460B78124A03F07F036BB9C2
:10101800013A12F8013F13F0800F054600F1010074
:101028000BD003F07F032B700123E0E712F9015B7B
:10103800002DFBDA013BDBB2E9E700F8013CE8E709
:10104800012B04BF047028460B7800F8013B0223EB
:10105800CDE700BF33B5030838B5436819440368C2
:101068009942054611D9037BDB0703D507480021C0
:101078000BF092FD01F1100424F007040834806895
:101088002146FFF7E4F82C60A86038BD0C28040856
:1010980070B504460E4611461546FFF7DDFFD4E944
:1010A80001302A461844314622F0C0FF63682B44B9
:1010B800636070BD70B54668B142044628BF3146CA
:1010C8000D460121FFF7C8FFA368681C5919721B58
:1010D800184422F0ABFF6368A068013363602844BA
:1010E80070BD38B50129044638BF012100250846DE
:1010F80021606560FFF790F8237BA06065F300032B
:10110800237338BD38B505460C460131FFF7E9FFB2
:101118006C6038BD0023C0E90132037B016043F0F5
:10112800010303737047000038B514460546FFF7FE
:10113800D8FF024B2560636038BD00BF99100008D6
:10114800037BDB0710B5044602D48068FFF78CF8F0
:101158000023A36010BD13B501901020FFF75CF8C1
:1011680001990446FFF7BDFF204602B010BD10B537
:10117800044650B1037BDB0702D48068FFF774F89C
:101188002046BDE81040FFF76FB810BD38B5037BA7
:10119800DB0704460D4603D5074800210BF0FCFC8D
:1011A800016880682944FFF752F82368A0601D444D
:1011B8002560184438BD00BF0C28040838B504461B
:1011C8000D46FFF749FFD4E901301D446560184416
:1011D80038BDD0E900239A4210B5044602D1012156
:1011E800FFF7D4FFD4E901320021D154A06810BD23
:1011F80010B50C460121FFF7E1FF047010BD7F29EF
:10120800F8B50C46CEB204D80121FFF7D7FF067017
:10121800F8BD06F03F06B1F5006FC1F3871546F03B
:10122800800607D20221FFF7C9FF65F03F05057068
:101238004670EDE705F03F05B1F5803FC1F307378C
:1012480045F0800508D20321FFF7B8FF67F01F07B4
:10125800077045708670DBE70421FFF7AFFFA40C29
:1012680007F03F0764F00F0467F07F0704704770CA
:101278008570C670CCE713B504460846019122F084
:1012880023FF01990246204602B0BDE81040FFF74F
:10129800FFBE10B51446FFF70DFF047010BD10B562
:1012A8001446FFF707FF047010BD43688B422CBF3C
:1012B800591A00214160704738B5044615466268DE
:1012C8008A42084603D929448A4201D8606038BD59
:1012D800A368521A1844194422F0A8FE63685B1BDD
:1012E8006360F4E70846114623F07EBD37B505462E
:1012F8000846019122F0E8FE044620B102466B68D8
:10130800019928689847204603B030BD2DE9F74F6A
:1013180089469DF8301017460D9A11F0DF0F0646E2
:10132800A2EB07023DD0302925490CA813BF8046FF
:1013380088464FF0100A4FF0010A13F0800535D0A7
:1013480002EBD2746510A2EB6404002D35DDAB46C8
:10135800DA45524673683068A8BF5A46414601923A
:101368009847019AABEB020BBBF1000FF0DC2FB1F1
:10137800736830683A46494698473D44002C0CDD6E
:101388002544A2455746A8BF2746736830683A46A1
:101398004146E41B9847002CF3DC284603B0BDE81F
:1013A800F08FDFF820804FF0100AC6E713F0010431
:1013B80001D11546C9E71446D9E70025D7E700BF8C
:1013C800A5080408940804082DE9F04389B00646E6
:1013D8000020119D9DF84880139F8DF80F000AB3D7
:1013E80081421ADA2D228DF80F204942109A08AC52
:1013F800A2F10A000DF11009B1FBF3FC03FB1C126A
:10140800092A8CBF1218303204F8012D4C458E463B
:1014180061460ED07345EFD90BE0A80727D52B22DC
:101428008DF80F200029E1D130238DF81F300DF100
:101438001F0415F040099DF80F301CD023B301227A
:10144800CDE900822B460DF10F013046FFF75EFF14
:10145800013F814608AACDE900872B46121B214689
:101468003046FFF753FF484409B0BDE8F0836A07E8
:10147800D8D52022D4E7002BECD004AA9442E9D98D
:1014880004F8013C013CE5E79946E3E72DE9F04F14
:1014980093B081461E46C8079DF874301C9D07937B
:1014A800DDE91E870C4692460BD4A10703D12168BB
:1014B8007F4B994205D020460DF092F9400040F04C
:1014C800010415F0810306D1079A302A03D1B845E3
:1014D800B8BFB8461F46204610F0B8FA00280DF1EC
:1014E800280B18DBAA0712D52B238DF828300DF10D
:1014F8002903E806F6B21CD5BAF1020F0DD1194638
:10150800302001F8020B701C58700B4611E06B0775
:1015180001D52023E9E75B46EBE7BAF1080F62D172
:1015280030211970A90545BF06F10E015970013324
:101538000233002115F0200F1970A3EB0B0306935B
:101548000CBF0B462C23012F0EA8C8BF45F0400541
:101558000B9015F040024FF01000CDE90C01CDE9D9
:1015680002638DF82710059247D0CDE900A12346E4
:101578000DAA0CA90BA810F043F903782D2B82466D
:1015880006D18DF827300D9B013B00F1010A0D9320
:10159800012F40F385800D9C059BBC42B8BF3C469B
:1015A8002BB19DF8273003B10134069B1C44A0459C
:1015B8002EDD15F00103A8EB04042AD126461C46AB
:1015C80025F001054EB120230093002301963949E7
:1015D8001A464846FFF79AFE0646059B002B5CD143
:1015E800302307933AE0BAF1100FA2D11946302000
:1015F80001F8020B06F1170086E70AABCDE900A354
:101608000DAA23460CA90BA810F0FAF88246BFE7EA
:1016180000240026D4E7002426469DF827305BB135
:1016280000230122CDE900320DF127014846FFF7DA
:101638006DFE08F1FF380644069B63B100230122C2
:10164800CDE900325946069A4846FFF75FFE069BE9
:101658000644A8EB0308012FD8BF4746079B009311
:101668000D9A01972B4651464846FFF74FFE064410
:101678004CB12023009300230E4901941A46484692
:10168800FFF744FE06440B980EAB984201D0FEF7D4
:10169800EBFD304613B0BDE8F08F30230793BCE76D
:1016A800059B002BB7D11C461E464746D6E700BF10
:1016B800182F0408CFC604082DE9F0431646B207D0
:1016C8008BB098465ABFC6F380035B012B23009367
:1016D8000A46139BDDF848900746202102A80AF025
:1016E800DBF9F305044610D5431C1F2B0DD800F178
:1016F80028020DEB0204252204F8202C03F128020D
:101708006A44002102F8201C1C4616F040051DD032
:101718009DF808302F2B4FF0000319D8012202A999
:10172800CDE900323846FFF7F1FD09F1FF390546EA
:10173800013C0DF10901CDE90089334622463846BE
:10174800FFF7E4FD28440BB0BDE8F08302A9F2E7F7
:1017580002A91D46EFE700002DE9F04F824689B047
:10176800144600260B461D4613F8012BC2B9A942A0
:1017780019D30B78002B00F04681013120234FF05C
:1017880000080A4612F8015B3DB12B2D21D014D870
:10179800202D21D0212D22D000254FF00A0C25E044
:1017A800252AE0D1E3E76F1ADAF80430DAF8000006
:1017B8003A4698473E442946DBE72D2D05D0302D83
:1017C800EAD148F040082B4601E048F001081146EC
:1017D800D7E748F00208FAE748F00408F7E748F0C6
:1017E8000808F4E70CFB0522A2F130050F4611F8B2
:1017F800012BA2F130000928F4D92E2A40D17A7899
:101808002A2A0FD000224FF00A0E0F4611F8010BBA
:10181800A0F1300CBCF1090F07D80EFB020BABF19D
:101828003002F2E754F8042B023722EAE27B3A78D6
:101838006C2A08BF013797F80090B9F1000F00F043
:10184800E280B9F1780F6AD8B9F1570F1BD8B9F10E
:10185800470F61D8B9F1440F61D9073424F0070460
:10186800F4E80201049339F059FCCDE9005B00EE7D
:10187800100A049B424649465046FFF71DFF62E0A6
:101888004FF0FF3BD3E7A9F15802202A47D801A11E
:1018980051F822F0DD190008271900082719000857
:1018A8002719000827190008271900082719000810
:1018B80027190008271900082719000839190008EE
:1018C8005B190008C11900086318000863180008AC
:1018D80063180008271900082719000827190008A5
:1018E80027190008271900082719000827190008D0
:1018F80027190008FF1900086F19000827190008A0
:101908009919000827190008DD1900082719000887
:1019180027190008DD190008B9F1500F6BD0DAF863
:101928000430DAF8000001223946984701360BE006
:1019380054F8042BCDE9003543463AB13449042222
:101948005046FFF7E3FC0644791C0BE731490522B2
:10195800F6E754F8042B8DF81C20CDE90035012258
:10196800434607A9ECE707A954F8040B0493FFF7CB
:10197800CCFABBF1FF3F049B014604D0079A93457C
:1019880038BFCDF81CB0CDE90035079A4346D7E7F4
:1019980054F8041B05930846049122F095FBBBF10B
:1019A800FF3FDDE90413024602D0584528BF5A46D6
:1019B800CDE900354346C3E7CDE9023561230093FD
:1019C800CDF804800A23012254F8041B5046FFF77F
:1019D800FBFCB8E729F00F0209F101010F3A01F009
:1019E8000601D2B2CDE90235CDF804800092C1F1EA
:1019F80010030022E8E7CDE9023561230093CDF812
:101A080004801023F5E7304609B0BDE8F08F00BF29
:101A180080080408850804080EB403B503AA52F820
:101A2800041B0192FFF798FE02B05DF804EB03B0C7
:101A3800704790F900200378002A0ADA03F07F0340
:101A48004022134207D110F8012F02F0C00180296B
:101A580005D01846704723EA02035208F1E702F05E
:101A68003F0242EA8313EEE7431C1846013302782B
:101A780002F0C002802AF8D070470023814201D8C2
:101A88001846704711F8012D02F0C002802A18BFCD
:101A98000133F3E701440346002099421A4600D86F
:101AA8007047127802F0C002802A03F1010318BFC0
:101AB8000130F2E77F289DBF024B185CC0F340005D
:101AC80000207047B60804087F289DBF024B185CA9
:101AD800C0F3C00000207047B60804087F289DBFE7
:101AE800024B185CC0F3800000207047B608040859
:101AF8007F289DBF024B185CC0F380100020704700
:101B0800B60804087F2809D8064B1B5C13F00C0F95
:101B180006D1A0F15F035842584170470020704732
:101B280001207047B60804087F289DBF024B185C47
:101B3800C0F3001000207047B60804087F289DBF36
:101B4800024B185CC0F3401000207047B608040828
:101B580008B50246FFF7E8FF00B12032104608BD7D
:101B680008B50246FFF7EAFF00B1203A104608BD63
:101B78003038092884BF20F020000738704710B596
:101B880001440246E5240020914203D8B0FA80F0CF
:101B9800400917E012F8013B30B103F0C003802B75
:101BA80011D1431ED8B2EFE7BF2B09D9F72B09D8BB
:101BB800DB0803F0060344FA03F303F00300E3E74A
:101BC8001B06E1D510BD0020FCE7023981420B4617
:101BD80003D31A880239002AF8D00233181A4010A1
:101BE8007047B2EB131F70B54FEA131415D9121BC7
:101BF80003F00F0301EB440115460E46012D31F8A1
:101C0800024B18BF3468DC40A4B2013D20F8024BF7
:101C1800F3D104B9013A104670BD0022FBE7F0B5D4
:101C2800059F0024D21B2646A74210D100EB47058A
:101C380001EB470100239A4214D105EB42031EB180
:101C4800012125F812100233181A4010F0BD31F89E
:101C5800145033F814C06544354420F814502E0C41
:101C68000134E1E731F81340344425F81340260CD9
:101C78000133E0E7F0B4049F0025D21B2C46AF42A5
:101C88000BD100EB470601EB470500239A420FD121
:101C980006EB4201F0BCFFF798BF31F815603444F9
:101CA80033F81560A41B20F8154024140135E6E725
:101CB80035F813100C4426F8134024140133E5E7D3
:101CC8002DE9F043079CDDF828E0DDE908760239C4
:101CD800154684464FF6FF78A4EB020955B900EB88
:101CE80042011FB1012320F812300231BDE8F04350
:101CF800FFF76BBF31F8024F013D4444264405EB22
:101D08000904AC4296BF33F8024B4FF6FF744444C3
:101D1800744486EA040E17FA8EF72CF8027B4FEA11
:101D2800144E360C3F0CD9E738B5022904468068B2
:101D380038BF02210D4618B12368B1EB930F07D9BC
:101D48006900FEF784FA2368A06065F39F032360A7
:101D580038BD38B504460C20FEF75EFA23682278B1
:101D6800054602F00102C3F39D0023F00303134369
:101D78002B6063686B604000FEF74EFAA86022682B
:101D8800A168C2F39D02520022F020F9284638BD0E
:101D9800994210B511D313D800EB410002EB410270
:101DA80009B9084610BD30F8023D32F8024D1B1B38
:101DB800002B02DB04D10139F2E74FF0FF30F1E7E5
:101DC8000120EFE710B5044638B18068FEF74CFAF9
:101DD8002046BDE81040FEF747BA10BD70B505466D
:101DE8000C460221FFF7A0FF002C2B78B4BF01227C
:101DF800002262F30003AA682B70B4BF6142214637
:101E0800012388B2090C14461E4622F8020B03F17E
:101E18000103F6D16E60208070BD0023C0E9003355
:101E28008360704728B103789B0702D48068FEF767
:101E38001BBA704738B505460C464968FFF774FF6A
:101E480022782B78A86862F300032B7063686B60B4
:101E58006268A1685200BDE8384022F0B7B80A4667
:101E680029B90178426062F3000101707047FFF7F9
:101E7800B5BF08B5FFF7D1FFBDE80840FFF7EFBFD2
:101E8800920042F0020210B402600022C0E901216F
:101E98005DF8044B1946FFF7E2BFF8B59DF81870D6
:101EA80014461D4604210646FFF73EFF22462B46F0
:101EB80027B1002D0CDA624265EB4503317867F3F0
:101EC800000131700021716052EA030102D1F8BDAE
:101ED8000027F3E7D6E901104C1C746020F81120A4
:101EE800120C42EA03421B0CEEE72DE9F3418DED9B
:101EF800010A019C0378E20F62F300030370C4F344
:101F08000F4313F4FF43074608D13B786FF30003F0
:101F18003B7000237B6002B0BDE8F081B3F5FF4F52
:101F2800F3D0C4F3C753A3F17F05002DEDDB05D132
:101F3800012102B0BDE8F041FFF750BFA3F16F08DF
:101F4800C4F31604162D4FEA281844F4000421DCC3
:101F5800C5F11705EC4000252E4641463846FFF7E7
:101F6800E3FEC7F8048026B1B8687200002122F0A9
:101F780071F845B1BB6804FA05F223F81620C5F1DB
:101F88001005EC400136B045C5D0BB6823F81640B3
:101F9800240CF7E7B3F1960605F1090548BFA3F14C
:101FA800870605F00F053611D7E72DE9F8430446F3
:101FB8008F18C2F35B020D46511C9846089EFFF726
:101FC800B3FE237868F300032370AC4600221FFA9F
:101FD80086FEBC456046626002D3401BBDE8F883BC
:101FE8000178A1F13003092B0CF1010C05D9A1F1FD
:101FF8004103192B12D8A1F13703B342EDD2A068DF
:1020080090468146B8F1000F0FD100EB420113B1A1
:1020180020F812300231091A4A10DAE7A1F16103F7
:10202800192BDAD8A1F15703E7E7B9F8001001FB3B
:102038000E3329F8023B08F1FF381B0CE2E7F8B52C
:10204800044615461E46C1B1531E1E444FF0FF37C5
:10205800E9000F3109092046FFF766FE23780021C1
:102068006FF30003237061604DB9D4E9011000EBF0
:102078004101FFF7AAFD6060F8BD0127E8E70023EA
:102088000F2908DC32788A401343013D9BB201F1E5
:1020980008013E44F4D16268501C6060A0681039A1
:1020A80020F81230E0E738B505780B7805F0010222
:1020B80003F001030446981A08D1D1E90132D4E9A2
:1020C8000110FFF765FEEB0748BF404238BD884264
:1020D80010B5044601D0FFF7ADFE23786FF3000377
:1020E800237010BD884210B5044601D0FFF7A2FE48
:1020F80063683BB12378C3F30002C2F1010262F3C3
:102108000003237010BD88421FB5044601D0FFF7B5
:1021180091FE626862B901212046FFF705FEA268B8
:10212800012313806360237843F00103237010E0D8
:102138002378D9070FD5A1686FF300032370012313
:10214800ADF80E30009308460DF10E03FFF792FD2F
:10215800606004B010BD511C2046FFF7E5FDA16882
:1021680062680123ADF80E30009308460DF10E03A6
:10217800FFF755FD6060D6E72DE9F8434B68054643
:102188000E46144603B12AB931462846BDE8F8433D
:10219800FFF750BE02F10F014FEA111803EB1111BE
:1021A800FFF7C2FDD6E9013208EB0307A96807F17A
:1021B800004C14F00F040CF1FF3C01EB4C0C08BF71
:1021C800102402EB43021946E1464FF0000EC4F119
:1021D800100401BB6FF0010253430CEB0300C8F17C
:1021E80001082EFA04FE4FEA480200EB4808404670
:1021F8002CF803E0524221F02DFFA8F1020817B194
:1022080038F817309BB16F6032782B7862F300038F
:102218002B70BDE8F88332F8020D40EA0E0020FA70
:1022280004FE29F802E901394FEA004ED1E7013FDF
:10223800E5E72DE9FF410D4649680646144601B118
:1022480032B92946304604B0BDE8F041FFF7F2BD87
:10225800FFF76AFDB768D5F808806A6823464146E3
:102268003846FFF7BEFC70602978337861F30003C5
:102278003370DB0702462AD500236968ADF80E30B3
:102288002009994201D083420ED181421FD904F01E
:102298000F04012338F8101003FA04F4013C21421A
:1022A80011D0ADF80E3007E038F813504DB10123C6
:1022B8008142ADF80E30EAD801235AB93B807360E9
:1022C80005E00133DDE7BDF80E30002BF4D104B092
:1022D800BDE8F081009339460DF10E033846FFF74B
:1022E8009EFC7060F3E773B50C4615460646D2E9C6
:1022F8000132D1E90110FFF74BFD0028BEBF23468C
:102308002C461D4623782A7861685340DB071AD487
:1023180001313046FFF708FD6B680093D4E90121CD
:10232800AB68B068FFF77BFC706023783278C3F342
:10233800000300280CBF002303F0010363F300022D
:10234800327002B070BD3046FFF7EEFC6B68009348
:10235800D4E90121AB68B068FFF78CFCE4E7F7B576
:102368000C4617460546D2E90132D1E90110FFF7BC
:102378000FFD0028BEBF23463C461F4623783A7807
:10238800616883EA0203B4BF01260026DB0719D57A
:1023980001312846FFF7C8FC7B680093D4E9012186
:1023A800BB68A868FFF73BFC6860B8B1237803F006
:1023B80001030EB183F001032A7863F300022A7047
:1023C80003B0F0BD2846FFF7AFFC7B680093D4E963
:1023D8000121BB68A868FFF74DFCE5E70346EBE77A
:1023E8002DE9F04F14464A6863689A420D463EBF8D
:1023F80025460B461C462B786968DB0785B00646E0
:1024080022D4237813F001071ED1FFF78DFCD4E9FD
:10241800011CB068AD683B4699420CD100EB410104
:10242800FFF7D3FB00237060327863F30002327049
:1024380005B0BDE8F08F35F813203CF81340224072
:1024480020F813200133E7E701313046FFF76CFC31
:102458002F782378D5F804C0B068A26887EA03010A
:10246800C94301F0010E41F3000189B207F00108E8
:1024780047F300070291B9B20191A968A1F1020AD4
:10248800616803F0010943F300039BB2A1EB0C015F
:1024980000936746834603918FB900EB4C01BEF168
:1024A800000F03D0012320F81C300231FFF78DFB09
:1024B800706022782B78C2F300021340B4E73AF830
:1024C800021F019B5940039B013F8844D919B94217
:1024D8009BBF32F8021B009B009959408944029B1C
:1024E80008EA090159401EFA81F12BF8021B4FEA4C
:1024F80019494FEA18484FEA114ECDE72DE9F84F30
:1025080015464A686B689A420C463EBF2C460B46F5
:102518001D4623786168DB07064632D42A7812F014
:1025280001072ED1FFF700FCD5E9013EA1686468D8
:10253800D6F808C0E41A3A46934213D101EB430196
:1025480000220CEB4303944215D103EB4403A3EBA5
:102558000C03581000223378706062F30003337064
:10256800BDE8F88F31F812003EF8125028432CF8D5
:1025780012000132E0E731F8120023F812000132AC
:10258800E1E701313046FFF7CFFB22782B7861680D
:10259800B068A468D5E901E702F0010803F0010971
:1025A80042F3000243F3000392B29BB2A4F1020C7F
:1025B8000D4683464FF0010AAEEB010E2DB900EB34
:1025C8004101FFF702FB0122C5E73CF8024F013D3C
:1025D8005440A0440EEB0504AC4296BF37F8024BBA
:1025E8001C465C40A14448EA0904E4431AFA84F40E
:1025F8002BF8024B4FEA19494FEA18484FEA144A98
:10260800DCE7F0B515464A686B689A4238BF0B4656
:102618000C463CBF2C461D4627782B7861685F40E6
:1026280017F0010785B006463BD1FFF77DFB2378FD
:1026380013F0010329D1D5E9012C6168B068A768B6
:10264800891A9A4212D107EB4207002300EB420293
:10265800994214D102EB4101FFF7B7FA70600027E5
:10266800337867F30003337005B0F0BD37F81340D3
:102678003CF813506C4020F813400133E1E737F879
:10268800134022F813400133E2E7CDE902770197BE
:102698006B680093D4E90121AB68B068FFF710FBC1
:1026A800DCE70131FFF740FB2B78B068DB4303F030
:1026B800010303932378DB4303F00103012702930B
:1026C80001976B680093D4E90121AB68FFF7F8FA2A
:1026D8007060C5E72DE9F04F4B6885B004460E469B
:1026E80015460BB1536843B923786FF30003237081
:1026F8000023636005B0BDE8F08F81422ED1FFF75B
:1027080028FBA5420646074600D105466B68716856
:1027180020461944FFF708FB2268A068C2F39D020F
:102728005200002121F096FCB368D4F808E0D6F8EE
:1027380004900193AB68029300226B6803930EEB3D
:102748004908F4461146039B934231D0DDF804B0A2
:10275800CDF80090ACF10200002318E0824204D1C9
:10276800FFF7F7FA05460746D0E70027CEE730F827
:1027780002AF53441946029B3BF802AB33F81230C0
:1027880003FB0A130099038001391B0C009100997F
:102798000029ECD14146881C13B1A8F80030014645
:1027A800A1EB0E0149100CF1020C01328046CAE778
:1027B80061602A78337853402278384663F3000200
:1027C800227005B0BDE8F04FFFF7FCBA4B6870B552
:1027D8000546144613B11378DA0706D52B786FF33C
:1027E80000032B7000236B6070BD636823B9BDE8DC
:1027F80070400121FFF7F2BA0846FFF7AAFA064629
:102808002046FFF7A6FA012104462846FFF7E6FA14
:10281800636883B1A3681B88DB0704D53246294661
:102828002846FFF757FFA168626801230846FFF7AB
:10283800D8F9606038B93046FFF7C4FA2046BDE8D9
:102848007040FFF7BFBA324631463046FFF742FFC5
:10285800DEE72DE9F04F0C4651688FB09046013104
:1028680005460293FFF760FAD8F80420A8680132F9
:102878005200002121F0EEFB2B7800266FF30003B5
:102888002B706E60D8F8041020460131FFF74CFA1F
:1028980041462046FFF7CEFA029BA768D4F8049079
:1028A800D3E9013A0093AB6803935246009B49462B
:1028B8003846FFF76DFA002835D1039A6060012386
:1028C80013806B6023786168C3F3000200290CBF92
:1028D800002202F0010262F30003029A237098F8C2
:1028E800003012785340DB0740F100816B682A788A
:1028F800003B18BF012363F300022A70002900F08F
:10290800F5800BA84FF0FF31FFF7B3FA0BAA294661
:102918002846FFF7E8FC029A214620460FB0BDE89A
:10292800F04FFFF7E0BC01DA6E60CBE7009B03F1E4
:102938000042013A4FEA420E3AF81230180406F102
:10294800010150D507EB490B0BF102030193B3B218
:10295800002109F10100C3F1100627F81910BC463F
:1029680060600496019EB44541D33AF812209A401B
:102978000492009A012A09D90AEB0E02C3F1100148
:1029880032F8022CCA40049911430491009A801A23
:102998006860039A00F10040013802EB4002069299
:1029A8000EF102020992AAF1020A626805920599DB
:1029B800009A8A4227D301F1004B0BF1FF3B07EB4A
:1029C8004B0B0022C3F110005F4576D96FF0004130
:1029D8006B682BB103985A1830F81220002A76D069
:1029E8006FF0004178E05B009BB20E46A6E7BCF8AA
:1029F800006006FA03F941EA090904992CF8029BD8
:102A0800CE40B1B2AEE7BBF800103BF8022C42EA68
:102A180001420499B2FBF1F20192099AABEB02026E
:102A2800CDE9072A002016468646B3450FD8BBF8DD
:102A38000010084400283BD1069A019922F802198F
:102A48000692059A013AABF1020B6260ADE7089A6B
:102A5800B6F8009032F8021F08929940019A41EAAC
:102A68001E4E1FFA8EF1514319FA80F91FFA81FCA4
:102A7800090CA9EB0C0CC1EB204126F802CB01EBA9
:102A88002C40D2E739F802CF0CFA03FC4CEA1E4E70
:102A9800B6F800C011FA8EF18C4426F802CB4FEA42
:102AA8001C41B345EED8019A013A08440192C1E7A6
:102AB8000021079ED1468E46F3E7BBF8001041FA85
:102AC80003F6324381402BF802298AB27CE7013BA6
:102AD8006B607DE7013B63606368002B3FF4F2AEF7
:102AE8005A1837F81220002AF4D0EBE60FB0BDE8E8
:102AF800F08FF0B51F464B6885B004460D46164664
:102B08004BB11378DA0706D47B68012B0BD1BB686D
:102B18001B88012B07D123786FF300032370002350
:102B2800636005B0F0BD01212046FFF757F97368CF
:102B3800002BF6D02846FFF70CF905463046FFF77C
:102B480008F9064601A8FFF768F97368B3B1B368D6
:102B58001B88DB070AD52A4621462046FFF7BAFD1F
:102B68003B462246214601A8FFF773FEB16872680A
:102B780001230846FFF735F8706058B901A8FFF738
:102B880051F92846FFF71EF9304605B0BDE8F04078
:102B9800FFF718B92A4629462846FFF79BFD3B460A
:102BA8002A46294601A8FFF754FECEE710B5D0E91A
:102BB8000121002301EB4202914205D30278D2079A
:102BC80048BF5B42184610BD32F8024D44EA034341
:102BD800F2E730B5D0E90124002304EB4202944225
:102BE80006D30278D20748BF5B420B60012030BD94
:102BF800B3F5004F04D232F8025D45EA0343EEE72D
:102C08000020F4E72DE9F0470546D1B19818D5E939
:102C180001840026A4F1020E4FF0010C374603EBA5
:102C28000209B8F1000F0ED1B9B3C21A18462B78B1
:102C380013F0010FBDE8F04714BFFF21002121F078
:102C480009BA1846E3E73EF8024F103744EA064649
:102C580095F800A0072F0AF0010A02DC08F1FF38F6
:102C6800DFE7B4B2BAF1000F06D0E4435CFA84FCA3
:102C78001FFA8CF4CCF3072CE4B249B100F1FF3A07
:102C880000F8014C53450BD0083F360A5046DFE7A1
:102C980082460AF8014BCA45F5E71A44121AC6E7F4
:102CA800BDE8F087D0E901329FED0C0A9FED0C7A60
:102CB80002EB43039A4205D30378DB0748BFB1EE22
:102CC800400A704733F8021D07EE901AF8EEE77ACB
:102CD800E0EE077AB0EE670AECE700BF00000000FC
:102CE800000080472DE9F84F44689DF828B00B9FF5
:102CF80081468A4615461E469CB982B1551E3A46FB
:102D080015F8011F134639B930221A70002203F84A
:102D1800012FD81BBDE8F88F02F8011BF0E73B46EE
:102D2800F2E764002046FDF777FAD9F808108046E4
:102D3800224621F04BF93A463B4608EB0401A6F13E
:102D48003A00A1F1020C0026E045644639D9303634
:102D5800392E1C4688BF361804F8016B4646B14226
:102D6800B44638D8BBF1000F0AD00126A4EB020CF8
:102D7800BCF1030F02BF9C1C83F801B02246F6B1D8
:102D88004046FDF771FA5DB1284621F09DF92A18F1
:102D9800611E1346AB4229D8954288BF00200444DF
:102DA80099F80030DB0744BF2D2304F8013B3B466C
:102DB800621E9A421FD800232370E01BAAE723460D
:102DC800BFE7248844EA0646B6FBFAF42CF8024921
:102DD8000AFB1466B8E7BCF800C00236BCF1000F65
:102DE800BDD0BBF1000FEAD00026BFE713F8016D94
:102DF80001F8016FCEE71978107803F8010B02F893
:102E08000119D6E7D0E9023293423DBF5A1C8260CD
:102E180018784FF0FF307047036810B5044613B1B7
:102E28004068FDF721FA2046BDE81040FDF71CBABE
:102E3800F8B5054610200C461F461646FDF7ECF976
:102E4800054B8460C0E900743444C4606B60034B74
:102E58002860AB60F8BD00BF0D2E0008212E0008C9
:102E680002690A2A10B5044635D1836A01338362A0
:102E78000123A269E36263696261226F2361002A08
:102E880031D0616E8A423FBF501CA16E20678A5CB8
:102E980028BF0022A2613BB9E2692261226A62610D
:102EA800626AA26163662367D4E905230D2A07D104
:102EB8000A229342626103D1D4E901039847A061D1
:102EC800A369013306D163695A1C03D00A2B1CBFBE
:102ED8000A23A36110BDC36A092A04BF073323F07C
:102EE80007030133C5E7D4E901039847A061DBE78D
:102EF8000369272B2BD0222B29D0A3F16201132998
:102F08001ED8174A0A41D2071AD44269272A1ED066
:102F1800222A1CD0722B1CD1662A06D18269272A44
:102F280015D0222A13D0722B15D14369622B0CD1EC
:102F3800806927280BD0A0F12203584258417047D6
:102F4800662BF0D14269722AE8D000207047012030
:102F58007047662BF6D0622BF7D14369722BE6E7F0
:102F6800EEFFF6FF70B504460D4600262069431CA7
:102F780001D1304670BD0A2808D115B1636B002B0A
:102F8800F7D02046FFF76CFF0126EFE7FEF792FD2A
:102F980018B12046FFF764FFE8E72369232B08D11F
:102FA8002046FFF75DFF23695A1CDFD00A2BF7D1B3
:102FB800DCE75C2BDDD163690A2BDAD12046FFF709
:102FC8004FFFE6E72DE9F04F2DED028B436E85B0FC
:102FD8000446A3B1036F93B929216030FEF708F9BD
:102FE8002369E36163692362A3696362A36E1A7844
:102FF80022615A7862619B78A361032323670021C9
:1030080061652046FFF7AEFFA36A6364236BE56A38
:10301800A564002B01930ADA019F082384F84C3039
:103028000137276305B0BDEC028BBDE8F08F05D0F2
:10303800072384F84C30019B5F1EF2E7002834D048
:10304800636B93BB062384F84C30D4E90F306FF0E0
:1030580000429918013D30F811108D42E2D019D97B
:10306800A16B8B4207D308314900FDF7F0F8A36B39
:1030780020640833A363D4E90F32591CE16322F8B2
:103088001350236B01332363CCE7013BE363236BCA
:10309800013B2363E36B991830F811108D42F4D388
:1030A800C0D0022384F84C30BCE725696A1C01D1E2
:1030B8000023F7E72046FFF71BFF8146002800F0B2
:1030C800B581002384F84C302369752B51D0622BCD
:1030D80007D16369722B51D1C84602260D230025FA
:1030E80012E0722B06D16369622BF5D0662B49D1A9
:1030F8000523D7E7662B49D16369722BF8D04D4673
:1031080001260C234FF0000894F84C20002A3FD1E8
:1031180084F84C303EB12046FFF7A2FE022E02D1C1
:103128002046FFF79DFE23692046222B14BF4FF04F
:10313800270B4FF0220BFFF793FE23695B452AD13B
:1031480063699B4527D12046FFF78AFE2046FFF793
:1031580087FE4FF0030A25B1B24904F16000FEF77B
:103168008AF804F1600308EE103A002704F15006CB
:103178001EE0012600250C23A846C5E701260D23DD
:103188000025BFE7C84601260C23A8E7019EF1E702
:103198009A42BFD046E74FF0010ADCE7934533D1A6
:1031A800594630460137FEF72AF82046FFF758FE01
:1031B8002269511C00F02F81BAF1010F02D10A2AAD
:1031C80000F029815745E9D3394604F15000FEF74C
:1031D8006CF801212046FFF7C5FE2046FFF788FE60
:1031E80000287FF471AF1DE72046FFF739FE2169FB
:1031F8007B291ED13046FDF7FBFF2046FFF730FE46
:103208007B213046FDF7F4FF21690DB17B29EBD016
:103218005C2940F0FB8020460291FFF721FE2769D8
:103228000299B8F1000F38D03046FDF7E8FF39466B
:10323800CBE0676E002221694B1C04D0C2B93A2941
:1032480001D07D2914D1D4E91921881810F8010C6E
:103258003D2807D1D21B39443046FDF719FF636E6C
:10326800013B636618EE100A2C21FDF7C1FFC7E782
:1032780021F020005B280BD1013218EE100AC9B2E8
:103288000292FDF7B5FF2046FFF7EAFD029AD2E762
:103298005D2808BF02F1FF32EFE7782F06D85B2FD1
:1032A8000BD8222F72D053D80A2F4FD0A7F1300154
:1032B800072900F2A58003279BE0A7F15C021C2ADE
:1032C800F4D801A151F822F095330008B53200086E
:1032D800B5320008B5320008B53200084533000899
:1032E80071330008B5320008B5320008B53200085D
:1032F80081330008B5320008B5320008B53200083D
:10330800B5320008B5320008B5320008B5320008F9
:1033180079330008B5320008B5320008B532000824
:103328006D330008B532000875330008853300088E
:103338007D330008B5320008E5330008072194F80A
:103348004C300C2B5ED13046FDF759FF00272CE797
:10335800552F13D0AAD8272F18D04E2FA6D13248D0
:103368000AF0E2FB0D21EAE70821E8E70921E6E790
:103378000A21E4E70B21E2E70C21E0E794F84C206E
:103388000D2A05D15C213046FDF739FF3946D6E7CD
:10339800752F0CBF04270827002114E0204602914E
:1033A800FFF75EFD226903921046FEF7A1FB002895
:1033B80000F050810299039A090110460291FEF724
:1033C800D7FB02990144013FE8D2481CBED0B1F5B1
:1033D800881FB4D3012384F84C30B7E70227DBE712
:1033E80020460291FFF73CFD22690299303A02EB30
:1033F800C1016269303A072AE7D8013FF0D1E4E712
:103408005C2111E7FF29E5D80D2BE3D1C9B230467D
:10341800FDF7EEFE9AE757453CBF032284F84C209F
:10342800D2E600BF7B090408840904082846FEF791
:103438004BFB054620B920695F2801D07F283ED97B
:10344800092384F84C3004F15005217C2846FDF707
:10345800CFFE2046FFF704FD2069421C1BD12846F9
:10346800FDF7B7FE7E4F0646002557F8041B304689
:1034780020F038FE00281CD10F35EDB2122D84F84B
:103488004C507FF4CFAD774BD3F80032002B0CBFF4
:1034980011230F2306E6FEF717FB0028D5D1206974
:1034A8005F28D2D07F28D0D8FEF718FB0028CCD1CF
:1034B800D5E7FFF6B7AD0135242DD6D1B2E5FEF735
:1034C8000DFB68B321692E2935D10B2384F84C30C4
:1034D80004F150063046FDF792FE2046FFF7C0FC87
:1034E8000B272069431C3FF49DAD002D36D120F0F9
:1034F8002003452B32D16521304684F84C70FDF706
:103508007EFE2046FFF7ACFC21692B2901D02D292E
:10351800E7D13046FDF773FE2046FFF7A1FCE0E750
:1035280023692E2B04D16069FEF7D8FA0028C9D187
:103538004D4D002632E00A23302984F84C30C7D19B
:10354800636943F02003623B162B9DBF474D1D4125
:1035580005F00105012585F00105B9E7FEF7B4FA84
:1035680028B121692E290DD184F84C70D1E7206942
:10357800FEF7B4FA0028F4D123692E2BF1D05F2B83
:10358800CAD04FE521F020034A2BC2D1ECE7652FC2
:1035980001D0632F00D10135013601352F7817B1DD
:1035A8002369BB42F3D12046FFF75AFC0FB9012328
:1035B80078E5212F07D123693D2BF8D12046FFF765
:1035C8004FFC3A236EE52E2F0FD123692E2B02D103
:1035D80063692E2B01D05D2364E52046FFF740FC8C
:1035E8002046FFF73DFC0E235CE50335334615F80E
:1035F800027C632F1AD0652F18D01D4AD35C84F83B
:103608004C30552B0ED0563BDBB2042B3FF60AAD9F
:10361800012202FA03F313F0150F18D113F00A0F61
:103628003FF400AD636B01336363FBE415F8012CD1
:103638002169914206F1010607D12046FFF710FCE7
:103648003346652FD9D00235D1E7632FFAE7636B8C
:10365800013BE9E7012384F84C3001466FE600BFDF
:103668003C0A04088C00002036090408FEDFBFFF6E
:103678000E0A04087FB5064601AD742085E80E00E1
:10368800FCF7CAFD0446034695E8070043F8046BB7
:1036980083E8070001236FF00102C4E90A3200251C
:1036A8000A22C4E90E23C4E90C551420FCF7B4FD22
:1036B8002021206404F15000FDF713FD294604F190
:1036C8006000FDF70EFD236C20461D80C4E90555FA
:1036D8002561FFF7C5FB2046FFF7C2FB2046FFF731
:1036E800BFFB2046FFF76EFCA36C012B18BF072316
:1036F800204618BF84F84C3004B070BD30B585B092
:1037080001AC05462046FFF793FB94E80E002846D7
:10371800FFF7B0FF05B030BD30B585B001AC01464C
:10372800054620461CF0BEFE2846FDF7C1FB94E87E
:103738000E00FFF79FFF05B030BD10B5044690B1ED
:10374800C3684068984704F15000FDF7F9FC04F19C
:103758006000FDF7F5FC206CFCF786FD2046BDE80F
:103768001040FCF781BD10BDD0E90432013B036174
:1037780052F8230070470369591A0139436953F80D
:1037880021007047F8B5446A06460D46B4B1D4E93D
:1037980000030B44834222D9083100220144204609
:1037A800FCF760FD0246B8B9616820460831FCF7AD
:1037B80059FD63682360336A63603462802D2F4645
:1037C80038BF802707F10800FCF726FD00230760B3
:1037D80043600446706202E023682B4423606068FB
:1037E8000544656008342044F8BD38B50D460C2101
:1037F8001446FFF7C7FF4FF49D72C0E90124056026
:1038080038BD38B5D0E903329A4204460D4608D38C
:10381800103399004069FCF71AFDE36860611033C2
:10382800E360D4E90432591C216142F8235038BDC1
:10383800F8B504461D46D0E9000383420F461646F4
:1038480008D31030C100A068FCF701FD2368A06010
:1038580010332360D4E90103421C626053F830102E
:1038680067F3170143F8301003EBC002D6705560B8
:10387800F8BD10B48469CAB20023616C5DF8044BCA
:10388800FFF7D6BF10F001021CD110F003030CD0D3
:1038980000F00F03062B15D00A2B11D100090E38A2
:1038A80003288CBF00200120704770B102793A2AA2
:1038B80008D02D2A08D18068B0FA80F040097047F6
:1038C800104670470120704718467047C20702D556
:1038D80040F001007047830710D0030900F00F0083
:1038E800062803D1D80040F002007047A3F10F006A
:1038F800022809D8064B53F82000704730B10379E5
:103908003A2B03D1806870470248704702487047D5
:10391800380B04084C370408043F04082DE9F0412B
:1039280005460F461446164696B93146204612F00B
:10393800DFF9014600F10808ACB90A4628463946BD
:10394800FFF753FF01462846FFF75BFF012008E019
:10395800013E31462846FFF70EFFFFF793FF002888
:10396800E2D1BDE8F0812846FFF7FEFE0646FFF7E4
:10397800ADFF013C48F82400002EDDD0B307DBD1B1
:10398800686A00F108039E42D6D3426813449E42F7
:10399800D2D273681B0A0233A2EB83024260CBE7E0
:1039A800F7B5866996F84C20092A05460F461FD1B7
:1039B800D6E91510FDF7DEF9902F04460ED1C100A7
:1039C800002241F0020105F128000AF04FFC28B15D
:1039D8004268D30724D542F0010002E0200140F0FC
:1039E80002000146284603B0BDE8F040FFF709BFD2
:1039F800A2F10A03032B31D8DFE803F0020A172BE0
:103A08000022D6E91510334608F0B4FA0246E0E77A
:103A18000096D6E915100023012208F029FB02467A
:103A2800716C2846FFF7E1FEDBE7D6E915100A2995
:103A380006D8FDF79FF930B1000140F00600D0E745
:103A4800FDF76AF9F7E7D6E91521064810F0E2F81C
:103A5800E5E7D6E9151010F07BFBE0E7120142F02C
:103A68000A00BEE78C3C0408FA2807D010F00103CE
:103A780006D040080CBF0120002070470120704785
:103A880018467047B0F58D7F07D010F0010306D0B7
:103A9800400814BF012000207047012070471846D5
:103AA8007047000010F0010204D040F001000860E7
:103AB80001207047A8B110F003030FD102793A2A08
:103AC8000ED183680B6013F00100F1D19A0708D179
:103AD8001868044BC31A584258417047104670473B
:103AE80018467047182F04082DE9F04F2DED028B6A
:103AF8001D462D2A00F1280308EE103A87B0044627
:103B0800884616460DD10021FFF735FED0B187074C
:103B180002D10379922B15D007B0BDEC028BBDE81A
:103B2800F08F922A20D10021FFF725FE014648B1E7
:103B3800880707D14F68FBB2952B0AD12046FFF7BB
:103B480013FE013DA6F11E03012B56D82F46AA46A7
:103B580019E0962BF6D127F0FF07204647F0920789
:103B6800FFF702FE4F60D7E7962A08BF0135E9E75D
:103B78001E2E35D1FFF786FFB0B90846FFF774FF50
:103B8800002808BFCA460AF1FF396FB1013F39461C
:103B98002046FFF7F0FD23696269A3EB0A0301469B
:103BA80042F82300002FE3D10021894520D1A5EB5D
:103BB8000905012DB0D0A6F12303DFB2092F00F2C9
:103BC8009981092B00F2A981DFE813F086008600AD
:103BD8008600C200C200C200FD008600A7014A019B
:103BE800FFF742FF0028DFD10846FFF74BFFC7E782
:103BF8002046FFF7B9FD0131D7E7202E1BD1002160
:103C08002046FFF7B8FD0246FFF72EFF80B91046A1
:103C1800FFF738FF0028CED0FA212046FFF7A4FD91
:103C2800204607B0BDEC028BBDE8F04FFFF7E9BDB9
:103C38004FF48D71F1E7052EBDD100212046FFF725
:103C48009AFD0746002800F0FD8010F0030B05D10F
:103C5800436803F0FE03562B00F0F4800121204650
:103C6800FFF789FD00F00F03022B40F0EB80BBF15A
:103C7800000F40F0E7803B792C2B40F0E380BB68D5
:103C880003F00F02022A40F0DD801B09482B40F0A8
:103C9800D980FB68002B00F0D5809A0740F0D280CD
:103CA8001A79302A40F0CE80D3F808A04FEA1019CC
:103CB8005046FFF7E7FD002840F0A080AB49AC482C
:103CC8000CF01CFDA1693A68096805465B460CF0D2
:103CD800E7FD2846FCF77CFA691E2046FFF74BFDF6
:103CE80003A9FFF7DFFE70B3022F9ABFA6F10D07F5
:103CF800FFB22227A5F10209B9F1000F09DA002D58
:103D080040F0ED80039AD30740F1EE8042F00101C4
:103D180086E749462046FFF72EFD04A9FFF7C2FEB5
:103D280088B1222F049A07D00399384609F00CFD70
:103D380009F1FF390390DFE7104601920DF086FE86
:103D48000028019AF0DA362E00F0DE80332EDAE011
:103D5800691E2046FFF70FFD03A9FFF7A3FE002801
:103D6800F1D0A5F10209B9F1000FC8DD09F1FF3161
:103D78002046FFF700FD04A9FFF794FE0028E2D0D3
:103D880049462046FFF7F7FCC0F307104328DAD06E
:103D98004528D8D0049A01922538C7B210460DF0AC
:103DA80055FE1A2F019A09D80028CCDB039938460A
:103DB80009F0CAFCA9F102090390D4E71E2FF5D92E
:103DC8000028F3D1BFE700212046FFF7D4FC03A960
:103DD800FFF768FE002800F0C58001212046FFF7A4
:103DE800CAFCC0F30710342818BF4038039914BF21
:103DF800C0B2022008F02CFF039080E75046FFF77E
:103E080065FD4FEAC9010122074641F0020118EE9B
:103E1800100A0AF02BFA47604846FDF76AF802785C
:103E28005F2A204608D1FFF79FFC00252046FFF7B0
:103E38009BFCA846082685E6FFF796FC51462046D7
:103E4800FFF7DFFCA91C89002046FFF79BFC46EA28
:103E580005230746C0F80080436000F1080177E0B9
:103E680001212046FFF787FC002107462046FFF77F
:103E780082FC07F00F03022B7FF468AF00283FF4A1
:103E880065AF10F003027FF461AF0379322B7FF442
:103E98005DAF3909C900D0F80890364841F00201F1
:103EA8000AF0E4F900283FF451AF406804AA4FEA49
:103EB800191108F0F7FD049B002B3FF447AFD90711
:103EC80007D49A077FF442AF19682B4A91427FF4CE
:103ED8003DAF059A002A7FF439AF03930FE72046D8
:103EE800FFF742FC013D0AE729462046FFF77DFC23
:103EF800014695E6922E10D1D4E9012303EBC203C3
:103F080013F8053C2D2B9DD12A4641462046FFF744
:103F180005FD00287FF400AE94E7962E22D1D4E95F
:103F2800012303EBC20313F8153C2D2B8AD12A4633
:103F380041462046FFF7F2FC002883D06368023B25
:103F48006360E9E52046FFF70FFC013D41F82500D5
:103F5800002DF7D1962E03D139462046FFF751FCA4
:103F680039465DE6062ECFD0EDE600BFCC0A040840
:103F7800C0280408440B0408182F0408036830B547
:103F88005BB19C070BD15C68E5B28D4207D103F1A8
:103F98000800230A1060184630BD1846FAE70123C6
:103FA800F8E700002DE9F04F93B00024402301907A
:103FB8004FF400700D460092CDE90534FCF72CF95A
:103FC800202307908020CDE90834FCF725F9214605
:103FD800CDE90A050FA8CDE90D440AF011F9009BB7
:103FE800002B49D0022B0CBF3F222246696CDFF818
:103FF800CCA2002305A8FFF71BFC0027069C002C79
:1040080000F05E81013C0799A74E069401EBC403BA
:1040180051F83410DA785B68C1F31709A34911F82D
:1040280002B0A349895C632A88BF41F4807106EB1A
:1040380041060BF0300110290BF00F081ED0202983
:1040480049D0002F00F00281B8F1020F40F0F18052
:10405800012B19D000211BF0010F03F1FF3006D00E
:1040680074880AEA0404B4F5805F08BF5808012878
:1040780000D101B30346AAE03D22B7E703B1D7B1A7
:1040880006EB4306984501D80127B7E7374636F8C7
:10409800021B01EA0A00B0F5805F0ED195F84C00CA
:1040A800C1F30B01884214D105A81146FFF778FC2B
:1040B8002846FEF787FF0027A0E70133434503D2D0
:1040C800494605A8FFF7B4FB398805A8FFF7D1FBD7
:1040D800F1E70133D6E78FB103F10041013936F832
:1040E80011100AEA0101B1F5405F1DD1002105A8B0
:1040F800CDE90232FFF785FBDDE9023206EB430426
:10410800984525D8009B0BB1052A47D0002406EB1B
:1041180048082746B0455FD1012F7ED11BF0400FDC
:104128007BD00026314672E0012BADD995F84C3092
:10413800072B40F0F3805F495F480CF0DFFA6A6CA8
:104148002968044600230CF0ABFB2046FCF740F836
:10415800274634F8021B01EA0A00B0F5805F1BD13C
:1041680095F84C00C9B2884212D1092807D11146E6
:1041780005A803930292FFF713FCDDE90223284602
:10418800CDE90232FEF71EFF029B039A0133B7E71F
:10419800002B3FF479AFC9E7013391E7002105A867
:1041A800FFF7E9FA0028B1D1012105A8FFF7E3FAE2
:1041B800830700F0C18000F00F000228A6D005A8F0
:1041C800FFF7D2FA05A8FFF7CFFA002308224946DD
:1041D80005A8FFF789FC6EE738F8023D03EA0A01F3
:1041E800B1F5805F05D1DBB2092B93D101340137DA
:1041F80090E7214605A8FFF7BEFA00B10137013460
:1042080088E7FFF7B1FA0136002818BF0146A64231
:1042180005A8F6D1FFF7F5FA4DE71BF0800F06D099
:10422800002105A80292FFF7ECFA029A013423460E
:10423800CDE7012B3FF428AF13F001013FF40BAF9A
:10424800B8F1030F7FF472AF012104E708EA030114
:1042580001F0010136F8114004EA0A00B0F5805F68
:1042680017D195F84C00C4F30B04A04203F10104E4
:104278000DD129B9114605A80292FFF791FB029AC0
:1042880002922846FEF79EFE029A2346DEE7234660
:10429800DAE6494605A80133FFF7CAFA214605A818
:1042A800FFF7E7FAAAE600BF300C0408800B040801
:1042B800B80F0408D80A0408B425040800F0FFFF62
:1042C8000FA809F0B1FF0E9850B141682246083195
:1042D800FBF7C8FF0E9B5A681A600D9A5A600D9337
:1042E80095F84C30002B7FF421AF099B002B3FF44D
:1042F8001DAF0A9B07981B680C93FBF7B5FF0A983C
:10430800FBF7B2FF2846FFF718FADDE90C01019B1D
:1043180083E80300184613B0BDE8F08F022B01D1E3
:10432800094909E7042B02D10849094805E7052B83
:104338000CBF08490849F8E700283FF4E7AE0379BD
:104348003A2B3FF43CAFE1E6EA0A04080C0B0408F8
:10435800C02804081F0B0408340B040810B5406873
:1043680000B910BD4468FBF77FFF2046F8E700005E
:10437800F8B5054630200E461746FBF766FF072DB1
:1043880004460570C66001D0012D0FD1B368C3F390
:104398000F13A38207F0C2FF042320612783E3845D
:1043A8002020FBF739FFE0622046F8BD014B5B5D3A
:1043B800EFE700BF6810040810B50446C06AFBF7B1
:1043C80053FF2046BDE81040FBF74EBF30B5048DC3
:1043D8000022944202D80023184630BDC36A03EB7A
:1043E800C2035D688D42F7D00132F2E770B504462A
:1043F8000D461646FFF7EAFFC0B9E38C228D9A42B4
:1044080008D30633D900E06AFBF721FFE38CE062AA
:104418000633E384238DE26A591C02EBC30021852D
:1044280002F83360002343704380456070BD034643
:1044380018465B68002BFBD1FFF7C8BFF8B5446886
:104448000E462CB9F8BD042BFCD105230370F9E7FF
:10445800254628466D68002DF4D077683946FFF761
:10446800B5FF0028F5D00378043B022BEAD80625CF
:104478003570002239462046FFF7B8FF0378002B35
:10448800E1D105706468F4E7036A1B8B012B1EBF3A
:10449800C368C918C1607047836A10B50446DB6FEA
:1044A800406A9847238B226A0133918C9BB29942C8
:1044B800238338BF938410BD038B10B5013B03835E
:1044C800836A0446D3F88430406A9847204601211D
:1044D800BDE81040FFF7D8BFF7B51E4659B111F037
:1044E800030511D14F68FCB294420DD13F0A01F186
:1044F8000804BD4201DB03B0F0BD54F8041B019071
:104508000135B0470198F4E7334603B0BDE8F04001
:1045180018472DE9F04F2DED028B044608EE102ABE
:1045280083B00D4698461BB1CB8A43F00803CB8273
:1045380018EE103AEB83236ADA8A42F03002DA8204
:104548001B78002B4CD1A36A606AD3F8B46018EECC
:10455800102A43462946B44603B0BDEC028BBDE899
:10456800F04F6047DB6A03EBC60B13F83630053BA8
:10457800012B1DD84FF0000917E0EB6A03EBC902C5
:1045880013F83930062B0ED1DBF804105368994222
:1045980009D1A36ABBF802205B69606A1F46002341
:1045A800B8470AF1010A09F101092B8D4B45E4DCF2
:1045B8000136236A1A8DB242D4DCD4E90903BAF170
:1045C800000FC0D0CDF80080D3F8B840524618EE9E
:1045D800103A2946A04703B0BDEC028BBDE8F08F26
:1045E8000026B246E5E70000F8B504460E46114637
:1045F8001A46002385780769837003610E4BFFF71D
:104608006BFF6368BBB9618A51B1228A42B9A36A58
:10461800606AD3F8A0309847A36A606A5B6C9847D1
:10462800238A628A31462046FFF773FF003D18BF90
:104638000125A5702761F8BD7D4F0008024B8968E8
:104648009D22FFF749BF00BF216C0008024B896813
:104658006B22FFF741BF00BF2D690008836A10B5C0
:104668000446D3F88830406A00219847A36A606AF4
:104678005B6B10219847A36A606AD3F8CC3001219C
:10468800984720460321BDE81040FFF7FDBE38B526
:10469800836A04469B6C406A00229847A36A606A52
:1046A800D3F8C05000231A461946A8472046BDE84B
:1046B8003840FFF7D3BF836A89685B6D406A002280
:1046C80009091847836A89681B6C406A184710B53E
:1046D8000446084611461A46FFF74AFE236A436015
:1046E80000238360E3690BB9E06110BD1A469B683B
:1046F800002BFBD19060F8E770B54378012B054695
:104708000C4606D1036A0A461B8B0221FFF7DFFF1E
:104718002061A268216928464C23BDE87040FFF754
:1047280063BF70B513464278012A05460C4604D18A
:104738000A460721FFF7CBFFA061A669E268284671
:1047480046233146FFF750FFB08A70BD2DE9F04F80
:1047580085B0054600AF0C4611B90121116015E07E
:1047680011F003081BD10B79682B07D1CB681B0903
:1047780013608C68002CF0D04FF0010804F00F0390
:10478800022B0FD12109B8F1000FE7D0AB6A686A94
:104798001B6B002298471437BD46BDE8F08F4FF0D9
:1047A8000008EBE7B8F1000F02D1A3681B091360FA
:1047B800666804F1080A360A06F1FF3BD1460AEB9F
:1047C800860659F8040B0009FCF788FBB1458344B9
:1047D800F7D10BF1070323F00703ADEB030D6B468D
:1047E80099465AF8040B3B6007F10C010009FCF7E5
:1047F8008CFBFA687A60014648461FF0E7FB7A6846
:104808003B68B245914418D159461846FCF7B2FAAC
:10481800AB6A01461B6B686A00229847B8F1000F23
:10482800B9D00C34A642B6D054F8041BAB6A686AF7
:104838005B6D002209099847F4E74FF02E0209F84A
:10484800012BCEE731B1826801F00303134304BFA3
:104858000B6883607047000038B543680D4604460E
:1048680011464BB905480BF049FF294660602046C0
:10487800BDE83840FFF7E6BF38BD00BFC0280408D0
:10488800014AFFF7E9BF00BF6F1004080B79092B35
:1048980070B50CBF858AC58A4FF6FF739D420446E2
:1048A80002D1064AFFF7D8FF218B628BA36A606AA0
:1048B8009B6F8A1A2946BDE8704018477C10040887
:1048C80013B50446B9B101F00F03022B0FD10A0941
:1048D8001046019209F002FB0028019A05DA0749FF
:1048E80007480BF0A1FF6060002002B010BD054A28
:1048F800FFF7B2FFF8E70846F7E700BF951004088E
:10490800EC2904089A10040810B404460B4662788F
:10491800006A012A03D15DF8044BFFF767BDA16A5D
:1049280002461431606A5DF8044B02F051BE000083
:1049380070B505460C4600292ED0CA0706D5836AED
:104948009B6B4910686ABDE8704018478B0717D001
:1049580004F00F04022C4FEA11110AD0062C0CD0D7
:10496800062919D0836A406A5B6BBDE87040C9B2FA
:104978001847BDE87040FFF7C7BF836ADB6BE1E704
:10498800836A09681B69406A98472279034B214664
:1049980053F822302846D6E770BD00BF80120408BD
:1049A8002DE9F74F04460D4616461F462846FFF7E1
:1049B8005BF820B1CEB9A36A3946DB6E4CE02846D5
:1049C800FFF760F808B186B1F5E7002D55D0AB07C1
:1049D80053D16B684FEA132BDBB21E2B1BD1F6B1F8
:1049E800083505EB8B0B5D450DD103B0BDE8F08FA5
:1049F8005AF8041B019243462046FFF7D1FF09F1FC
:104A08000109019A19E055F8041B3B463246204635
:104A1800FFF7C6FFE7E71F2B23D1002EE0D0D4F81D
:104A28000C8008F10103E3600BF1FF3305F1080A7C
:104A38004FF00009009386F00102009B4B45D7DC3C
:104A48000BF101013B4655F8211032462046FFF78D
:104A5800A7FFA36ADB6A4146606A03B0BDE8F04F6E
:104A68001847202B03D1AD6886F001069EE72D2B51
:104A780003D1AB68002BA6D19CE729462046FFF757
:104A880057FFA36A606A1B6F3A46314603B0BDE818
:104A9800F04F184738B5026A1278072A04460B46C1
:104AA80006D0022A04D0BDE83840144AFFF7D4BE25
:104AB8009D6885B9A36A606A5B6B10219847A36AF1
:104AC800606AD3F8CC300021984720460121BDE820
:104AD8003840FFF7D9BCAB070BD12B79AF2B08D1E6
:104AE8002046A968FFF724FF2046BDE83840FFF7B5
:104AF800B5BD29462046FFF71BFFE0E7AA100408CA
:104B080070B54378CE68012B0446154606D1036A72
:104B18000A461B8B2946FFF7DAFD7061002371698D
:104B28001A462046FFF7F5FCF1682046FFF700FF1C
:104B3800062D05D1A36A606AD3F88830002198470A
:104B4800A36A606AD3F8BC500023AC461A46BDE895
:104B580070400121604738B50C460546C968FFF723
:104B6800E7FEA1682846BDE83840FFF7E1BE0B79AB
:104B7800342B70B504460D4610D18968FFF7D8FE6E
:104B8800ED68AD6885B9A36A606A5B6B10219847C8
:104B9800A36A0422D3F8A03002211AE0836A406A8B
:104BA8005B6B10219847ECE7AB071FD12B799A2B49
:104BB80013D1A36A606A5B6B10219847A968002922
:104BC800E6D02046FFF7B4FEA36AD3F8A03004224B
:104BD8000321606ABDE8704018479B2B06D1A9687D
:104BE8002046FFF7A5FEEB689968E8E729462046C6
:104BF800FFF79EFECCE710B504468968FFF798FEDC
:104C0800A36A606A1B6DBDE81040002118470000C8
:104C18002DE9F7438D68044616465DB9002A75D01C
:104C2800836AD3F8A03002222946606A03B0BDE83F
:104C3800F043184715F0030740F08A802B79372B8B
:104C480013D132B1836A406AD3F8A030022201211D
:104C5800984720462946FFF76BFEA36A606AD3F897
:104C6800A43003B0BDE8F04318479F2B70D1EB6820
:104C78001A79A12A5AD1A22101AA03F10800FFF743
:104C88007DF9A968804621B38B0722D10B79372B90
:104C98001FD136B1A36A411CD3F8A030606A022242
:104CA8009847A9682046FFF743FEA36A606AD3F8CD
:104CB800A43098474FF00109474510D1B9F1000FCA
:104CC80024D1A36A606AD3F8A0300322791C9847DC
:104CD8001CE02046FFF72CFE4FF00009ECE7019B93
:104CE80053F82710A9B18E0713D10E79A6F1370012
:104CF800464246412046FFF71BFEB9F1000F11D08E
:104D08004EB9184A29462046FFF7A6FD03B0BDE86C
:104D1800F0830026EEE7A36A606AD3F8A4309847C8
:104D28000137C9E7002EFBD00F4AEBE7AB685BB150
:104D38009A0709D11B79372B06D10422294603B0DB
:104D4800BDE8F043FFF7DCBE052229462046F6E71A
:104D580029462046FFF7ECFDA36A0322D3F8A030CA
:104D6800012162E7B5100408C61004080122FFF704
:104D78004FBF70B50D46C9680446FFF7D9FDA9684D
:104D8800A36A606AD3F89830C1F30711342918BFB1
:104D98004039BDE8704014BFC9B202211847F8B5C0
:104DA8004F680C4689680546FFF7C2FD3F0A0C3478
:104DB80000260236B74204F1080400DCF8BD54F8B6
:104DC800041C2846FFF7B4FD54F8081CAB6A686A4F
:104DD800D3F89C3009092539C9B29847E9E72DE984
:104DE800F0414E680C4689680546FFF7A1FDA6F11B
:104DF8000D085FFA88F8360A0C340127B74201DB40
:104E0800BDE8F08154F8041B2846FFF791FDAB6A12
:104E1800686AD3F89C30414698470137EEE72DE998
:104E2800F0414E6804460D46360A8968FFF780FD52
:104E3800032E83BFD4F80C8008F10103E3604FF020
:104E4800000801277B1C9E4222DC032E55DDE56805
:104E5800606A6B1CE360A36A2946DB6E9847A36A05
:104E6800606ADB6A41469847A36A606ADB68012189
:104E78009847A36A606A5B6E9847A36A606A1B6E6C
:104E88009847A36A606ADB6A2946BDE8F04118477B
:104E9800296920460237FFF74BFDB74207DAA36AB4
:104EA800606A9B6D9847A36A606A9B6E9847EB6837
:104EB800A26A606AD2F89C2003F00F010A2911D176
:104EC800C3F30713262B1ABF353BD9B206219047E7
:104ED800B74205DAA36A606A5B6F424600219847C9
:104EE8000835AFE71979852901D13221EFE79B68A9
:104EF8000BB90721EBE73321E9E7BDE8F08110B5ED
:104F080004468968FFF714FDA36A606AD3F89830ED
:104F1800BDE81040032118472DE9F0474E68D0F846
:104F28000C805FFA86F9A9F11E03D3F1000949EB59
:104F3800030908F101030446C360360A01F10805B4
:104F48000027B74206DBA36A606ADB6A4146BDE810
:104F5800F047184755F8041B20460137FFF7E8FCCF
:104F6800B742F0DAA36A606A5B6F424649469847DF
:104F7800E7E7000001F00F03022B70B504460FD0DD
:104F88000B79492B01D04F2B02D10123A37070BD9F
:104F98004A2BFCD0502BFAD0482B0DD10D696DB996
:104FA800A378002BF3D1638A002BF0D020461D4A4A
:104FB800BDE87040FFF750BCCD68F0E7A3788E6875
:104FC8003BB3238A01339BB2012B23820ED1618A22
:104FD800D4E90903D1B1D3F8A03000229847A36AD5
:104FE800606AD3F8A030022200219847294620465B
:104FF800FFF79EFCA36A606ADB6B31099847A36AD6
:10500800606AD3F8A430BDE8704018475B6C9847D5
:10501800E5E7638A0133638229462046BDE870408C
:10502800FFF786BCD11004082DE9F041C568D1F816
:105038000C800E46AB1C04460022D8F80810C3604A
:105048002B46FFF7ADFCB1682046FFF771FCA36A59
:10505800606ADB6E6F1C39469847A36A606ADB6A30
:1050680029469847A36A606ADB684FF0FF31984782
:10507800D8F80C102046FFF75BFCA36A606ADB6A6D
:105088003946BDE8F04118472DE9F047C668D0F821
:1050980014A0B0F81A908682B31CC36006F1010808
:1050A800038BA0F816800446438388680D46FEF7F4
:1050B800DBFCF8B9E768A8687B1CE360FEF7E2FC54
:1050C80020B9A36A606ADB6E41469847A36A606AA2
:1050D800DB6A39469847E9682046FFF729FCA36A46
:1050E800606ADB6A41469847A9683B460122204628
:1050F800FFF756FC2969C4F814A02046A4F81A90B2
:10510800FFF716FCA36A606ADB6A3146BDE8F04720
:1051180018472DE9F347C668731CC36004468868BE
:105128000D46FEF7A1FC024610BBE768A9687B1C88
:10513800E36020463B46FFF733FC2046E968FFF76B
:10514800F7FBA868FEF79EFC00BB2B690BB96B69DF
:105158004BB1A36A606A9B68984720B9A36A606AE2
:10516800DB6E31469847A36A606ADB6A394698471E
:1051780001AA712105F11000FEF700FF0027814602
:105188004F450BD169692046FFF7D2FBA36A606AD5
:10519800DB6A3146984702B0BDE8F087019B53F8B7
:1051A8002780D8F80800FEF75FFC024620BBD4F839
:1051B8000CA0D8F808100AF10103E3602046534612
:1051C800FFF7EEFB2046D8F80C10FFF7B1FBD8F834
:1051D8000800FEF757FC0028D8D1A36A606A9B68CC
:1051E800984720B9A36A606ADB6E31469847A36A7C
:1051F800606ADB6A514698470137C1E770B58D6828
:1052080004463DB9836AD3F8C8302946606ABDE8C8
:1052180070401847AB070ED12B795E2B0BD1A968CC
:10522800FFF786FBE9682046FFF782FBA36A0221A5
:10523800D3F8C830EAE729462046FFF779FBA36A86
:105248000121D3F8C830E1E710B504468968FFF7B3
:105258006FFBA36A606A1B6EBDE8104018472DE912
:10526800F0414E6801F10804360A054604EB86074A
:10527800BC4208D1AB6A686AD3F8A0303146002234
:10528800BDE8F041184754F8041B2846FFF750FBC7
:10529800EEE7896810B4034641B9826A406AD2F8D9
:1052A800A0400A4623465DF8044B18474A68120A8C
:1052B800022A0BD1CA684AB1940707D11279AC2ADD
:1052C80004D15DF8044B0622FFF71ABC5DF8044BC5
:1052D8001846FFF7C4BF4B682DE9F04105460E4656
:1052E8001F0A01F108080024BC4201DBBDE8F08177
:1052F80058F8041B2846FFF71BFB6B683BB10234C8
:10530800284656F82410BDE8F041FFF79BBA01344F
:10531800EAE710B50446FFF7DEFFA36A606AD3F830
:105328009C30BDE810402221184770B58D680446AE
:1053380045B9836AD3F8A03001222946606ABDE8DE
:1053480070401847A9071ED16B68DAB2922A1AD1A1
:105358001B0A022B0CD1EB6853B19A0708D11B79B1
:10536800AC2B05D129460322BDE87040FFF7C8BB26
:1053780029462046FFF7AFFF6968A36A0122D3F8E0
:10538800A030090ADAE729462046FFF7D1FAA36ACE
:105398000122D3F8A0301146D0E70000184B2DE9C0
:1053A800F041D3F8007204460D463FBBC6688968D1
:1053B800731CC36001223346FFF7F2FAA36A606ADE
:1053C8009B691F2101229847E96851B12046FFF7E0
:1053D800AFFAA36A606AD3F8BC503A463B4601214B
:1053E800A847A36A606AD3F8C83001219847A36A1E
:1053F800606ADB6A3146BDE8F0411847BDE8F081D4
:105408008C0000202DE9F041026A1278072A044630
:1054180004D0BDE8F0411A4AFFF71EBA8D685DB99D
:10542800836A406A5B6B10219847A36A606AD3F865
:10543800C430BDE8F041184715F003021DD12B799F
:105448001B2B1AD1C668EF68731CC360B968334652
:10545800FFF7A6FAA9682046FFF76AFAA36A606A06
:10546800D3F8C4309847A36A606ADB6A3146984724
:10547800F9682046FFF75CFAD7E72946F9E700BF45
:10548800EF10040810B4026A0446407801280B465D
:1054980004D15DF8044B104602F08BB8A16A606A2B
:1054A8005DF8044B1C3102F093B800008B072DE91E
:1054B800F14F04460D46164611D001F00F03022B9A
:1054C80016D1D7074FEA111104D401B0BDE8F04F47
:1054D800FFF7D8BF01B0BDE8F04FFFF715BA49682C
:1054E800CBB22D2B7BD00BD8062B0DD02C2B12D06A
:1054F8004E4A2946204601B0BDE8F04FFFF7ACB947
:105508002E2B7FD09D2BF3D1002EF1D105F108026F
:10551800090A20467BE0022A02D0A968FFF708FAA8
:10552800EF68002FE4D017F00309E1D17B68DAB205
:105538008E2AB8460DD1022E4FEA132805D007F15E
:10554800080A08F1FF3BD94511DB08F1010857F8B3
:10555800288098F80430312B24D1022E0FD1A36A69
:10556800606A9B6E9847A36A1B6D012115E05AF883
:10557800041B2046FFF7DCF909F10109E3E7D8F835
:1055880008102046FFF7D4F9012EA36AECD1DB6D91
:10559800606A9847A36A1B6D0021606A01B0BDE884
:1055A800F04F1847322BA3D1012ED4E909030CD1AF
:1055B8009B6D9847A36AD8F808105B6D0022606A53
:1055C800090901B0BDE8F04F1847022E01D15B6E02
:1055D8009847A36AD8F808105B6D0122EFE7AA681C
:1055E800002A85D0002E83D15168090A022907D1E3
:1055F800D3682BB1980703D11B79AC2B3FF478AF54
:10560800083286E7002A7FF473AFA96821B901B090
:10561800BDE8F04F00F074B88E0703D10B79922BD8
:105628000A46E1D005F10802012172E7FB100408DF
:105638002DE9F047C7681E46BB1CC360836A044651
:105648000D46DB6A406A394690469847A36A606A05
:10565800D3F88C3007F1010949469847A968002218
:105668002046FFF723FF2D69002D2DD14146204606
:10567800FFF75EF9236A1978A36A06291DD1D3F8C2
:10568800CC30606A2946984720460121FEF7FCFE87
:10569800A36A606A1B6E9847A36A606ADB6E394624
:1056A8009847A36A606ADB6A49469847A36A606AB2
:1056B800D3F89030BDE8F0471847B200D3F8A830C7
:1056C800606A05329847E7E72B79AD2B07D1A968BF
:1056D8003B4600222046FFF763F9ED68C4E7E96816
:1056E8002046FFF725F9A36A606AD3F888300121BC
:1056F8009847731C424629462046FFF799FFCBE797
:105708002DE9F84304460D46904601F1FF3900267D
:105718004FF0FF37B9F1FF3F0CD17B1C05D1A36ACD
:10572800606AD3F8AC30294698470026AE421DD1AE
:10573800BDE8F88358F8261071B18A070CD10B79A7
:10574800222B09D101370BD1A36A606AD3F8B03094
:105758004A46314698473746013609F1FF39D9E7B5
:105768002046084ABDE8F843FFF776B858F82610EF
:10577800B74208BF896800222046FFF797FE013626
:10578800D4E700BF0F1104082DE9F74304469046FB
:1057980099460F4629B9194603B0BDE8F043FFF70B
:1057A800C7B8C668731CC36015684DB315F003020B
:1057B80026D12B797B2B23D1A9680192FFF7B8F862
:1057C800019A31462046FEF767FE019AE9682046AD
:1057D800FFF76CFE4B4608F10402791E2046FFF7DE
:1057E800D3FFA36A606AD3F8803031469847032113
:1057F8002046FEF749FE03B0BDE8F043FEF75CBE65
:1058080029462046FFF794F8204600223146FEF745
:1058180043FEA36A606A1B6E9847DBE737B50C4600
:10582800054601AA7A2104F10800FEF7A7FBE36800
:10583800019A01462846FFF7A7FF03B030BD2DE9BE
:10584800F04FD1E902232DED028B02F00F02022A5C
:1058580087B004460E4640F00281002B00F0FF801E
:10586800980740F0FC801A792C2A40F0F8809A6852
:1058780002F00F01022940F0F28012097C2A40F060
:10588800EE80DB681A79302A40F0E9809B6804933F
:1058980005AAA42104A8FEF771FB431E022B00F2FF
:1058A800DE80059B01281A6800F0CB80022800F0F2
:1058B8002C819D68E90740F1D280690800F0CF800B
:1058C800D3F804A032B1930704D11179A63902297B
:1058D80040F2C580BAF1000F08D01AF0030F05D1C5
:1058E8009AF80410A639022940F2B980B36877699A
:1058F800218B08EE103A3369E66808EE903A63693E
:105908000293638B01936183731C311D1AF0010BA1
:10591800039306F10208A682E38206F10309E16017
:1059280005D1514620460392FFF702F8039A114623
:105938002046FEF7FDFFA26A606AD26E494690478C
:10594800A26A606AD26A41469047A26A606A926D0A
:105958009047002218EE101A2046FFF7A7FD18EE10
:10596800901A2046FEF7E4FFA26A606AD26A711CA8
:10597800904729462046FEF7DBFFA26A606AD2F804
:105988009C200E219047A26A606AD26A49469047D5
:10599800A26ABBF1000F58D1D36D606A9847A36A19
:1059A800606A5B6E9847A36A606AD3F89C30002DE2
:1059B800ACBF002101219847A36A606A1B6F424669
:1059C80001219847029B6361019B6383002F44D0A8
:1059D800A36A606A1B6E9847BBF1000F03D1A36AE4
:1059E800606A1B6E984739462046FEF7A1FFE568B6
:1059F800606A6B1CE360A36A2946DB6E9847A36A5A
:105A0800606ADB688BF0010101319847A36A606A1C
:105A1800DB6A31469847A36A606A1B6E9847BBF1F8
:105A2800000F03D1A36A606A1B6E984727B1A36A67
:105A3800606ADB6A2946984707B0BDEC028BBDE86F
:105A4800F08F92460325024644E7606A926D9047BC
:105A580051462046FEF76CFFA5E73D46D6E7E568C8
:105A6800238BB4F81A9063836FEA45436FEA534374
:105A7800D4F814A0A3826F1CEB1CF168E3602046E5
:105A8800E782FEF755FFA36A606AD3F888300121E0
:105A98009847A36A606ADB6A39469847A36A606ACE
:105AA800D3F88C3005F1020841469847B1680022C6
:105AB8002046FFF7FBFC20463169FEF739FFA36A51
:105AC800606A9B68984720B9A36A606ADB6E3946AA
