:020000040800F2
:10000000F8770010298003082FEC02081DEC020885
:1000100031EC020841EC020851EC0208000000003B
:1000200000000000000000000000000061EC020879
:1000300063EC020800000000C9FA020801FB020894
:10004000BD7E0308E3EC0208EDEC0208F5EC0208C3
:100050006D6F0308BD7E030871EC020877EC02089F
:100060007DEC020883EC020889EC0208CD1A030833
:10007000DD1A0308ED1A0308FD1A03080D1B030817
:100080001D1B03082D1B0308BD7E0308BD7E03084E
:10009000953703089B370308A13703088FEC020844
:1000A00009ED02080FED020821ED020827ED020814
:1000B0002DED020833ED020839ED020893ED020838
:1000C00099ED02089FED0208A5ED0208BD7E030828
:1000D000BD7E03086FED020875ED02087BED020896
:1000E000B3EC0208E7EC0208BD7E0308BD7E0308FE
:1000F00065ED0208BD7E03086BED0208BD7E0308B6
:10010000BD7E0308BD7E030841ED0208BD7E0308E5
:1001100081ED020887ED020859ED02085FED020843
:100120003D1B03084D1B03085D1B03086D1B0308E3
:100130007D1B0308BD7E0308BD7E0308BD7E03084A
:10014000BD7E0308BD7E0308BD7E030865EC020882
:100150008D1B03089D1B03088DED0208BD7E03085F
:10016000ABED0208B1ED0208BD7E0308BD7E0308B9
:10017000BD7E0308BD7E0308BD7E030800000000AD
:08018000BD7E0308BD7E0308EB
:10018800024B5A6902605861002070478C000020B9
:10019800024B5A6912685A61704700BF8C000020F0
:1001A800C460056146618761C0F81C80C0F8209072
:1001B800C0F824A0C0F828B0C0F82CD080ED0C8B73
:1001C80080ED0E9B80ED10ABC0F808E0FFF7D8BFBC
:1001D800104908B54B690BB92EF016FB1A68586020
:1001E8004A611846C468056946698769D0F81C8061
:1001F800D0F82090D0F824A0D0F828B0D0F82CD08F
:1002080090ED0C8B90ED0E9B90ED10ABD0F808E0C4
:10021800012070478C00002010B50021044600F032
:10022800B3FA18B914B120460DF0AEF910BD00218B
:1002380000F0AABA10B50121044600F0A5FA18B9D1
:1002480014B120460DF0A0F910BDFFF7E5BF10B5B9
:1002580001220C4600F0AAFB18B914B120460DF093
:1002680093F910BD00F0A2BB00F062BB2DE9F0438A
:100278002A4C00254FF0030CD4F888620021013184
:1002880043189A0803F00303B25C5B0042FA03F3D5
:1002980003F00303022BF2D0D4F89432090103EBE4
:1002A80000104FEA910E81B300EB8E0E03681A0717
:1002B80028D1D4F894229A4224D89A1AC2F3011168
:1002C8004F00D4F8981299424FEA92164FEA121248
:1002D80018D9D4F8889219F8068048FA07F303F079
:1002E8000303012B0ED10CFA07F148EA010805F5C2
:1002F800A8713F2D09F806809ABF24F8112001350E
:10030800C4F89C3204307045D0D12DB1013D05F5BB
:10031800A87334F81300AFE7BDE8F0838C00002021
:1003280030B51C4CD4E9A453C01AC109C0F3021E4D
:100338006B5C012202FA0EF223EA02036B54D4F832
:100348002C2383094FEA101CB2EB901FD4F88802C3
:1003580088BFC4F82C33C15C4FEA9C0E0CF0030331
:1003680003255B0005FA03F321EA030100F80E10E8
:100378000CF1010CD4F888024FEA9C0E0CF0030330
:1003880010F80E105A0041FA02F202F00302022A93
:10039800E7D030BD8C00002021F00F0138B5154A98
:1003A800154D0C1AE400A2FB0424640A03462344F6
:1003B800C5F890322246A1EB8413C5F898120021A3
:1003C800C5F89432C5E9A20423F092FBA2000732D3
:1003D800D2080021D5F8900223F08AFB00230121DE
:1003E8004FF0FF32C5E9C932C5F82C332B81A5F887
:1003F800201338BDF32C23FA8C000020024A1389FD
:1004080001331381704700BF8C000020024A138912
:10041800013B1381704700BF8C000020024B1889F4
:10042800003818BF012070478C000020F8B51C4D1B
:100438002B8900220133C5F824232B81C5F89C227F
:1004480005F1080405F5F476032754F8043F1A0764
:100458001AD1D5F89422934216D3D5F898029A1A4D
:10046800C2F3011183424FEA921C4FEA41014FEA5D
:10047800121209D2D5F888E21EF80C0040FA01F3EE
:1004880003F00303012B02D0A642DED1F8BD07FA20
:1004980001F108430EF80C001046FFF7E7FEF3E7FA
:1004A8008C000020A9B32DE9F8431A4F0E46051F0A
:1004B80000244FF0030855F8043F1A0704F101041B
:1004C80019D1D7F894229A4215D89A1AC2F3011171
:1004D8004800D7F8981299424FEA921C4FEA121234
:1004E80009D9D7F8889219F80CE04EFA00F303F00E
:1004F8000303012B03D0A642DDD1BDE8F88308FA37
:1005080000F14EEA010E09F80CE01046FFF7AEFEC6
:10051800F1E770478C0000202DE9F04F574ED6F8D0
:100528008C32D6F89C2285B09800C2B10025C6F856
:100538009C52002843D00024D6F88812A30804F05F
:100548000302CB5C5200134103F00303032B3FD09B
:1005580001348442F0D3D6F89C32002BE7D170B333
:100568004FF0000C654603274FF001094FF00208D1
:1005780004E0012B4AD00135854220D2D6F888E222
:100588004FEA950A05F003041EF80A20640042FAAF
:1005980004F303F00303022B0EEB950128D0032B81
:1005A800E7D108FA04F422EA04020EF80A20D6F881
:1005B8008C320135980085424FF0000CDED3338928
:1005C8000022013BC6F82C23338105B0BDE8F08F2B
:1005D8002046FFF74BFED6F88C320134B4EB830F7C
:1005E8004FEA8300A8D3D6F89C32002B9FD1B6E7F8
:1005F800BCF1000FBFD007FA04F422EA04040C701F
:10060800D6F88C324FF0010C9800B4E7D6F8900277
:10061800EB0805F0070B10F803E0019300EBD50C8D
:100628004EFA0BF0C307E6D5D6F8940229014158D3
:1006380000EB0510A9B102AAB1210CF099F9DDE986
:10064800013242B10DF00AFADDE902010DF0D6F9E6
:100658000DF01AFA019BD6F8902212F803E002EB8B
:10066800030C09FA0BFB2EEA0B0E8CF800E0D6F807
:10067800881211F80A205144BDE700BF8C00002001
:10068800044B1A8900210132C3F89C121A81FFF722
:1006980043BF00BF8C0000203A4A2DE9F047D2E959
:1006A800A5410023091BD2F888620160D2F88C1298
:1006B800C0E90133C0E90333C0E905334FEA810CCF
:1006C8001D469E461F461C461A4699461946984698
:1006D80016F8093049000B4103F00303012B47D0FA
:1006E800022B41D0002B38D0013294450ED04FEA6E
:1006F800920902F0030116F809304FEA410A43FA59
:100708000AF313F0030301D0012BE1D1012C11D01E
:10071800022C02D14169013141618169A14238BF8E
:10072800846194450FD0012B26D04FEA920902F03C
:100738000301CDE70169013101618169A14238BF37
:1007480084619445EFD1474500D9C7602D014FEA30
:100758000E13C0E90153BDE8F0870EF1010EC0F891
:1007680008E001371C46BFE7013545600134BBE7A7
:10077800013545601C46B7E7B84501D2C760B846A1
:100788000027D2E78C0000200F302DE9F843060936
:1007980050D0664C2389002B4CD1B4F82033002B61
:1007A8000D460CBF4FF0010E4FF0000E46D1D4F8A5
:1007B8002C03D4F88C72874239D9D4F888C2411EE8
:1007C800614400221AE00132964252D913F00C0F0C
:1007D8001ED10132964240F29F8013F0300F1CD197
:1007E8000132964240F29B8013F0C00F1AD10132B9
:1007F800964240F297800130B84218D211F8013F72
:1008080013F0030FDFD013F00C0F4FF00002E0D00D
:1008180013F0300F4FF00002E2D013F0C00F4FF08A
:100828000002E4D00130B8424FF00002E6D3BEF136
:10083800000F13D000231846BDE8F883D4E9C92374
:100848009A42B4D334F0E0F8D4F82C03D4F88C727C
:10085800B84238BF4FF0010EAFD3EBE734F0D4F80D
:10086800D4F82C03D4F88C7287424FF0010EA4D828
:10087800E0E78000811A012A01F1010703D1431C36
:100888009B08C4F82C334FEA970E07F003081CF8AE
:100898000E904FEA48080123023103FA08F343EAAD
:1008A800090388420CF80E3013D34FF002084FEAC0
:1008B800910CD4F888E201F003031EF80C905B0059
:1008C80008FA03F3013143EA090388420EF80C30B1
:1008D800EDD2D4F82433D4F894823344C4F82433C2
:1008E80008EB071312011846002123F001F9EA0763
:1008F8004FEA071603469ED50022D4F8900248F81E
:100908000620F9080122445C07F00707BA40224391
:1009180042541846BDE8F88380000130AAE78000F9
:100928000230A7E780000330A4E700BF8C00002056
:10093800034B1A8912B908B1FFF7F2BC704700BF20
:100948008C00002010F00F021CD11749D1F8943206
:10095800834218D810B4D1F8984284420ED9C31AE9
:10096800D1F888429909C3F30110615C4000014144
:1009780001F0030101294FEA131306D010465DF870
:10098800044B7047002210467047013299188808B6
:1009980001F00301205C490040FA01F101F0030174
:1009A8000229F2D01201E9E78C0000202DE9F84F66
:1009B80089460646002800F09D80534D2C89002961
:1009C8006ED0002C6ED1D5F89412D5F88C32411A1D
:1009D8004FEA111E0EF1010709F10F0CB7EB830F57
:1009E8004FEA830A4FEA1C1C234680F08980D5F819
:1009F80088024FF00108BC0807F0030B045D4FEABA
:100A08004B0B44FA0BF404F00304022C4ED024B927
:100A1800013303EB080464454AD3C4453CD04BD3A7
:100A2800434463451CD2D5F89032C909595CCAB30E
:100A38000EF0070E41FA0EF101F001014846FFF7EA
:100A4800A3FE044670B34FEA0812314623F00CF8AF
:100A58002B8913BB3046FFF763FC2046BDE8F88FAF
:100A68000EEB0802E64496450ED902279108D5F800
:100A7800880202F00303445C5B0007FA03F30132C7
:100A8800234396454354F1D1ACEB080212010021EF
:100A980006EB081023F02CF834462046BDE8F88F02
:100AA800002CD8D000242046BDE8F88F08F10108B2
:100AB8000137BA459FD1B0E7F4446246C6440327DC
:100AC8009008D5F8884202F00303215C5B0007FA1E
:100AD80003F3013221EA030372452354F0D1D5F818
:100AE8002C33B3EB9C0F4FEA9C02D5D9C5F82C23C5
:100AF8003446D2E701464846BDE8F84FFFF744BE02
:100B08004FF0010889E700BF8C00002010B58AB0BB
:100B180003A8FFF7C1FDDDE90430094C039A0090F2
:100B28000849204600F056FFDDE908310698079A83
:100B3800CDE900100449204600F04CFF0AB010BD72
:100B480080060408CCAD0308F0AD03082DE9F04792
:100B5800DFF864A14949DAF89422494800F03AFFDD
:100B6800DAF88C12890077D0DFF85091DFF85081DD
:100B7800434F00250EE0012B47D02E22414938462D
:100B880000F028FFDAF88C320135B5EB830F4FEA15
:100B9800830161D205F00306AA06DAF888024FEA53
:100BA80046060CD0DAF88822AB08D35C334103F050
:100BB8000303022B27D0032BDDD16D22DEE72C4661
:100BC800A20804F00303825C5B0042FA03F39B076C
:100BD80002D101348C42F3D3621B7F2A0CD92A49F3
:100BE8009209384600F0F6FEDAF88C3224F03F0518
:100BF800B5EB830F30D2002609EA05124146384684
:100C080000F0E8FECEE73D22B8E7DAF894221F4963
:100C18002B01D2588A421DD01D4B9A4222D01D4B1F
:100C28009A4223D01C4B9A421ED01C4B9A421BD08E
:100C38001B4B9A421CD01B4B9A4219D01A4B9A4212
:100C48001AD01A4B9A4215D0194B9A420CBF4D2212
:100C5800682293E7542291E7BDE8F0471549084810
:100C680000F022BB4C2289E7532287E7442285E71C
:100C7800412283E7422281E746227FE738AE030814
:100C8800800604087CAE030858AE0308A03C04089C
:100C9800202E04083C200408203A0408BC37040825
:100CA800401C0408C81B040864280408F428040825
:100CB800D42F040854AE03088C000020F0FF0F0066
:100CC80074AE0308054B1B6A5A68824204D8801A1E
:100CD800043053F8200070471B68F5E78C000020AB
:100CE800014441F20553884204D398B2012838BF21
:100CF8000120704710F8012B03EB43135340F2E730
:100D0800034B044A1A620022C3F8EC21704700BF63
:100D18008C00002008B804082DE9F84F80460D46DD
:100D2800FFF7DEFF134B1C6A07460CB920461EE08E
:100D3800E36804F1100B0BEB83095E464E45B2469F
:100D480001D32468F1E756F8040B0388BB42F5D1B8
:100D58008378AB42F2D12A464146033022F0F0FEB6
:100D68000028EBD16068AAEB0B0A00EBAA00BDE8EB
:100D7800F88F00BF8C0000202DE9F04780460E4612
:100D8800FFF7CAFF024600287FD1FF2E03D940494A
:100D980040480BF067FE404CD4F8EC01351D90B18B
:100DA800D4E97C132B448B422AD92944FFF75AFAF9
:100DB8000746E0B90246D4F8F411D4F8EC01FFF77D
:100DC80051FAC4F8EC71802D2F4638BF8027384679
:100DD800FFF72DFAC4F8EC0100283DD12846FFF7AB
:100DE80026FAC4F8EC01B0BB28460CF0CDFBD4F8C9
:100DF800F0312B44C4F8F031D4F8EC31002BE2D0B8
:100E0800D4F8F491D4F8ECA131464D444046C4F8E6
:100E1800F451FFF765FF0AEB09070AF80900000A11
:100E28007870BE7032464146F81C22F01DFEBB1990
:100E38000026DE70236AD3E90253AB421BD36D0050
:100E48000A2D38BF0A25281D8000FFF7F0F948B998
:100E5800C4F8EC01C8E72F460023C4F8F071C4F8C1
:100E6800F431CDE7226A02605368D268C660134441
:100E7800C0E901352062236ADA68511C0432D9605E
:100E880043F822705A68013A0A441046BDE8F087D0
:100E98007FAE0308C02504088C00002010B5044666
:100EA80022F060FE01462046BDE81040FFF764BF0F
:100EB80008B5FFF707FF008808BD08B5FFF702FF70
:100EC800807808BD08B5FFF7FDFE033008BD08B5FA
:100ED800FFF7F8FE83780B60033008BD2DE9F8436F
:100EE8001D46002303600B6013602B60174BDFF86F
:100EF80060901C6A0746884616460CB14C4505D1D9
:100F08002B68326813442B60BDE8F8833B680133D3
:100F18003B60E268D8F800301344C8F80030E26853
:100F280004F1100303EB8202934207D32046FFF734
:100F380009FD2B68246818442860DEE753F8041B71
:100F480088783168043101443160EDE78C00002075
:100F580008B804082DE9F8430E4B0F4F1C6ADFF858
:100F68003C80DFF83C900CB1BC4201D1BDE8F8836D
:100F7800E36804F1100505EB8306B54201D3246844
:100F8800F1E755F8042B41460332484600F022FDAC
:100F9800F3E700BF8C00002008B8040884AE0308FB
:100FA8008006040830B50023202411F8012F0AB95F
:100FB800027030BD120600F101051FD50BB1047097
:100FC80028460B78124A03F07F036BB9013A12F8EE
:100FD800013F13F0800F054600F101000BD003F02C
:100FE8007F032B700123E0E712F9015B002DFBDA88
:100FF800013BDBB2E9E700F8013CE8E7012B04BF5D
:10100800047028460B7800F8013B0223CDE700BFA7
:101018008BAE030838B543681944036899420546FE
:1010280011D9037BDB0703D5074800210BF01AFD14
:1010380001F1100424F00704083480682146FFF702
:1010480006F92C60A86038BDC025040870B50446B0
:101058000E4611461546FFF7DDFFD4E901302A4652
:101068001844314622F030FD63682B44636070BD3C
:1010780070B54668B142044628BF31460D46012185
:10108800FFF7C8FFA368681C5919721B184422F09F
:101098001BFD6368A06801336360284470BD38B5E0
:1010A8000129044638BF01210025084621606560F2
:1010B800FFF7B2F8237BA06065F30003237338BD04
:1010C80038B505460C460131FFF7E9FF6C6038BDBD
:1010D8000023C0E90132037B016043F0010303737D
:1010E8007047000038B514460546FFF7D8FF024B95
:1010F8002560636038BD00BF55100008037BDB071F
:1011080010B5044602D48068FFF7AEF80023A36048
:1011180010BD13B501901020FFF77EF80199044621
:10112800FFF7BDFF204602B010BD10B5044650B110
:10113800037BDB0702D48068FFF796F82046BDE8FA
:101148001040FFF791B810BD38B5037BDB070446A4
:101158000D4603D5074800210BF084FC0168806820
:101168002944FFF774F82368A0601D4425601844DB
:1011780038BD00BFC025040838B504460D46FFF742
:1011880049FFD4E901301D446560184438BDD0E9F1
:1011980000239A4210B5044602D10121FFF7D4FF7B
:1011A800D4E901320021D154A06810BD10B50C4615
:1011B8000121FFF7E1FF047010BD7F29F8B50C4647
:1011C800CEB204D80121FFF7D7FF0670F8BD06F0AC
:1011D8003F06B1F5006FC1F3871546F0800607D2C8
:1011E8000221FFF7C9FF65F03F0505704670EDE77E
:1011F80005F03F05B1F5803FC1F3073745F080059D
:1012080008D20321FFF7B8FF67F01F070770457082
:101218008670DBE70421FFF7AFFFA40C07F03F0758
:1012280064F00F0467F07F07047047708570C6701C
:10123800CCE713B504460846019122F093FC0199C6
:101248000246204602B0BDE81040FFF7FFBE10B5C9
:101258001446FFF70DFF047010BD10B51446FFF7D4
:1012680007FF047010BD43688B422CBF591A002138
:101278004160704738B50446154662688A42084698
:1012880003D929448A4201D8606038BDA368521A3C
:101298001844194422F018FC63685B1B6360F4E788
:1012A8000846114623F096BA37B505460846019117
:1012B80022F058FC044620B102466B680199286860
:1012C8009847204603B030BD2DE9F74F89469DF871
:1012D800301017460D9A11F0DF0F0646A2EB0702F1
:1012E8003DD0302925490CA813BF804688464FF0C9
:1012F800100A4FF0010A13F0800535D002EBD274C2
:101308006510A2EB6404002D35DDAB46DA45524684
:1013180073683068A8BF5A46414601929847019AB7
:10132800ABEB020BBBF1000FF0DC2FB17368306838
:101338003A46494698473D44002C0CDD2544A245D1
:101348005746A8BF2746736830683A464146E41BAB
:101358009847002CF3DC284603B0BDE8F08FDFF88F
:1013680020804FF0100AC6E713F0010401D115469A
:10137800C9E71446D9E70025D7E700BF990604084E
:10138800880604082DE9F04389B006460020119D1F
:101398009DF84880139F8DF80F000AB381421ADA2E
:1013A8002D228DF80F204942109A08ACA2F10A00AC
:1013B8000DF11009B1FBF3FC03FB1C12092A8CBFC9
:1013C8001218303204F8012D4C458E4661460ED075
:1013D8007345EFD90BE0A80727D52B228DF80F20EE
:1013E8000029E1D130238DF81F300DF11F0415F0CD
:1013F80040099DF80F301CD023B30122CDE90082AB
:101408002B460DF10F013046FFF75EFF013F814685
:1014180008AACDE900872B46121B21463046FFF764
:1014280053FF484409B0BDE8F0836A07D8D52022A5
:10143800D4E7002BECD004AA9442E9D904F8013C83
:10144800013CE5E79946E3E72DE9F04F93B0814683
:101458001E46C8079DF874301C9D0793DDE91E875A
:101468000C4692460BD4A10703D121687F4B9942C1
:1014780005D020460DF0D2F8400040F0010415F0E8
:10148800810306D1079A302A03D1B845B8BFB846B8
:101498001F46204610F000FA00280DF1280B18DB33
:1014A800AA0712D52B238DF828300DF12903E80659
:1014B800F6B21CD5BAF1020F0DD11946302001F849
:1014C800020B701C58700B4611E06B0701D52023E6
:1014D800E9E75B46EBE7BAF1080F62D130211970F2
:1014E800A90545BF06F10E015970013302330021E9
:1014F80015F0200F1970A3EB0B0306930CBF0B46D6
:101508002C23012F0EA8C8BF45F040050B9015F0FD
:1015180040024FF01000CDE90C01CDE902638DF8CF
:101528002710059247D0CDE900A123460DAA0CA9A2
:101538000BA810F08BF803782D2B824606D18DF876
:1015480027300D9B013B00F1010A0D93012F40F359
:1015580085800D9C059BBC42B8BF3C462BB19DF8CD
:10156800273003B10134069B1C44A0452EDD15F03D
:101578000103A8EB04042AD126461C4625F00105E0
:101588004EB1202300930023019639491A46484654
:10159800FFF79AFE0646059B002B5CD13023079384
:1015A8003AE0BAF1100FA2D11946302001F8020B27
:1015B80006F1170086E70AABCDE900A30DAA23467A
:1015C8000CA90BA810F042F88246BFE700240026B9
:1015D800D4E7002426469DF827305BB1002301227A
:1015E800CDE900320DF127014846FFF76DFE08F1FD
:1015F800FF380644069B63B100230122CDE900327F
:101608005946069A4846FFF75FFE069B0644A8EB34
:101618000308012FD8BF4746079B00930D9A0197EF
:101628002B4651464846FFF74FFE06444CB120234F
:10163800009300230E4901941A464846FFF744FEDA
:1016480006440B980EAB984201D0FEF70DFE3046CB
:1016580013B0BDE8F08F30230793BCE7059B002B40
:10166800B7D11C461E464746D6E700BFB42C04082F
:101678001BCA04082DE9F0431646B2078BB09846FA
:101688005ABFC6F380035B012B2300930A46139BC2
:10169800DDF848900746202102A80AF079F8F305FA
:1016A800044610D5431C1F2B0DD800F128020DEB62
:1016B8000204252204F8202C03F128026A440021A0
:1016C80002F8201C1C4616F040051DD09DF8083075
:1016D8002F2B4FF0000319D8012202A9CDE90032BF
:1016E8003846FFF7F1FD09F1FF390546013C0DF1D8
:1016F8000901CDE90089334622463846FFF7E4FD63
:1017080028440BB0BDE8F08302A9F2E702A91D4600
:10171800EFE700002DE9F04F824689B01446002615
:101728000B461D4613F8012BC2B9A94219D30B78F1
:10173800002B00F04681013120234FF000080A46B3
:1017480012F8015B3DB12B2D21D014D8202D21D0CA
:10175800212D22D000254FF00A0C25E0252AE0D1C2
:10176800E3E76F1ADAF80430DAF800003A469847E7
:101778003E442946DBE72D2D05D0302DEAD148F02F
:1017880040082B4601E048F001081146D7E748F029
:101798000208FAE748F00408F7E748F00808F4E711
:1017A8000CFB0522A2F130050F4611F8012BA2F11E
:1017B80030000928F4D92E2A40D17A782A2A0FD065
:1017C80000224FF00A0E0F4611F8010BA0F1300C61
:1017D800BCF1090F07D80EFB020BABF13002F2E7A0
:1017E80054F8042B023722EAE27B3A786C2A08BFC5
:1017F800013797F80090B9F1000F00F0E280B9F1D5
:10180800780F6AD8B9F1570F1BD8B9F1470F61D8CB
:10181800B9F1440F61D9073424F00704F4E8020150
:10182800049339F027F9CDE9005B00EE100A049B18
:10183800424649465046FFF71DFF62E04FF0FF3B26
:10184800D3E7A9F15802202A47D801A151F822F07C
:1018580099190008E3180008E3180008E3180008BD
:10186800E3180008E3180008E3180008E318000864
:10187800E3180008E3180008F5180008171900080D
:101888007D1900081F1800081F1800081F180008F5
:10189800E3180008E3180008E3180008E318000834
:1018A800E3180008E3180008E3180008E318000824
:1018B800BB1900082B190008E3180008551900087F
:1018C800E318000899190008E3180008E31800084D
:1018D80099190008B9F1500F6BD0DAF80430DAF82A
:1018E800000001223946984701360BE054F8042BD2
:1018F800CDE9003543463AB1344904225046FFF752
:10190800E3FC0644791C0BE731490522F6E754F855
:10191800042B8DF81C20CDE900350122434607A988
:10192800ECE707A954F8040B0493FFF7D0FABBF1CE
:10193800FF3F049B014604D0079A934538BFCDF872
:101948001CB0CDE90035079A4346D7E754F8041B85
:1019580005930846049122F005F9BBF1FF3FDDE944
:101968000413024602D0584528BF5A46CDE900352F
:101978004346C3E7CDE9023561230093CDF80480DF
:101988000A23012254F8041B5046FFF7FBFCB8E772
:1019980029F00F0209F101010F3A01F00601D2B254
:1019A800CDE90235CDF804800092C1F11003002280
:1019B800E8E7CDE9023561230093CDF804801023D0
:1019C800F5E7304609B0BDE8F08F00BF740604089B
:1019D800790604080EB403B503AA52F8041B019251
:1019E800FFF798FE02B05DF804EB03B0704790F97A
:1019F80000200378002A0ADA03F07F03402213420A
:101A080007D110F8012F02F0C001802905D018462F
:101A1800704723EA02035208F1E702F03F0242EA64
:101A28008313EEE7431C18460133027802F0C00224
:101A3800802AF8D070470023814201D818467047A1
:101A480011F8012D02F0C002802A18BF0133F3E714
:101A580001440346002099421A4600D8704712787C
:101A680002F0C002802A03F1010318BF0130F2E737
:101A78007F289DBF024B185CC0F3400000207047D0
:101A8800AA0604087F289DBF024B185CC0F3C0005B
:101A980000207047AA0604087F289DBF024B185CE7
:101AA800C0F3800000207047AA0604087F289DBF65
:101AB800024B185CC0F3801000207047AA06040887
:101AC8007F2809D8064B1B5C13F00C0F06D1A0F138
:101AD8005F03584258417047002070470120704703
:101AE800AA0604087F289DBF024B185CC0F30010AB
:101AF80000207047AA0604087F289DBF024B185C87
:101B0800C0F3401000207047AA06040808B5024632
:101B1800FFF7E8FF00B12032104608BD08B50246BD
:101B2800FFF7EAFF00B1203A104608BD303809280F
:101B380084BF20F020000738704710B501440246E2
:101B4800E5240020914203D8B0FA80F0400917E05C
:101B580012F8013B30B103F0C003802B11D1431EB2
:101B6800D8B2EFE7BF2B09D9F72B09D8DB0803F068
:101B7800060344FA03F303F00300E3E71B06E1D589
:101B880010BD0020FCE7023981420B4603D31A88B6
:101B98000239002AF8D00233181A40107047B2EB05
:101BA800131F70B54FEA131415D9121B03F00F0356
:101BB80001EB440115460E46012D31F8024B18BFC2
:101BC8003468DC40A4B2013D20F8024BF3D104B9DB
:101BD800013A104670BD0022FBE7F0B5059F0024CE
:101BE800D21B2646A74210D100EB470501EB47015F
:101BF80000239A4214D105EB42031EB1012125F8B6
:101C080012100233181A4010F0BD31F8145033F88E
:101C180014C06544354420F814502E0C0134E1E713
:101C280031F81340344425F81340260C0133E0E71B
:101C3800F0B4049F0025D21B2C46AF420BD100EB19
:101C4800470601EB470500239A420FD106EB4201F4
:101C5800F0BCFFF798BF31F81560344433F81560CD
:101C6800A41B20F8154024140135E6E735F81310B5
:101C78000C4426F8134024140133E5E72DE9F0431A
:101C8800079CDDF828E0DDE9087602391546844628
:101C98004FF6FF78A4EB020955B900EB42011FB1DA
:101CA800012320F812300231BDE8F043FFF76BBF83
:101CB80031F8024F013D4444264405EB0904AC4287
:101CC80096BF33F8024B4FF6FF744444744486EAD7
:101CD800040E17FA8EF72CF8027B4FEA144E360CD6
:101CE8003F0CD9E738B502290446806838BF02217D
:101CF8000D4618B12368B1EB930F07D96900FEF7B9
:101D0800A6FA2368A06065F39F03236038BD38B541
:101D180004460C20FEF780FA23682278054602F074
:101D28000102C3F39D0023F0030313432B60636890
:101D38006B604000FEF770FAA8602268A168C2F3E1
:101D48009D02520021F090FE284638BD994210B5F8
:101D580011D313D800EB410002EB410209B9084640
:101D680010BD30F8023D32F8024D1B1B002B02DB80
:101D780004D10139F2E74FF0FF30F1E70120EFE736
:101D880010B5044638B18068FEF76EFA2046BDE803
:101D98001040FEF769BA10BD70B505460C46022121
:101DA800FFF7A0FF002C2B78B4BF0122002262F3BA
:101DB8000003AA682B70B4BF61422146012388B290
:101DC800090C14461E4622F8020B03F10103F6D152
:101DD8006E60208070BD0023C0E9003383607047C7
:101DE80028B103789B0702D48068FEF73DBA704794
:101DF80038B505460C464968FFF774FF22782B78FA
:101E0800A86862F300032B7063686B606268A1685E
:101E18005200BDE8384021F027BE0A4629B90178AA
:101E2800426062F3000101707047FFF7B5BF08B563
:101E3800FFF7D1FFBDE80840FFF7EFBF920042F07F
:101E4800020210B402600022C0E901215DF8044BCF
:101E58001946FFF7E2BFF8B59DF8187014461D46FD
:101E680004210646FFF73EFF22462B4627B1002DE8
:101E78000CDA624265EB4503317867F30001317093
:101E88000021716052EA030102D1F8BD0027F3E78F
:101E9800D6E901104C1C746020F81120120C42EA9B
:101EA80003421B0CEEE72DE9F3418DED010A019C7D
:101EB8000378E20F62F300030370C4F30F4313F4D3
:101EC800FF43074608D13B786FF300033B700023BC
:101ED8007B6002B0BDE8F081B3F5FF4FF3D0C4F3E7
:101EE800C753A3F17F05002DEDDB05D1012102B019
:101EF800BDE8F041FFF750BFA3F16F08C4F3160423
:101F0800162D4FEA281844F4000421DCC5F1170502
:101F1800EC4000252E4641463846FFF7E3FEC7F859
:101F2800048026B1B8687200002121F0E1FD45B1B6
:101F3800BB6804FA05F223F81620C5F11005EC4039
:101F48000136B045C5D0BB6823F81640240CF7E726
:101F5800B3F1960605F1090548BFA3F1870605F018
:101F68000F053611D7E72DE9F84304468F18C2F359
:101F78005B020D46511C9846089EFFF7B3FE237876
:101F880068F300032370AC4600221FFA86FEBC45A6
:101F98006046626002D3401BBDE8F8830178A1F176
:101FA8003003092B0CF1010C05D9A1F14103192BC0
:101FB80012D8A1F13703B342EDD2A068904681460A
:101FC800B8F1000F0FD100EB420113B120F8123025
:101FD8000231091A4A10DAE7A1F16103192BDAD89C
:101FE800A1F15703E7E7B9F8001001FB0E3329F810
:101FF800023B08F1FF381B0CE2E7F8B5044615462A
:102008001E46C1B1531E1E444FF0FF37E9000F3181
:1020180009092046FFF766FE237800216FF30003C5
:10202800237061604DB9D4E9011000EB4101FFF75D
:10203800AAFD6060F8BD0127E8E700230F2908DC46
:1020480032788A401343013D9BB201F108013E44B6
:10205800F4D16268501C6060A068103920F8123012
:10206800E0E738B505780B7805F0010203F00103C5
:102078000446981A08D1D1E90132D4E90110FFF7D2
:1020880065FEEB0748BF404238BD884210B504469C
:1020980001D0FFF7ADFE23786FF30003237010BD66
:1020A800884210B5044601D0FFF7A2FE63683BB131
:1020B8002378C3F30002C2F1010262F30003237024
:1020C80010BD88421FB5044601D0FFF791FE626833
:1020D80062B901212046FFF705FEA268012313809B
:1020E8006360237843F00103237010E02378D90755
:1020F8000FD5A1686FF3000323700123ADF80E30EC
:10210800009308460DF10E03FFF792FD606004B0DE
:1021180010BD511C2046FFF7E5FDA1686268012348
:10212800ADF80E30009308460DF10E03FFF755FD8C
:102138006060D6E72DE9F8434B6805460E4614461D
:1021480003B12AB931462846BDE8F843FFF750BE27
:1021580002F10F014FEA111803EB1111FFF7C2FD4D
:10216800D6E9013208EB0307A96807F1004C14F01F
:102178000F040CF1FF3C01EB4C0C08BF102402EBE0
:1021880043021946E1464FF0000EC4F1100401BBAA
:102198006FF0010253430CEB0300C8F101082EFA5B
:1021A80004FE4FEA480200EB480840462CF803E0DA
:1021B800524221F09DFCA8F1020817B138F81730F7
:1021C8009BB16F6032782B7862F300032B70BDE807
:1021D800F88332F8020D40EA0E0020FA04FE29F8CE
:1021E80002E901394FEA004ED1E7013FE5E72DE961
:1021F800FF410D4649680646144601B132B92946E1
:10220800304604B0BDE8F041FFF7F2BDFFF76AFDC4
:10221800B768D5F808806A68234641463846FFF70C
:10222800BEFC70602978337861F300033370DB07F4
:1022380002462AD500236968ADF80E302009994274
:1022480001D083420ED181421FD904F00F0401232B
:1022580038F8101003FA04F4013C214211D0ADF80B
:102268000E3007E038F813504DB101238142ADF824
:102278000E30EAD801235AB93B80736005E0013378
:10228800DDE7BDF80E30002BF4D104B0BDE8F081D5
:10229800009339460DF10E033846FFF79EFC706037
:1022A800F3E773B50C4615460646D2E90132D1E983
:1022B8000110FFF74BFD0028BEBF23462C461D46E4
:1022C80023782A7861685340DB071AD401313046F5
:1022D800FFF708FD6B680093D4E90121AB68B0688B
:1022E800FFF77BFC706023783278C3F30003002883
:1022F8000CBF002303F0010363F30002327002B045
:1023080070BD3046FFF7EEFC6B680093D4E90121FD
:10231800AB68B068FFF78CFCE4E7F7B50C461746E6
:102328000546D2E90132D1E90110FFF70FFD002877
:10233800BEBF23463C461F4623783A78616883EA45
:102348000203B4BF01260026DB0719D50131284650
:10235800FFF7C8FC7B680093D4E90121BB68A86833
:10236800FFF73BFC6860B8B1237803F001030EB1B6
:1023780083F001032A7863F300022A7003B0F0BDEA
:102388002846FFF7AFFC7B680093D4E90121BB68BE
:10239800A868FFF74DFCE5E70346EBE72DE9F04FAA
:1023A80014464A6863689A420D463EBF25460B4666
:1023B8001C462B786968DB0785B0064622D423784B
:1023C80013F001071ED1FFF78DFCD4E9011CB0689A
:1023D800AD683B4699420CD100EB4101FFF7D3FBB6
:1023E80000237060327863F30002327005B0BDE8F4
:1023F800F08F35F813203CF81340224020F81320C2
:102408000133E7E701313046FFF76CFC2F7823787A
:10241800D5F804C0B068A26887EA0301C94301F08F
:10242800010E41F3000189B207F0010847F30007E4
:102438000291B9B20191A968A1F1020A616803F099
:10244800010943F300039BB2A1EB0C01009367461B
:10245800834603918FB900EB4C01BEF1000F03D006
:10246800012320F81C300231FFF78DFB70602278C1
:102478002B78C2F300021340B4E73AF8021F019B1D
:102488005940039B013F8844D919B9429BBF32F890
:10249800021B009B009959408944029B08EA0901E4
:1024A80059401EFA81F12BF8021B4FEA19494FEAED
:1024B80018484FEA114ECDE72DE9F84F15464A68FE
:1024C8006B689A420C463EBF2C460B461D46237845
:1024D8006168DB07064632D42A7812F001072ED14C
:1024E800FFF700FCD5E9013EA1686468D6F808C08A
:1024F800E41A3A46934213D101EB430100220CEB54
:102508004303944215D103EB4403A3EB0C03581087
:1025180000223378706062F300033370BDE8F88FEF
:1025280031F812003EF8125028432CF812000132FC
:10253800E0E731F8120023F812000132E1E7013137
:102548003046FFF7CFFB22782B786168B068A46823
:10255800D5E901E702F0010803F0010942F300029E
:1025680043F3000392B29BB2A4F1020C0D468346DA
:102578004FF0010AAEEB010E2DB900EB4101FFF758
:1025880002FB0122C5E73CF8024F013D5440A0443C
:102598000EEB0504AC4296BF37F8024B1C465C4074
:1025A800A14448EA0904E4431AFA84F42BF8024BDC
:1025B8004FEA19494FEA18484FEA144ADCE7F0B5E0
:1025C80015464A686B689A4238BF0B460C463CBFB2
:1025D8002C461D4627782B7861685F4017F0010765
:1025E80085B006463BD1FFF77DFB237813F0010346
:1025F80029D1D5E9012C6168B068A768891A9A427F
:1026080012D107EB4207002300EB4202994214D192
:1026180002EB4101FFF7B7FA70600027337867F3E0
:102628000003337005B0F0BD37F813403CF8135081
:102638006C4020F813400133E1E737F8134022F8E3
:1026480013400133E2E7CDE9027701976B68009305
:10265800D4E90121AB68B068FFF710FBDCE7013172
:10266800FFF740FB2B78B068DB4303F001030393CB
:102678002378DB4303F001030127029301976B687A
:102688000093D4E90121AB68FFF7F8FA7060C5E759
:102698002DE9F04F4B6885B004460E4615460BB140
:1026A800536843B923786FF30003237000236360F2
:1026B80005B0BDE8F08F81422ED1FFF728FBA54277
:1026C8000646074600D105466B68716820461944DE
:1026D800FFF708FB2268A068C2F39D0252000021A0
:1026E80021F006FAB368D4F808E0D6F8049001930C
:1026F800AB68029300226B6803930EEB4908F4461B
:102708001146039B934231D0DDF804B0CDF8009018
:10271800ACF10200002318E0824204D1FFF7F7FA77
:1027280005460746D0E70027CEE730F802AF534406
:102738001946029B3BF802AB33F8123003FB0A132D
:102748000099038001391B0C009100990029ECD1F4
:102758004146881C13B1A8F800300146A1EB0E01D0
:1027680049100CF1020C01328046CAE761602A78F0
:10277800337853402278384663F30002227005B05C
:10278800BDE8F04FFFF7FCBA4B6870B50546144634
:1027980013B11378DA0706D52B786FF300032B7083
:1027A80000236B6070BD636823B9BDE870400121E8
:1027B800FFF7F2BA0846FFF7AAFA06462046FFF7DF
:1027C800A6FA012104462846FFF7E6FA636883B1B2
:1027D800A3681B88DB0704D5324629462846FFF73D
:1027E80057FFA168626801230846FFF7D8F96060BF
:1027F80038B93046FFF7C4FA2046BDE87040FFF705
:10280800BFBA324631463046FFF742FFDEE72DE9D0
:10281800F04F0C4651688FB090460131054602933F
:10282800FFF760FAD8F80420A868013252000021A6
:1028380021F05EF92B7800266FF300032B706E6091
:10284800D8F8041020460131FFF74CFA41462046DB
:10285800FFF7CEFA029BA768D4F80490D3E9013AAF
:102868000093AB6803935246009B49463846FFF7EE
:102878006DFA002835D1039A6060012313806B60DC
:1028880023786168C3F3000200290CBF002202F01C
:10289800010262F30003029A237098F8003012785C
:1028A8005340DB0740F100816B682A78003B18BF72
:1028B800012363F300022A70002900F0F5800BA8B9
:1028C8004FF0FF31FFF7B3FA0BAA29462846FFF766
:1028D800E8FC029A214620460FB0BDE8F04FFFF70A
:1028E800E0BC01DA6E60CBE7009B03F10042013ADD
:1028F8004FEA420E3AF81230180406F1010150D599
:1029080007EB490B0BF102030193B3B2002109F164
:102918000100C3F1100627F81910BC466060049640
:10292800019EB44541D33AF812209A400492009A85
:10293800012A09D90AEB0E02C3F1100132F8022C60
:10294800CA40049911430491009A801A6860039A56
:1029580000F10040013802EB400206920EF102023B
:102968000992AAF1020A626805920599009A8A42B8
:1029780027D301F1004B0BF1FF3B07EB4B0B002278
:10298800C3F110005F4576D96FF000416B682BB139
:1029980003985A1830F81220002A76D06FF00041B8
:1029A80078E05B009BB20E46A6E7BCF8006006FA2A
:1029B80003F941EA090904992CF8029BCE40B1B207
:1029C800AEE7BBF800103BF8022C42EA014204993A
:1029D800B2FBF1F20192099AABEB0202CDE9072AA8
:1029E800002016468646B3450FD8BBF800100844A9
:1029F80000283BD1069A019922F802190692059AF5
:102A0800013AABF1020B6260ADE7089AB6F80090A4
:102A180032F8021F08929940019A41EA1E4E1FFAA5
:102A28008EF1514319FA80F91FFA81FC090CA9EBC0
:102A38000C0CC1EB204126F802CB01EB2C40D2E76D
:102A480039F802CF0CFA03FC4CEA1E4EB6F800C067
:102A580011FA8EF18C4426F802CB4FEA1C41B3459B
:102A6800EED8019A013A08440192C1E70021079E75
:102A7800D1468E46F3E7BBF8001041FA03F632431D
:102A880081402BF802298AB27CE7013B6B607DE725
:102A9800013B63606368002B3FF4F2AE5A1837F8C5
:102AA8001220002AF4D0EBE60FB0BDE8F08FF0B5A5
:102AB8001F464B6885B004460D4616464BB1137841
:102AC800DA0706D47B68012B0BD1BB681B88012B66
:102AD80007D123786FF3000323700023636005B0E8
:102AE800F0BD01212046FFF757F97368002BF6D097
:102AF8002846FFF70CF905463046FFF708F9064661
:102B080001A8FFF768F97368B3B1B3681B88DB07DE
:102B18000AD52A4621462046FFF7BAFD3B462246FB
:102B2800214601A8FFF773FEB168726801230846C1
:102B3800FFF735F8706058B901A8FFF751F9284632
:102B4800FFF71EF9304605B0BDE8F040FFF718B9A9
:102B58002A4629462846FFF79BFD3B462A46294632
:102B680001A8FFF754FECEE710B5D0E901210023F4
:102B780001EB4202914205D30278D20748BF5B427B
:102B8800184610BD32F8024D44EA0343F2E730B567
:102B9800D0E90124002304EB4202944206D30278D0
:102BA800D20748BF5B420B60012030BDB3F5004F30
:102BB80004D232F8025D45EA0343EEE70020F4E769
:102BC8002DE9F0470546D1B19818D5E901840026CA
:102BD800A4F1020E4FF0010C374603EB0209B8F1DD
:102BE800000F0ED1B9B3C21A18462B7813F0010F93
:102BF800BDE8F04714BFFF21002120F079BF184637
:102C0800E3E73EF8024F103744EA064695F800A07D
:102C1800072F0AF0010A02DC08F1FF38DFE7B4B237
:102C2800BAF1000F06D0E4435CFA84FC1FFA8CF476
:102C3800CCF3072CE4B249B100F1FF3A00F8014C9B
:102C480053450BD0083F360A5046DFE782460AF85C
:102C5800014BCA45F5E71A44121AC6E7BDE8F087E2
:102C6800D0E901329FED0C0A9FED0C7A02EB430389
:102C78009A4205D30378DB0748BFB1EE400A704794
:102C880033F8021D07EE901AF8EEE77AE0EE077ABD
:102C9800B0EE670AECE700BF0000000000008047C4
:102CA8002DE9F84F44689DF828B00B9F81468A4665
:102CB80015461E469CB982B1551E3A4615F8011FA5
:102CC800134639B930221A70002203F8012FD81B95
:102CD800BDE8F88F02F8011BF0E73B46F2E7640015
:102CE8002046FDF799FAD9F808108046224620F0C8
:102CF800BBFE3A463B4608EB0401A6F13A00A1F1B7
:102D0800020C0026E045644639D93036392E1C4677
:102D180088BF361804F8016B4646B142B44638D825
:102D2800BBF1000F0AD00126A4EB020CBCF1030F83
:102D380002BF9C1C83F801B02246F6B14046FDF75D
:102D480093FA5DB1284620F00DFF2A18611E13463C
:102D5800AB4229D8954288BF0020044499F8003036
:102D6800DB0744BF2D2304F8013B3B46621E9A4211
:102D78001FD800232370E01BAAE72346BFE7248857
:102D880044EA0646B6FBFAF42CF802490AFB146634
:102D9800B8E7BCF800C00236BCF1000FBDD0BBF1EB
:102DA800000FEAD00026BFE713F8016D01F8016FA4
:102DB800CEE71978107803F8010B02F80119D6E765
:102DC800D0E9023293423DBF5A1C826018784FF016
:102DD800FF307047036810B5044613B14068FDF72B
:102DE80043FA2046BDE81040FDF73EBAF8B505465F
:102DF80010200C461F461646FDF70EFA054B846058
:102E0800C0E900743444C4606B60034B2860AB6055
:102E1800F8BD00BFC92D0008DD2D000802690A2A87
:102E280010B5044635D1836A013383620123A26950
:102E3800E36263696261226F2361002A31D0616EA7
:102E48008A423FBF501CA16E20678A5C28BF0022BF
:102E5800A2613BB9E2692261226A6261626AA26187
:102E680063662367D4E905230D2A07D10A22934212
:102E7800626103D1D4E901039847A061A3690133D2
:102E880006D163695A1C03D00A2B1CBF0A23A3610D
:102E980010BDC36A092A04BF073323F007030133AF
:102EA800C5E7D4E901039847A061DBE70369272B4D
:102EB8002BD0222B29D0A3F1620113291ED8174A3F
:102EC8000A41D2071AD44269272A1ED0222A1CD0C6
:102ED800722B1CD1662A06D18269272A15D0222A8C
:102EE80013D0722B15D14369622B0CD18069272826
:102EF8000BD0A0F12203584258417047662BF0D1FD
:102F08004269722AE8D00020704701207047662B7A
:102F1800F6D0622BF7D14369722BE6E7EEFFF6FF96
:102F280070B504460D4600262069431C01D1304681
:102F380070BD0A2808D115B1636B002BF7D0204665
:102F4800FFF76CFF0126EFE7FEF792FD18B1204668
:102F5800FFF764FFE8E72369232B08D12046FFF732
:102F68005DFF23695A1CDFD00A2BF7D1DCE75C2B05
:102F7800DDD163690A2BDAD12046FFF74FFFE6E778
:102F88002DE9F04F2DED028B436E85B00446A3B1B9
:102F9800036F93B929216030FEF708F92369E361CB
:102FA80063692362A3696362A36E1A7822615A78FF
:102FB80062619B78A3610323236700216165204632
:102FC800FFF7AEFFA36A6364236BE56AA564002B71
:102FD80001930ADA019F082384F84C3001372763EC
:102FE80005B0BDEC028BBDE8F08F05D0072384F84F
:102FF8004C30019B5F1EF2E7002834D0636B93BB13
:10300800062384F84C30D4E90F306FF00042991849
:10301800013D30F811108D42E2D019D9A16B8B42D5
:1030280007D308314900FDF712F9A36B2064083370
:10303800A363D4E90F32591CE16322F81350236BC0
:1030480001332363CCE7013BE363236B013B236339
:10305800E36B991830F811108D42F4D3C0D00223D5
:1030680084F84C30BCE725696A1C01D10023F7E7D6
:103078002046FFF71BFF8146002800F0B58100239A
:1030880084F84C302369752B51D0622B07D16369C2
:10309800722B51D1C84602260D23002512E0722B4F
:1030A80006D16369622BF5D0662B49D10523D7E792
:1030B800662B49D16369722BF8D04D4601260C2343
:1030C8004FF0000894F84C20002A3FD184F84C3087
:1030D8003EB12046FFF7A2FE022E02D12046FFF79E
:1030E8009DFE23692046222B14BF4FF0270B4FF07B
:1030F800220BFFF793FE23695B452AD163699B4541
:1031080027D12046FFF78AFE2046FFF787FE4FF0BB
:10311800030A25B1B24904F16000FEF78AF804F108
:10312800600308EE103A002704F150061EE001265D
:1031380000250C23A846C5E701260D230025BFE777
:10314800C84601260C23A8E7019EF1E79A42BFD0A2
:1031580046E74FF0010ADCE7934533D1594630463C
:103168000137FEF72AF82046FFF758FE2269511C5E
:1031780000F02F81BAF1010F02D10A2A00F029814B
:103188005745E9D3394604F15000FEF76CF80121A0
:103198002046FFF7C5FE2046FFF788FE00287FF48B
:1031A80071AF1DE72046FFF739FE21697B291ED143
:1031B8003046FDF7FBFF2046FFF730FE7B21304607
:1031C800FDF7F4FF21690DB17B29EBD05C2940F0B4
:1031D800FB8020460291FFF721FE27690299B8F18A
:1031E800000F38D03046FDF7E8FF3946CBE0676E70
:1031F800002221694B1C04D0C2B93A2901D07D298B
:1032080014D1D4E91921881810F8010C3D2807D1E8
:10321800D21B39443046FDF719FF636E013B6366E4
:1032280018EE100A2C21FDF7C1FFC7E721F0200096
:103238005B280BD1013218EE100AC9B20292FDF7D1
:10324800B5FF2046FFF7EAFD029AD2E75D2808BFDE
:1032580002F1FF32EFE7782F06D85B2F0BD8222F29
:1032680072D053D80A2F4FD0A7F13001072900F2A6
:10327800A58003279BE0A7F15C021C2AF4D801A1D2
:1032880051F822F0513300087132000871320008F9
:103298007132000871320008013300082D3300082C
:1032A8007132000871320008713200083D3300089D
:1032B800713200087132000871320008713200085A
:1032C8007132000871320008713200083533000885
:1032D8007132000871320008713200082933000881
:1032E80071320008313300084133000839330008CF
:1032F80071320008A1330008072194F84C300C2BD8
:103308005ED13046FDF759FF00272CE7552F13D023
:10331800AAD8272F18D04E2FA6D132480AF040FB42
:103328000D21EAE70821E8E70921E6E70A21E4E7B1
:103338000B21E2E70C21E0E794F84C200D2A05D197
:103348005C213046FDF739FF3946D6E7752F0CBFAB
:1033580004270827002114E020460291FFF75EFDAC
:10336800226903921046FEF7A1FB002800F0508165
:103378000299039A090110460291FEF7D7FB0299B8
:103388000144013FE8D2481CBED0B1F5881FB4D330
:10339800012384F84C30B7E70227DBE72046029187
:1033A800FFF73CFD22690299303A02EBC1016269DC
:1033B800303A072AE7D8013FF0D1E4E75C2111E76A
:1033C800FF29E5D80D2BE3D1C9B23046FDF7EEFE53
:1033D8009AE757453CBF032284F84C20D2E600BF49
:1033E8006F070408780704082846FEF74BFB0546D4
:1033F80020B920695F2801D07F283ED9092384F8A5
:103408004C3004F15005217C2846FDF7CFFE2046BC
:10341800FFF704FD2069421C1BD12846FDF7B7FEC3
:103428007E4F0646002557F8041B304620F0A8FBBF
:1034380000281CD10F35EDB2122D84F84C507FF4C2
:10344800CFAD774BD3F8F831002B0CBF11230F23E6
:1034580006E6FEF717FB0028D5D120695F28D2D0F1
:103468007F28D0D8FEF718FB0028CCD1D5E7FFF687
:10347800B7AD0135242DD6D1B2E5FEF70DFB68B303
:1034880021692E2935D10B2384F84C3004F15006DC
:103498003046FDF792FE2046FFF7C0FC0B27206957
:1034A800431C3FF49DAD002D36D120F02003452B61
:1034B80032D16521304684F84C70FDF77EFE2046F7
:1034C800FFF7ACFC21692B2901D02D29E7D1304623
:1034D800FDF773FE2046FFF7A1FCE0E723692E2BDA
:1034E80004D16069FEF7D8FA0028C9D14D4D0026ED
:1034F80032E00A23302984F84C30C7D1636943F09D
:103508002003623B162B9DBF474D1D4105F0010569
:10351800012585F00105B9E7FEF7B4FA28B121695C
:103528002E290DD184F84C70D1E72069FEF7B4FA42
:103538000028F4D123692E2BF1D05F2BCAD04FE598
:1035480021F020034A2BC2D1ECE7652F01D0632F6D
:1035580000D10135013601352F7817B12369BB42F7
:10356800F3D12046FFF75AFC0FB9012378E5212F44
:1035780007D123693D2BF8D12046FFF74FFC3A23AA
:103588006EE52E2F0FD123692E2B02D163692E2BC6
:1035980001D05D2364E52046FFF740FC2046FFF795
:1035A8003DFC0E235CE50335334615F8027C632F9A
:1035B8001AD0652F18D01D4AD35C84F84C30552B8F
:1035C8000ED0563BDBB2042B3FF60AAD012202FABD
:1035D80003F313F0150F18D113F00A0F3FF400ADE1
:1035E800636B01336363FBE415F8012C2169914295
:1035F80006F1010607D12046FFF710FC3346652F78
:10360800D9D00235D1E7632FFAE7636B013BE9E7CD
:10361800012384F84C3001466FE600BF30080408E7
:103628008C0000202A070408FEDFBFFF02080408F8
:103638007FB5064601AD742085E80E00FCF7ECFD69
:103648000446034695E8070043F8046B83E807003F
:1036580001236FF00102C4E90A3200250A22C4E9F5
:103668000E23C4E90C551420FCF7D6FD2021206454
:1036780004F15000FDF713FD294604F16000FDF741
:103688000EFD236C20461D80C4E905552561FFF712
:10369800C5FB2046FFF7C2FB2046FFF7BFFB2046CD
:1036A800FFF76EFCA36C012B18BF0723204618BF39
:1036B80084F84C3004B070BD30B585B001AC054617
:1036C8002046FFF793FB94E80E002846FFF7B0FF6B
:1036D80005B030BD30B585B001AC01460546204681
:1036E8001CF032FC2846FDF7D9FB94E80E00FFF7E2
:1036F8009FFF05B030BD10B5044690B1C36840685F
:10370800984704F15000FDF7F9FC04F16000FDF75B
:10371800F5FC206CFCF7A8FD2046BDE81040FCF73E
:10372800A3BD10BDD0E90432013B036152F8230068
:1037380070470369591A0139436953F821007047E2
:10374800F8B5446A06460D46B4B1D4E900030B4403
:10375800834222D90831002201442046FCF782FD29
:103768000246B8B9616820460831FCF77BFD6368FA
:103778002360336A63603462802D2F4638BF802708
:1037880007F10800FCF748FD002307604360044682
:10379800706202E023682B4423606068054465601A
:1037A80008342044F8BD38B5D0E903329A420446BB
:1037B8000D4608D3103399004069FCF748FDE368CB
:1037C80060611033E360D4E90432591C216142F886
:1037D800235038BDF8B504461D46D0E9000383429E
:1037E8000F46164608D31030C100A068FCF72FFD1D
:1037F8002368A06010332360D4E90103421C62608F
:1038080053F8301067F3170143F8301003EBC00288
:10381800D6705560F8BD10B48469CAB20023616CD3
:103828005DF8044BFFF7D6BFF7B5866996F84C30BC
:10383800092B05460F461ED1D6E91510FDF79CFA4F
:10384800902F04460ED1C100002241F0020105F17B
:1038580028000AF02FFC28B14468E3071FD544F07C
:10386800010102E0210141F00201284603B0BDE850
:10387800F040FFF798BF0A2B07D1D6E91510334659
:10388800002208F0F3F90446E7E70B2B13D1009662
:10389800D6E915100023012208F066FA04460C2127
:1038A8002846766CFFF74CFF4FF49D73C0E901344E
:1038B80001460660D9E7A3F10C02012A1CD8D6E913
:1038C80015100A290BD8FDF757FA96F84C3048B16D
:1038D8000C2B0CBF06210A2141EA0011C5E7FDF7B0
:1038E8001BFAF2E7064C0748D6E915210C2B08BF4E
:1038F800204610F08DF8D1E7190141F00E01B4E728
:10390800203A0408BC370408FE2807D010F0010349
:1039180006D040080CBF01200020704701207047E6
:1039280018467047B0F58F7F07D010F0010306D016
:10393800400814BF01200020704701207047184636
:103948007047000010F0010204D040F00100086048
:1039580001207047A8B110F003030FD102793A2A69
:103968000ED183680B6013F00100F1D19A0708D1DA
:103978001868044BC31A584258417047104670479C
:1039880018467047B42C04082DE9F04F2D2A87B04B
:103998000446894616461D460BD10021FFF7C9FE8D
:1039A800C0B1870702D10379922B13D007B0BDE8C5
:1039B800F08F922A20D10021FFF7BBFE014648B1C3
:1039C800880707D14F68FBB2952B0AD12046FFF72D
:1039D800A9FE013DA6F11E03012B58D8A8462F4683
:1039E80019E0962BF6D127F0FF07204647F09207FB
:1039F800FFF798FE4F60D9E7962A08BF0135E9E737
:103A08001E2E37D1FFF78EFFC8B91046FFF77CFF8F
:103A1800002808BF574607F1FF3AB8F1000F0ED04B
:103A280008F1FF3841462046FFF783FE23696169A4
:103A3800DB1B024641F82300B8F1000FE0D100215A
:103A480051451FD16D1A012DB0D0A6F12303DFB265
:103A5800092F00F2B780092B00F29281DFE813F0FA
:103A68007B007B007B00CA00CA00CA0005017B00FE
:103A780090014101FFF748FF0028E0D11046FFF709
:103A880051FFC5E72046FFF74DFE0131D8E7202E4C
:103A980019D100212046FFF74CFE0246FFF734FFFC
:103AA80070B91046FFF73EFF0028CED0FE21204611
:103AB800FFF738FE204607B0BDE8F04FFFF773BEAA
:103AC8004FF48F71F3E7052EBFD100212046FFF791
:103AD80030FE0746002875D010F0030A04D1436869
:103AE80003F0FE03562B6DD001212046FFF721FE7F
:103AF80000F00F03022B65D1BAF1000F62D13B79B8
:103B08002C2B5FD1BB6803F00F02022A5AD11B0984
:103B1800482B57D1FB68002B54D09A0752D11A79F9
:103B2800302A4FD1D3F808B04FEA101803A95846E5
:103B3800FFF708FF002840F0B280964996480CF03D
:103B48000BFDA1693A680968054653460CF0D6FD95
:103B58002846FCF73DFB691E2046FFF7EAFD02A94F
:103B6800FFF7F0FE70B3022F9ABFA6F10D07FFB260
:103B78002227A5F10208B8F1000F09DA002D40F05C
:103B8800EF80029EF30740F1F08046F0010191E7D3
:103B980041462046FFF7CDFD04A9FFF7D3FE88B1C3
:103BA800222F049A07D00299384609F009FD08F136
:103BB800FF380290DFE7104601920DF06DFE0028F5
:103BC800019AF0DAA91C89002046FFF7B9FD46EAF8
:103BD80005230746C0F80090436000F10801002D56
:103BE80040F0D080962E03D139462046FFF7DBFD02
:103BF80039465FE7691E2046FFF79BFD02A9FFF7DC
:103C0800A1FE0028DED0A5F10208B8F1000FB5DD4D
:103C180008F1FF312046FFF78CFD04A9FFF792FE5B
:103C28000028CFD041462046FFF783FDC0F3071098
:103C38004328C7D04528C5D0049A01922538C7B271
:103C480010460DF029FE1A2F019A09D80028B9DB71
:103C58000299384609F0B4FCA8F102080290D4E7AA
:103C68001E2FF5D90028F3D1ACE700212046FFF735
:103C780060FD02A9FFF766FE0028A3D001212046B7
:103C8800FFF757FDC0F30710342818BF40380299D2
:103C980014BFC0B2022008F041FF02906EE74FEA5D
:103CA800C801012241F0020104F128000AF002FAD9
:103CB800039B43604046FDF705F903785F2B2046D8
:103CC80008D1FFF72FFD00252046FFF72BFDA94659
:103CD80008267FE6FFF726FD59462046FFF763FDD5
:103CE80070E701212046FFF724FD00210746204602
:103CF800FFF71FFD07F00F03022B7FF463AF0028C7
:103D08003FF460AF10F003027FF45CAF0379322B0D
:103D18007FF458AF3909C900D0F808801F4841F02E
:103D280002010AF0C7F900283FF44CAF406804AA22
:103D38004FEA181108F01CFE049B002B3FF442AF19
:103D4800D90707D49A077FF43DAF1968144A9142FE
:103D58007FF438AF059A002A7FF434AF02930DE759
:103D68002046FFF7DFFC013D08E70C212046FFF75E
:103D7800E7FC4FF49D73C0E901360146056099E6FA
:103D88002B261FE72046FFF7CDFC013D41F8250013
:103D980025E700BFC0080408742604083009040891
:103DA800B42C0408036830B55BB19C070BD15C6880
:103DB800E5B28D4207D103F10800230A10601846C6
:103DC80030BD1846FAE70123F8E700002DE9F04F67
:103DD80093B00024402301904FF400700D460092E8
:103DE800CDE90534FCF718FA202307908020CDE9A7
:103DF8000834FCF711FA2146CDE90A050FA8CDE9E8
:103E08000D440AF021F9009B002B49D0022B0CBF6E
:103E18003F222246696CDFF8CCA2002305A8FFF7F1
:103E2800D9FC0027069C002C00F05E81013C079914
:103E3800A74E069401EBC40351F83410DA785B6896
:103E4800C1F31709A34911F802B0A349895C632A91
:103E580088BF41F4807106EB41060BF03001102950
:103E68000BF00F081ED0202949D0002F00F0028146
:103E7800B8F1020F40F0F180012B19D000211BF09E
:103E8800010F03F1FF3006D074880AEA0404B4F580
:103E9800805F08BF5808012800D101B30346AAE093
:103EA8003D22B7E703B1D7B106EB4306984501D8E1
:103EB8000127B7E7374636F8021B01EA0A00B0F5D2
:103EC800805F0ED195F84C00C1F30B01884214D1E4
:103ED80005A81146FFF7A8FC2846FFF751F8002768
:103EE800A0E70133434503D2494605A8FFF772FC12
:103EF800398805A8FFF78FFCF1E70133D6E78FB1C2
:103F080003F10041013936F811100AEA0101B1F54F
:103F1800405F1DD1002105A8CDE90232FFF743FC1F
:103F2800DDE9023206EB4304984525D8009B0BB126
:103F3800052A47D0002406EB48082746B0455FD13C
:103F4800012F7ED11BF0400F7BD00026314672E056
:103F5800012BADD995F84C30072B40F0F3805F4921
:103F68005F480CF0F9FA6A6C2968044600230CF0E3
:103F7800C5FB2046FCF72CF9274634F8021B01EA5A
:103F88000A00B0F5805F1BD195F84C00C9B2884291
:103F980012D1092807D1114605A803930292FFF709
:103FA80043FCDDE902232846CDE90232FEF7E8FFAB
:103FB800029B039A0133B7E7002B3FF479AFC9E7B7
:103FC800013391E7002105A8FFF7B3FB0028B1D121
:103FD800012105A8FFF7ADFB830700F0C18000F0C1
:103FE8000F000228A6D005A8FFF79CFB05A8FFF73D
:103FF80099FB00230822494605A8FFF7C5FC6EE790
:1040080038F8023D03EA0A01B1F5805F05D1DBB259
:10401800092B93D10134013790E7214605A8FFF712
:1040280088FB00B10137013488E7FFF77BFB0136D5
:10403800002818BF0146A64205A8F6D1FFF7B3FB32
:104048004DE71BF0800F06D0002105A80292FFF76C
:10405800AAFB029A01342346CDE7012B3FF428AF8F
:1040680013F001013FF40BAFB8F1030F7FF472AF07
:10407800012104E708EA030101F0010136F81140C3
:1040880004EA0A00B0F5805F17D195F84C00C4F334
:104098000B04A04203F101040DD129B9114605A86A
:1040A8000292FFF7C1FB029A02922846FEF768FFC8
:1040B800029A2346DEE72346DAE6494605A8013395
:1040C800FFF788FB214605A8FFF7A5FBAAE600BF76
:1040D8001C0A04086C090408A40D0408CE08040886
:1040E8006823040800F0FFFF0FA809F0C1FF0E982D
:1040F80050B1416822460831FCF7B4F80E9B5A6863
:104108001A600D9A5A600D9395F84C30002B7FF485
:1041180021AF099B002B3FF41DAF0A9B07981B6832
:104128000C93FCF7A1F80A98FCF79EF82846FFF7CD
:10413800E2FADDE90C01019B83E80300184613B09D
:10414800BDE8F08F022B01D1094909E7042B02D100
:104158000849094805E7052B0CBF08490849F8E74D
:1041680000283FF4E7AE03793A2B3FF43CAFE1E691
:10417800E00804080209040874260408150904085C
:104188002A09040810B5406800B910BD4468FCF756
:104198006BF82046F8E700002DE9F041054630208D
:1041A8000E4690461F46FCF750F8072D044605704A
:1041B800C660A0F8148001D0012D10D1B268C2F3F6
:1041C8000F12E28207F026FF04232061678323850C
:1041D8002020FCF721F8E0622046BDE8F081014B81
:1041E8005A5DEEE7540E040810B50446C06AFCF7A1
:1041F8003BF82046BDE81040FCF736B830B5448D92
:104208000022944202D80023184630BDC36A03EB4B
:10421800C2035D688D42F7D00132F2E770B50446FB
:104228000D461646FFF7EAFFC0B9238D628D9A4204
:1042380008D30633D900E06AFCF709F8238DE06259
:1042480006332385638DE26A591C02EBC30061853E
:1042580002F83360002343704380456070BD034615
:1042680018465B68002BFBD1FFF7C8BFF8B5446858
:104278000E462CB9F8BD032BFCD104230370F9E7D3
:10428800254628466D68002DF4D077683946FFF733
:10429800B5FF0028F5D00378033B022BEAD80525A3
:1042A8003570002239462046FFF7B8FF0378002B07
:1042B800E1D105706468F4E7436A5B8B012B1EBF8C
:1042C8000369C91801617047C36A10B50446DB6FFA
:1042D800806A9847A38B626A0133D18C9BB299425A
:1042E800A38338BFD38410BD838B10B5013B838370
:1042F800C36A0446D3F88430806A9847204601216F
:10430800BDE81040FFF7D8BFF7B51E4659B111F008
:10431800030511D14F68FCB294420DD13F0A01F157
:104328000804BD4201DB03B0F0BD54F8041B019042
:104338000135B0470198F4E7334603B0BDE8F040D3
:1043480018472DE9F04F2DED028B044608EE102A90
:1043580083B00D4698461BB10B8B43F008030B83C3
:1043680018EE103A2B84636A1A8B42F030021A83D3
:104378001B78002B4CD1E36AA06AD3F8B46018EE1E
:10438800102A43462946B44603B0BDEC028BBDE86B
:10439800F04F6047DB6A03EBC60B13F83630043B7B
:1043A800012B1DD84FF0000917E0EB6A03EBC90297
:1043B80013F83930052B0ED1DBF8041053689942F5
:1043C80009D1E36ABBF802205B69A06A1F46002393
:1043D800B8470AF1010A09F101096B8D4B45E4DC84
:1043E8000136636A5A8DB242D4DCD4E90A03BAF1C1
:1043F800000FC0D0CDF80080D3F8B840524618EE70
:10440800103A2946A04703B0BDEC028BBDE8F08FF7
:104418000026B246E5E70000F8B504460E46114608
:104428001A46002385794769837143610E4BFFF76C
:104438006BFFA368BBB9E18A51B1A28A42B9E36AAA
:10444800A06AD3F8A0309847E36AA06A5B6C9847E3
:10445800A38AE28A31462046FFF773FF003D18BF62
:104468000125A5716761F8BD59580008024B896894
:104478009D22FFF749BF00BF65650008024B8968A8
:104488006B22FFF741BF00BFFD480008C36A10B5A3
:104498000446D3F88830806A00219847E36AA06A06
:1044A8005B6B10219847E36AA06AD3F8CC300121EE
:1044B800984720460321BDE81040FFF7FDBE38B5F8
:1044C800C36A04469B6C806A00229847E36AA06A24
:1044D800D3F8C05000231A461946A8472046BDE81D
:1044E8003840FFF7D3BFC36A89685B6D806A0022D2
:1044F80009091847C36A89681B6C806A184710B590
:104508000446084611462268FFF746FE636A436080
:1045180000238360236A0BB9206210BD1A469B688A
:10452800002BFBD19060F8E770B54379012B054665
:104538000C4606D1436A0A465B8B0221FFF7DFFF70
:104548002061A268216928464C23BDE87040FFF726
:1045580063BF70B513464279012A05460C4604D15B
:104568000A460721FFF7CBFFA061A669E268284643
:1045780046233146FFF750FFF08A70BD2DE9F04F12
:1045880087B0054600AF0C4611B90121116015E04E
:1045980011F003081BD10B79682B07D1CB681B09D5
:1045A80013608C68002CF0D04FF0010804F00F0362
:1045B800022B0FD12109B8F1000FE7D0EB6AA86AE6
:1045C8001B6B002298471C37BD46BDE8F08F4FF0A3
:1045D8000008EBE7B8F1000F02D1A3681B091360CC
:1045E80063684FEA132904F1080309F1FF3AFB60F5
:1045F8009B4600264E4526DB0AF1070323F00703F6
:10460800ADEB030D6B461E464FF0000BCB4522DB8E
:1046180051461846FCF7B0FBEB6A01461B6BA86ACB
:1046280000229847B8F1000FCDD00C3401264E4532
:10463800C9DA54F8041BEB6AA86A5B6D0022090901
:1046480098470136F3E75BF8040B0009FCF735FCE3
:1046580001368244CEE7BBF1000F03D04FF02E02A3
:1046680006F8012B7B60FB6853F8040BFB6007F12D
:1046780014010009FCF72BFC7A69BA600146304640
:104688001FF0F2F9BA687B6816440BF1010BBDE71D
:1046980031B1C26801F00303134304BF0B68C36060
:1046A8007047000038B583680D46044611464BB97B
:1046B80005480BF051FF2946A0602046BDE8384068
:1046C800FFF7E6BF38BD00BF74260408014AFFF7AC
:1046D800E9BF00BF5B0E04080B79092B70B50CBF4E
:1046E800058B458B4FF6FF739D42044602D1064A5F
:1046F800FFF7D8FFA18BE28BE36AA06A9B6F8A1A47
:104708002946BDE870401847680E040813B50446EA
:10471800B9B101F00F03022B0FD10A09104601921B
:1047280009F000FB0028019A05DA074907480BF051
:10473800A9FFA060002002B010BD054AFFF7B2FF34
:10474800F8E70846F7E700BF810E0408A027040829
:10475800860E040810B404460B466279406A012AA2
:1047680003D15DF8044BFFF759BDE16A02461431E5
:10477800A06A5DF8044B02F0BBBD10B4426A04465F
:10478800407901280B4604D15DF8044B104602F02D
:10479800A1BDE16AA06A5DF8044B1C3102F0A8BD16
:1047A800436A10B55A8B0446FFF7D3FE01462046EC
:1047B800BDE81040FFF7E1BFF0B58D6805F00F03C5
:1047C8000E2B85B004460E4607D0002D31D015F0CB
:1047D80003012ED12B79652B1ED10295002503AA42
:1047E800652102A8FFF7DEFA039B002103EB800096
:1047F80040F2DE52834215D1F26840F22E439A42CB
:1048080037D1636A1F78B7B1394A3146204605B0B7
:10481800BDE8F040FFF746BF622BEDD1AB680293CD
:10482800ED68DCE753F8047B97420CBF0131033194
:10483800E0E70021E0E7E36AA06A9B6B9847E36A38
:10484800A06ADB6B05219847E36AA06AD3F8A03019
:104858003A460121984703AA29462046FFF78EFECB
:10486800E36AA06A1B6B0222394605B0BDE8F04036
:104878001847E36AA06A9B6B984706F10C0002AAE6
:104888006A21FFF78FFA00270646B742D4E90A03E0
:1048980012D1D3F8A030002231469847294603AAFE
:1048A8002046FFF76BFE0025B542D4E90A030CD178
:1048B8001B6E984705B0F0BD029ADB6B52F82720B3
:1048C8009168090998470137DFE7029A1B6B52F88C
:1048D8002570B9680122090901919847FB682BB92D
:1048E80001992046FFF749FF0135DDE71909F8E787
:1048F8008D0E0408C36A37B504460D469B6B806A63
:1049080000219847E36AA06A5B6B10219847294603
:10491800204601AAFFF732FE0199204603B0BDE800
:104928003040FFF72ABF10B4426A04464079012894
:104938000B4604D15DF8044B104602F0CBBCE16A8B
:10494800A06A5DF8044B243102F0D2BC37B50446A6
:104958000D46002937D0CA0707D5C36A9B6B491093
:10496800A06A03B0BDE8304018478B0737D001F084
:104978000F05062D4FEA111309D00A2D0FD0022D6D
:1049880023D1194603B0BDE83040FFF7E3BEC26A41
:10499800806AD26B194603B0BDE8304010474279AF
:1049A800042A03D0C36A06211B6CD9E701A918465B
:1049B800FCF78DFAE36A0199A46A1D6C0FF0C6FA38
:1049C80001462046A84703B030BD062BFBD0C26A7B
:1049D800806A526BD9B203B0BDE830401047C36A51
:1049E80009681B69806A98472A79034B294653F856
:1049F80022302046B5E700BF481004088B072DE990
:104A0800F14F04460D46164611D001F00F03022B54
:104A180016D1D7074FEA111104D401B0BDE8F04F01
:104A2800FFF7ABBE01B0BDE8F04FFFF793BE496892
:104A3800CBB22D2B7BD00BD8062B0DD02C2B12D024
:104A48004E4A2946204601B0BDE8F04FFFF72ABE7E
:104A58002E2B7FD09D2BF3D1002EF1D105F108022A
:104A6800090A20467BE0022A02D0A968FFF76EFFF8
:104A7800EF68002FE4D017F00309E1D17B68DAB2C0
:104A88008E2AB8460DD1022E4FEA132805D007F119
:104A9800080A08F1FF3BD94511DB08F1010857F86E
:104AA800288098F80430312B24D1022E0FD1E36AE4
:104AB800A06A9B6E9847E36A1B6D012115E05AF8BE
:104AC800041B2046FFF742FF09F10109E3E7D8F884
:104AD80008102046FFF73AFF012EE36AECD1DB6DA0
:104AE800A06A9847E36A1B6D0021A06A01B0BDE87F
:104AF800F04F1847322BA3D1012ED4E90A030CD169
:104B08009B6D9847E36AD8F808105B6D0022A06A8D
:104B1800090901B0BDE8F04F1847022E01D15B6EBC
:104B28009847E36AD8F808105B6D0122EFE7AA6896
:104B3800002A85D0002E83D15168090A022907D19D
:104B4800D3682BB1980703D11B79AC2B3FF478AF0E
:104B5800083286E7002A7FF473AFA96821B901B04B
:104B6800BDE8F04F00F00CB88E0703D10B79922BFB
:104B78000A46E1D005F10802012172E79F0E0408F8
:104B88002DE9F84304460D46904601F1FF39002609
:104B98004FF0FF37B9F1FF3F0CD17B1C05D1E36A19
:104BA800A06AD3F8AC30294698470026AE421DD1FA
:104BB800BDE8F88358F8261071B18A070CD10B7933
:104BC800222B09D101370BD1E36AA06AD3F8B030A0
:104BD8004A46314698473746013609F1FF39D9E741
:104BE8002046084ABDE8F843FFF75CBD58F8261090
:104BF800B74208BF896800222046FFF7FFFE01364A
:104C0800D4E700BFAA0E04082DE9F74F04460D4665
:104C180016461F462846FEF777FE20B1CEB9E36A4E
:104C28003946DB6E4CE02846FEF77CFE08B186B1BB
:104C3800F5E7002D55D0AB0753D16B684FEA132B1E
:104C4800DBB21E2B1BD1F6B1083505EB8B0B5D458E
:104C58000DD103B0BDE8F08F5AF8041B019243460A
:104C68002046FFF7D1FF09F10109019A19E055F82B
:104C7800041B3B4632462046FFF7C6FFE7E71F2BDB
:104C880023D1002EE0D0D4F8108008F1010323616D
:104C98000BF1FF3305F1080A4FF00009009386F085
:104CA8000102009B4B45D7DC0BF101013B4655F84F
:104CB800211032462046FFF7A7FFE36ADB6A414628
:104CC800A06A03B0BDE8F04F1847202B03D1AD68A8
:104CD80086F001069EE72D2B03D1AB68002BA6D1E9
:104CE8009CE729462046FFF731FEE36AA06A1B6F5E
:104CF8003A46314603B0BDE8F04F18472DE9F04772
:104D080007691E46BB1C0361C36A04460D46DB6A7D
:104D1800806A394690469847E36AA06AD3F88C308F
:104D280007F1010949469847A96800222046FFF77C
:104D380065FE2D69002D2DD141462046FFF706FE60
:104D4800636A1978E36A06291DD1D3F8CC30A06AC2
:104D58002946984720460121FFF7AEFAE36AA06A80
:104D68001B6E9847E36AA06ADB6E39469847E36A88
:104D7800A06ADB6A49469847E36AA06AD3F890308C
:104D8800BDE8F0471847B200D3F8A830A06A05324A
:104D98009847E7E72B79AD2B07D1A9683B46002256
:104DA8002046FFF731FFED68C4E7E9682046FFF7C2
:104DB800CDFDE36AA06AD3F8883001219847731CB7
:104DC800424629462046FFF799FFCBE7C36A2DE9FB
:104DD800F0410D46427100260446114606611B68E3
:104DE80045622A46806A984706212046FFF764FAFA
:104DF8006779012F08BF6E62EE686EB1B2070BD1FA
:104E080033793F2B08D1B168FFF7A0FDE36AA06AA8
:104E1800D3F8C43098472CE02B784BB9314620465C
:104E2800FFF794FDE36A5B6BA06A10219847EDE7F2
:104E3800072B24D1012F12D10023A371F1685F4BF6
:104E480046222046FFF760FA6B8B032B07D13169A6
:104E58002046FFF75BFC2B8B43EA80102883204613
:104E68007169FFF773FDE36AA06A9B689847002899
:104E7800D8D0E36AA06A5B68BDE8F0411847022B06
:104E88001BD1E36A31681B69A06A98476379012BD3
:104E980007D10023A371B168494B4C222046FFF784
:104EA80033FAF1682046FFF751FD2B8BDB07ADD5B0
:104EB800E36AA06A1B6E9847B4E7033B032B4FD8FD
:104EC800012FD6F80C8005D1606A03223946FFF716
:104ED800A5F9AF83E36A31681B69A06A98472B7804
:104EE800032B24D1E36AD3F8A0300122A06A002161
:104EF80098472B78062B28D1E36AA06A5B6C984701
:104F080001212046FFF726FCE36AA06A5B6C9847FC
:104F1800E36AA06A5B6C98470023B2684146204662
:104F2800FFF7ECFE2B78062B7FF470AF7AE7042BA3
:104F380004D1E36A0222D3F8A030D7E7052BD8D1F1
:104F4800E36A0322D3F8A030D0E720460121FFF717
:104F580001FCE36AA06AD3F8883001219847DBE7AF
:104F6800012F04D103220A212846FFF757F91721F8
:104F78002046FFF7EFFB16212046FFF7FEFBB1683E
:104F8800E36AA06ADB6B090998471A212046FFF7F4
:104F9800F4FB31692046FFF7D9FC0A212846FFF7C0
:104FA8002DF90378032BE36A3FF43DAF5D6942882E
:104FB800A06A00230A21A84728E700BF356D00082A
:104FC8003D6D000838B5426A1278072A04460B4638
:104FD80006D0022A04D0BDE83840144AFFF762BB65
:104FE8009D6885B9E36AA06A5B6B10219847E36AFC
:104FF800A06AD3F8CC300021984720460121BDE8AB
:105008003840FFF759B9AB070BD12B79AF2B08D133
:105018002046A968FFF79AFC2046BDE83840FFF70C
:1050280035BA29462046FFF791FCE0E7B10E04089F
:1050380001F00F03022B70B504460D46164602D048
:105048000B4AFFF72FFB31462046FFF77FFCE36A48
:10505800A06A9B6D9847666A3378033B032B9CBF15
:105068007368636229092046FFF787FB666270BD93
:105078009F0E0408D1E90212FFF7DABF70B5437931
:10508800CE68012B0446154606D1436A0A465B8B57
:105098002946FFF734FA7061002371691A462046E1
:1050A800FFF74FF9F1682046FFF750FC062D05D1B0
:1050B800E36AA06AD3F8883000219847E36AA06AB7
:1050C800D3F8BC500023AC461A46BDE87040012115
:1050D800604700002DE9F04F87B0CDE90221044672
:1050E80005AAA42103A81E46FEF75CFE4FF0000B9C
:1050F8000190D946DA465F46D846019B9B451AD1AE
:105108006FB1BAF1000F72D1E36AA06A5B6C98477D
:10511800B9F1000F71D1E36AA06A5B6C9847029AF3
:10512800D4E90A03002A6ED0D3F8C0403B46424671
:105138003146A04710E0059A52F82B50002D49D06F
:10514800A80747D12A79A62A0FD1F90707D52F4AE8
:1051580029462046FFF7A6FA07B0BDE8F08F47F0CA
:105168000107AA460BF1010BC7E7A72A07D1BA071F
:1051780001D5274AECE747F00207A946F2E7A82A33
:1051880028D1EA686AB193070BD11179AA2906D107
:105198009268A9682046FFF74BFF0136E2E7AC2981
:1051A80012D0A96801F00F02022A01D0194ACFE7EC
:1051B800E26AA06AD26B09099047E9682046FFF7BE
:1051C800C5FB08F10108CDE7062229462046FFF76E
:1051D80055FFE2E70FB1104ABAE7B8F1000F01D066
:1051E8000E4AB5E729462046FFF7B0FBD5E7DAF8BF
:1051F80008102046FFF7AAFB8AE7D9F808102046CE
:10520800FFF7A4FB8BE7D3F8BC408FE7BC0E04087C
:10521800C30E0408CB0E0408D80E0408E10E0408D7
:1052280070B50D46417901290446134603D12A4633
:10523800FFF765F96861E36AA06ADB6C98476E69F5
:1052480000231A4631462046FFF77BF8E36AF18AC5
:10525800DB6BA06A9847E96829B18B0703D10B7902
:10526800A32B08BF0021204602230022FFF732FFAC
:10527800F08A70BD436A10B55A8B0446FFF7D0FF19
:1052880001462046BDE81040FFF777BA0023896839
:105298001A46FFF71FBF38B50C460546C968FFF721
:1052A80055FBA1682846BDE83840FFF74FBB0B798E
:1052B800342B70B504460D4610D18968FFF746FBBC
:1052C800ED68AD6885B9E36AA06A5B6B1021984701
:1052D800E36A0422D3F8A03002211AE0C36A806A84
:1052E8005B6B10219847ECE7AB071FD12B799A2B02
:1052F80013D1E36AA06A5B6B10219847A96800295B
:10530800E6D02046FFF722FBE36AD3F8A030042258
:105318000321A06ABDE8704018479B2B06D1A968F5
:105328002046FFF713FBEB689968E8E72946204613
:10533800FFF70CFBCCE710B504468968FFF706FBBE
:10534800E36AA06A1B6DBDE8104000211847000001
:105358002DE9F7438D68044616465DB9002A75D0D5
:10536800C36AD3F8A03002222946A06A03B0BDE878
:10537800F043184715F0030740F08A802B79372B44
:1053880013D132B1C36A806AD3F8A0300222012156
:10539800984720462946FFF7D9FAE36AA06AD3F866
:1053A800A43003B0BDE8F04318479F2B70D1EB68D9
:1053B8001A79A12A5AD1A22101AA03F10800FEF7FD
:1053C800F1FCA968804621B38B0722D10B79372BD2
:1053D8001FD136B1E36A411CD3F8A030A06A02227B
:1053E8009847A9682046FFF7B1FAE36AA06AD3F89C
:1053F800A43098474FF00109474510D1B9F1000F83
:1054080024D1E36AA06AD3F8A0300322791C984714
:105418001CE02046FFF79AFA4FF00009ECE7019BE1
:1054280053F82710A9B18E0713D10E79A6F13700CA
:10543800464246412046FFF789FAB9F1000F11D0DC
:105448004EB9184A29462046FFF72CF903B0BDE8A3
:10545800F0830026EEE7E36AA06AD3F8A430984701
:105468000137C9E7002EFBD00F4AEBE7AB685BB109
:105478009A0709D11B79372B06D10422294603B094
:10548800BDE8F043FFF7FABD052229462046F6E7B6
:1054980029462046FFF75AFAE36A0322D3F8A030D8
:1054A800012162E7E80E0408F90E04080122FFF75B
:1054B8004FBF00002DE9F8430C4689680546FFF701
:1054C80045FAE668002E57D07768696AFBB2097812
:1054D8008E2BA36819BF04F10C0601273F0A083672
:1054E800072903F00F024BD1022A47D11A099A2A39
:1054F80048D132681179302944D19268002A41D1C3
:105508000A212846FFF726F96A6AD36A528D32B90A
:105518003168414A2846BDE8F843FFF7C3B85978CF
:10552800C9070FD559682846FFF714F9022FEB6A07
:105538000BD8D3F8BC40A86A00231A460221A0471A
:10554800012417E0013A0833E1E77268117932293A
:10555800EFD1B46821793029EBD191689B6CA86AA6
:10556800012209099847A168002301222846FFF76C
:10557800B1FD0324A74226D8BDE8F8830024F9E743
:10558800022AFBD140F26532B2EB131FF6D1336821
:105598001A79302AF2D19B68002BEFD013F003045C
:1055A800ECD11B792F2BE5D1EB6AA86AD3F8BC8024
:1055B800224623462146C047336822469968284632
:1055C800FFF7C6FEBCE704F10108B84556F82410F9
:1055D8004FEA84031AD20A79322A17D13344D3F80E
:1055E800049099F80430302B10D18968EB6AA86AC6
:1055F8009B6C002209099847D9F80810002301225A
:105608002846FFF767FD08F10104B3E72846FFF7CE
:105618009DF9A046F7E700BF040F040810B5426AD9
:105628001278072A04460B4606D0022A04D0BDE8A1
:105638001040064AFFF736B820461946FFF73AFFEA
:105648002046BDE81040FEF721BF00BF170F040831
:1056580070B50D46C9680446FFF778F9A968E36A8A
:10566800A06AD3F89830C1F30711342918BF40391C
:10567800BDE8704014BFC9B202211847F8B54F6899
:105688000C4689680546FFF761F93F0A0C34002685
:105698000236B74204F1080400DCF8BD54F8041CD3
:1056A8002846FFF753F954F8081CEB6AA86AD3F8A0
:1056B8009C3009092539C9B29847E9E72DE9F04135
:1056C8004E680C4689680546FFF740F9A6F10D08B3
:1056D8005FFA88F8360A0C340127B74201DBBDE8C7
:1056E800F08154F8041B2846FFF730F9EB6AA86AE2
:1056F800D3F89C30414698470137EEE72DE9F04151
:105708004E6804460D46360A8968FFF71FF9032ECE
:1057180083BFD4F8108008F1010323614FF000081B
:1057280001277B1C9E4222DC032E55DD2569A06AD9
:105738006B1C2361E36A2946DB6E9847E36AA06A1B
:10574800DB6A41469847E36AA06ADB68012198470B
:10575800E36AA06A5B6E9847E36AA06A1B6E984783
:10576800E36AA06ADB6A2946BDE8F041184729695F
:1057780020460237FFF7EAF8B74207DAE36AA06A79
:105788009B6D9847E36AA06A9B6E9847EB68E26A4C
:10579800A06AD2F89C2003F00F010E2911D1C3F39F
:1057A8000713262B1ABF353BD9B206219047B742BB
:1057B80005DAE36AA06A5B6F42460021984708351C
:1057C800AFE71979852901D13221EFE79B680BB939
:1057D8000721EBE73321E9E7BDE8F08110B504467E
:1057E8008968FFF7B3F8E36AA06AD3F89830BDE890
:1057F8001040032118472DE9F0474E68D0F8108073
:105808005FFA86F9A9F11E03D3F1000949EB0309F0
:1058180008F1010304460361360A01F1080500276F
:10582800B74206DBE36AA06ADB6A4146BDE8F04797
:10583800184755F8041B20460137FFF787F8B74289
:10584800F0DAE36AA06A5B6F424649469847E7E7A1
:1058580001F00F03022B70B504460FD00B79492BCA
:1058680001D04F2B02D10123A37170BD4A2BFCD06C
:10587800502BFAD0482B0DD10D696DB9A379002BA7
:10588800F3D1E38A002BF0D020461D4ABDE87040D2
:10589800FEF708BFCD68F0E7A3798E683BB3A38A0B
:1058A80001339BB2012BA3820ED1E18AD4E90A030A
:1058B800D1B1D3F8A03000229847E36AA06AD3F8A0
:1058C800A03002220021984729462046FFF73EF8DB
:1058D800E36AA06ADB6B31099847E36AA06AD3F8E8
:1058E800A430BDE8704018475B6C9847E5E7E38A49
:1058F8000133E38229462046BDE87040FFF726B809
:10590800220F04082DE9F0410569D1F80C800E46F4
:10591800AB1C04460022D8F8081003612B46FFF799
:1059280073F9B1682046FFF711F8E36AA06ADB6EE5
:105938006F1C39469847E36AA06ADB6A294698478C
:10594800E36AA06ADB684FF0FF319847D8F80C107B
:105958002046FEF7FBFFE36AA06ADB6A3946BDE82A
:10596800F04118472DE9F7430446904699460F46FB
:1059780029B9194603B0BDE8F043FEF7E7BF066949
:10598800731C036115684DB315F0030226D12B79FA
:105998007B2B23D1A9680192FEF7D8FF019A3146E3
:1059A8002046FEF791FC019AE9682046FFF726F8A1
:1059B8004B4608F10402791E2046FFF7D3FFE36A3D
:1059C800A06AD3F880303146984703212046FEF775
:1059D80073FC03B0BDE8F043FEF786BC29462046B9
:1059E800FEF7B4FF204600223146FEF76DFCE36A5D
:1059F800A06A1B6E9847DBE737B50C46054601AA37
:105A08007A2104F10800FEF7CDF9E368019A01460E
:105A18002846FFF7A7FF03B030BD00002DE9F04F7F
:105A28002DED028B83B0056901921E460E9B08EE90
:105A3800103AAB1C044603610F4601222946FEF7C3
:105A480043FC39462046FEF781FFE36AA06AD3F893
:105A5800943005F1010A002251469847E36AA06A8A
:105A6800DB6A29469847E36AA06AD3F8D03098479A
:105A7800D4F8108008F1010323610027019B9F429D
:105A88001BDB2046FEF730FCE36AA06AD3F8D4306B
:105A98009847E36AA06ADB6A5146984718EE101ADD
:105AA8002046FEF753FFE36AA06ADB6A414603B06B
:105AB800BDEC028BBDE8F04F18473346D4F8109080
:105AC8001A68009209F101022261009AD2F808B01E
